:020000040800F2
:1000000000800120A5920008E1220008E3220008F8
:10001000E5220008E7220008E922000800000000AD
:100020000000000000000000000000000165000862
:10003000EB22000800000000A16500088B600008AA
:10004000F5920008F5920008F5920008F592000874
:10005000F5920008F5920008F5920008F592000864
:10006000F5920008F5920008F5920008F592000854
:10007000F5920008F5920008F5920008F592000844
:10008000ED220008FD220008F592000800000000A3
:10009000000000000000000000000000F5920008D1
:1000A000F59200080D23000825230008F5920008AA
:1000B000F5920008F5920008F5920008F592000804
:1000C000F5920008F5920008F5920008F5920008F4
:1000D000F5920008F59200083523000800000000A2
:1000E00045230008F5920008F59200080000000082
:1000F000000000000000000000000000F592000871
:1001000000000000F5920008F5920008F592000842
:1001100000000000000000000000000000000000DF
:10012000F5920008F5920008F5920008F592000893
:10013000F592000800000000000000000000000030
:10014000000000000000000000000000F592000820
:10015000F5920008F5920008F5920008F592000863
:10016000F5920008F5920008000000000000000071
:10017000000000000000000000000000000000007F
:1001800000000000F59200080000000000000000E0
:04019000F5920008DC
:1001A00010B5054C237833B9044B13B10448AFF3B1
:1001B00000800123237010BD88070020000000008C
:1001C0008C7D010808B5034B1BB103490348AFF30D
:1001D000008008BD000000008C0700208C7D010815
:1001E00010F8012B11F8013B012A28BF9A42F7D0E1
:1001F000D01A70470000000000000000000000005E
:1002000001F0FF01102A2BDB10F0070F08D010F8C7
:10021000013B013A8B422DD010F0070F42B3F6D1CB
:10022000F0B441EA012141EA014122F007047FF0E4
:1002300000070023F0E80256083C85EA010586EA3B
:10024000010685FA47F5A3FA87F586FA47F6A5FA77
:1002500087F68EB9EED1F0BC01F0FF0102F0070283
:1002600032B110F8013B013A83EA010313B1F8D12E
:100270000020704701387047002D06BF354603380F
:10028000073815F0010F07D1013015F4807F02BF48
:10029000013015F4C03F0130F0BC0138704700BF99
:1002A000034613F8012B002AFBD1181A01387047B6
:1002B00081F0004102E000BF83F0004330B54FEA17
:1002C00041044FEA430594EA050F08BF90EA020F84
:1002D0001FBF54EA000C55EA020C7FEA645C7FEA17
:1002E000655C00F0E2804FEA5454D4EB5555B8BF3A
:1002F0006D420CDD2C4480EA020281EA030382EAAB
:10030000000083EA010180EA020281EA0303362D3C
:1003100088BF30BD11F0004F4FEA01314FF4801C0F
:100320004CEA113102D0404261EB410113F0004F21
:100330004FEA03334CEA133302D0524263EB4303D8
:1003400094EA050F00F0A780A4F10104D5F1200E76
:100350000DDB02FA0EFC22FA05F2801841F10001D1
:1003600003FA0EF2801843FA05F359410EE0A5F1A5
:1003700020050EF1200E012A03FA0EFC28BF4CF0D6
:10038000020C43FA05F3C01851EBE37101F000458C
:1003900007D54FF0000EDCF1000C7EEB00006EEB99
:1003A0000101B1F5801F1BD3B1F5001F0CD3490823
:1003B0005FEA30004FEA3C0C04F101044FEA44527A
:1003C00012F5800F80F09A80BCF1004F08BF5FEA01
:1003D000500C50F1000041EB045141EA050130BDE1
:1003E0005FEA4C0C404141EB0101013C28BFB1F5F3
:1003F000801FE9D291F0000F04BF01460020B1FA3E
:1004000081F308BF2033A3F10B03B3F120020CDA10
:100410000C3208DD02F1140CC2F10C0201FA0CF0EE
:1004200021FA02F10CE002F11402D8BFC2F1200C53
:1004300001FA02F120FA0CFCDCBF41EA0C01904009
:10044000E41AA2BF01EB0451294330BD6FEA040452
:100450001F3C1CDA0C340EDC04F11404C4F120023D
:1004600020FA04F001FA02F340EA030021FA04F34F
:1004700045EA030130BDC4F10C04C4F1200220FAA6
:1004800002F001FA04F340EA0300294630BD21FAE4
:1004900004F0294630BD94F0000F83F4801306BFAA
:1004A00081F480110134013D4EE77FEA645C18BF9E
:1004B0007FEA655C29D094EA050F08BF90EA020F35
:1004C00005D054EA000C04BF1946104630BD91EA2D
:1004D000030F1EBF0021002030BD5FEA545C05D130
:1004E0004000494128BF41F0004130BD14F580046F
:1004F0003CBF01F5801130BD01F0004545F0FE41E3
:1005000041F470014FF0000030BD7FEA645C1ABF17
:10051000194610467FEA655C1CBF0B46024650EA4E
:10052000013406BF52EA033591EA030F41F400217A
:1005300030BD00BF90F0000F04BF0021704730B500
:100540004FF4806404F132044FF000054FF00001D5
:1005500050E700BF90F0000F04BF0021704730B596
:100560004FF4806404F1320410F0004548BF40426B
:100570004FF000013EE700BF42004FEAE2014FEAC0
:1005800031014FEA02701FBF12F07F4393F07F4F9B
:1005900081F06051704732F07F4208BF704793F09E
:1005A0007F4F04BF41F40021704730B54FF46074B1
:1005B00001F0004521F000411CE700BF50EA0102B4
:1005C00008BF704730B54FF000050AE050EA01025D
:1005D00008BF704730B511F0004502D5404261EBCD
:1005E00041014FF4806404F132045FEA915C3FF40E
:1005F000D8AE4FF003025FEADC0C18BF03325FEAAB
:10060000DC0C18BF033202EBDC02C2F1200300FA5B
:1006100003FC20FA02F001FA03FE40EA0E0021FA80
:1006200002F11444BDE600BF70B54FF0FF0C4CF46E
:10063000E06C1CEA11541DBF1CEA135594EA0C0F20
:1006400095EA0C0F00F0DEF82C4481EA030621EA5B
:100650004C5123EA4C5350EA013518BF52EA033596
:1006600041F4801143F4801338D0A0FB02CE4FF048
:100670000005E1FB02E506F00042E0FB03E54FF078
:100680000006E1FB03569CF0000F18BF4EF0010E70
:10069000A4F1FF04B6F5007F64F5407404D25FEA6C
:1006A0004E0E6D4146EB060642EAC62141EA55511F
:1006B0004FEAC52040EA5E504FEACE2EB4F1FD0C61
:1006C00088BFBCF5E06F1ED8BEF1004F08BF5FEADF
:1006D000500E50F1000041EB045170BD06F0004691
:1006E00046EA010140EA020081EA0301B4EB5C043E
:1006F000C2BFD4EB0C0541EA045170BD41F4801136
:100700004FF0000E013C00F3AB8014F1360FDEBF5A
:10071000002001F0004170BDC4F10004203C35DA36
:100720000C341BDC04F11404C4F1200500FA05F3B9
:1007300020FA04F001FA05F240EA020001F000425A
:1007400021F0004110EBD37021FA04F642EB0601D0
:100750005EEA430E08BF20EAD37070BDC4F10C04FA
:10076000C4F1200500FA04F320FA05F001FA04F2BE
:1007700040EA020001F0004110EBD37041F10001AA
:100780005EEA430E08BF20EAD37070BDC4F12005B5
:1007900000FA05F24EEA020E20FA04F301FA05F21D
:1007A00043EA020321FA04F001F0004121FA04F2C5
:1007B00020EA020000EBD3705EEA430E08BF20EA95
:1007C000D37070BD94F0000F0FD101F000464000CF
:1007D00041EB010111F4801F08BF013CF7D041EA51
:1007E000060195F0000F18BF704703F00046520055
:1007F00043EB030313F4801F08BF013DF7D043EA26
:100800000603704794EA0C0F0CEA135518BF95EADB
:100810000C0F0CD050EA410618BF52EA4306D1D162
:1008200081EA030101F000414FF0000070BD50EA81
:10083000410606BF1046194652EA430619D094EA0B
:100840000C0F02D150EA013613D195EA0C0F05D1F5
:1008500052EA03361CBF104619460AD181EA030149
:1008600001F0004141F0FE4141F470014FF0000001
:1008700070BD41F0FE4141F4780170BD70B54FF09C
:10088000FF0C4CF4E06C1CEA11541DBF1CEA13551C
:1008900094EA0C0F95EA0C0F00F0A7F8A4EB0504FE
:1008A00081EA030E52EA03354FEA013100F08880F5
:1008B0004FEA03334FF0805545EA131343EA1263BE
:1008C0004FEA022245EA111545EA10654FEA002673
:1008D0000EF000419D4208BF964244F1FD0404F52C
:1008E000407402D25B084FEA3202B61A65EB030588
:1008F0005B084FEA32024FF480104FF4002CB6EB45
:10090000020E75EB030E22BFB61A754640EA0C00C4
:100910005B084FEA3202B6EB020E75EB030E22BF04
:10092000B61A754640EA5C005B084FEA3202B6EB45
:10093000020E75EB030E22BFB61A754640EA9C0004
:100940005B084FEA3202B6EB020E75EB030E22BFD4
:10095000B61A754640EADC0055EA060E18D04FEA92
:10096000051545EA16754FEA06164FEAC30343EA32
:1009700052734FEAC2025FEA1C1CC0D111F4801FFF
:100980000BD141EA00014FF000004FF0004CB6E7F8
:1009900011F4801F04BF01430020B4F1FD0C88BF97
:1009A000BCF5E06F3FF6AFAEB5EB030C04BFB6EBA2
:1009B000020C5FEA500C50F1000041EB045170BD95
:1009C0000EF0004E4EEA113114EB5C04C2BFD4EBC2
:1009D0000C0541EA045170BD41F480114FF0000E46
:1009E000013C90E645EA060E8DE60CEA135594EAC2
:1009F0000C0F08BF95EA0C0F3FF43BAF94EA0C0FC5
:100A00000AD150EA01347FF434AF95EA0C0F7FF439
:100A100025AF104619462CE795EA0C0F06D152EA8D
:100A200003353FF4FDAE1046194622E750EA410671
:100A300018BF52EA43067FF4C5AE50EA41047FF482
:100A40000DAF52EA43057FF4EBAE12E74FF0FF3CE7
:100A500006E000BF4FF0010C02E000BF4FF0010CB8
:100A60004DF804CD4FEA410C7FEA6C5C4FEA430C31
:100A700018BF7FEA6C5C1BD001B050EA410C0CBF80
:100A800052EA430C91EA030F02BF90EA020F0020E2
:100A9000704710F1000F91EA030F58BF994208BF49
:100AA00090422CBFD8176FEAE37040F00100704706
:100AB0004FEA410C7FEA6C5C02D150EA013C07D15D
:100AC0004FEA430C7FEA6C5CD6D152EA033CD3D0A8
:100AD0005DF8040B704700BF8446104662468C46A2
:100AE0001946634600E000BF01B5FFF7B7FF0028D5
:100AF00048BF10F1000F01BD4DF808EDFFF7F4FFFE
:100B00000CBF012000205DF808FB00BF4DF808ED88
:100B1000FFF7EAFF34BF012000205DF808FB00BFAB
:100B20004DF808EDFFF7E0FF94BF012000205DF8CD
:100B300008FB00BF4DF808EDFFF7CEFF94BF012082
:100B400000205DF808FB00BF4DF808EDFFF7C4FF7B
:100B500034BF012000205DF808FB00BF4A0011D21D
:100B600012F5001211D20DD56FF47873B3EB625207
:100B70000ED44FEAC12343F0004343EA505323FA13
:100B800002F070474FF00000704750EA013002D188
:100B90004FF0FF3070474FF0000070474FEA4102BE
:100BA000B2F1E04324BFB3F5001CDCF1FE5C0DD9CB
:100BB00001F0004C4FEAC0024CEA5070B2F1004F15
:100BC00040EB830008BF20F00100704711F0804F18
:100BD00021D113F13872BCBF01F00040704741F4DD
:100BE00080114FEA5252C2F11802C2F1200C10FAE1
:100BF0000CF320FA02F018BF40F001004FEAC123C5
:100C00004FEAD32303FA0CFC40EA0C0023FA02F368
:100C10004FEA4303CCE77FEA625307D150EA01333E
:100C20001EBF4FF0FE4040F44000704701F000400E
:100C300040F0FE4040F40000704700BF7BB972B93D
:100C40000029BEBF00204FF0004106E008BF002889
:100C50001CBF6FF000414FF0FF3001F09DB9ADF1C6
:100C6000080C6DE904CE002909DB002B1ADB00F02B
:100C70004DF8DDF804E0DDE9022304B0704740429E
:100C800061EB4101002B1BDB00F040F8DDF804E0D4
:100C9000DDE9022304B0404261EB4101524263EBC3
:100CA00043037047524263EB430300F02FF8DDF833
:100CB00004E0DDE9022304B0404261EB41017047EA
:100CC000524263EB430300F021F8DDF804E0DDE974
:100CD000022304B0524263EB4303704753B94AB94D
:100CE000002908BF00281CBF4FF0FF314FF0FF3034
:100CF00001F052B9ADF1080C6DE904CE00F006F830
:100D0000DDF804E0DDE9022304B070472DE9F04787
:100D1000089D8E4604468846002B4AD18A421746D3
:100D200062D9B2FA82F64EB1C6F1200301FA06F892
:100D300020FA03F3B74043EA0808B4404FEA174EDD
:100D40001FFA87FCB8FBFEF1230C0EFB118843EA67
:100D5000084301FB0CF29A4209D9FB1801F1FF305C
:100D600080F0EA809A4240F2E78002393B449A1AC6
:100D7000A3B2B2FBFEF00EFB102243EA024300FBDB
:100D80000CFC9C4509D9FB1800F1FF3280F0D6809D
:100D90009C4540F2D3803B44023840EA0140A3EB3B
:100DA0000C0300211DB1F3400022C5E90032BDE86B
:100DB000F0878B4205D90DB1C5E900010021084635
:100DC000F5E7B3FA83F1002946D1734502D3824295
:100DD00000F20581841A6EEB030201209046002D7B
:100DE000E5D0C5E90048E2E7002A00F09080B2FAB9
:100DF00082F6002E40F0A4808A1A030C4FEA174EA8
:100E000080B2BCB20121B2FBFEFC0EFB1C2243EA05
:100E1000024304FB0CF29A4207D9FB180CF1FF388D
:100E200002D29A4200F2E080C4469B1AB3FBFEF263
:100E30000EFB123340EA034302FB04F49C4207D941
:100E4000FB1802F1FF3002D29C4200F2CA80024637
:100E50001B1B42EA0C40A5E7C1F120068B4022FA99
:100E600006F71F430EFA01F420FA06F32EFA06FEE7
:100E70004FEA1749234300FA01F81FFA87FCBEFB2B
:100E8000F9F01C0C09FB10EE44EA0E4400FB0CFECA
:100E9000A64502FA01F209D93C1900F1FF3A80F0A7
:100EA0009C80A64540F2998002383C44A4EB0E0495
:100EB0001FFA83FEB4FBF9F309FB13444EEA044422
:100EC00003FB0CFCA44508D93C1903F1FF3E80F05C
:100ED0008280A4457FD9023B3C4443EA0040A4EB16
:100EE0000C04A0FB02EC64457346E14662D35FD07C
:100EF0005DB1B8EB030264EB090404FA06F622FACA
:100F000001F31E43CC40C5E9006400214FE7B1FB6B
:100F1000F2FC010C41EA0E4180B240EA01423B463C
:100F200038463C46B846BE462026B1FBF7F1A2EB58
:100F3000080241EA0C4166E7014618E710462CE733
:100F4000C6F120022EFA02F3B740B14020FA02F2B5
:100F50004FEA174E0A43B3FBFEF8BCB20EFB183340
:100F6000110C41EA034108FB04F9B04089454FEAFE
:100F7000104380B23ED9791808F1FF3C01D289456F
:100F80001FD8A1EB0901B1FBFEF909FB04F80EFB28
:100F9000191192B242EA0142424529D2BA1809F126
:100FA000FF31C4D24245C2D2A9F102013A44BEE7A0
:100FB000F0459DD2BEEB02036CEB070C0138E14615
:100FC00096E7A7EB09094944A8F1020CB1FBFEF929
:100FD00009FB04F8DBE773467FE7504666E70846FF
:100FE000FDE63B44023A33E7ACF1020C3B441CE71C
:100FF00049469CE7A1EB0901C446B1FBFEF909FB98
:1010000004F8C4E703685A004CBF43F0004323F0E0
:1010100000431844704700BF2DE9F04759B301F170
:10102000FF380546164647464FF0000A0AEB07010F
:1010300001EBD171491005EBC1094846FFF7E2FF0A
:1010400088454FEAC104034610D004F10800B342BA
:10105000284407D8FFF7D6FF0138B04208D201F183
:10106000010AE3E78A4506D04F1EDFE7B042F9D810
:101070004846BDE8F0874FF000094846BDE8F087D4
:10108000012809D0022805D0044B00280CBF1846BF
:1010900000207047024870470248704765170008F3
:1010A0006D1700086917000830B5224B83B004465D
:1010B0008D1E43B301A92846AFF30080F0B101991A
:1010C0002A46FFF7A9FF0146C0B1FFF79BFF4B6817
:1010D000A064012B2BD0002B01F1040025DBFFF7CE
:1010E00091FF002323650368E064002B12DBFFF708
:1010F00089FF03460020236103B030BD002309208F
:10110000236103B030BD0C4B0C49C91AC9101846F5
:101110000191D5E7C3F30360FFF7B2FF031E0CBFD5
:1011200009200020236103B030BD0123DAE700234A
:101130000520E0E700000000349001084C91010810
:101140000368DA0710B5044606D49B0700F1500087
:1011500009D500F08FFC2368590709D51A070ED569
:10116000DB0613D510BD00F07DFC23685907F5D4CC
:1011700004F1D80000F086FC23681A07F0D404F5C7
:10118000AC7000F087FC2368DB06EBD404F5EC7050
:10119000BDE8104000F0C2BC0346006800B118442E
:1011A000704700BF09207047704700BF70B5044604
:1011B0000E46316C2046FFF777FF054688B9326C42
:1011C0006261236932462146012098470828F0D001
:1011D000072806D12846316CFFF7E6FF301D00F0E6
:1011E00035FC16F087FD00BF2DE9F04701F1040C36
:1011F000C768D0F8188006469146BCE80F00ADF5E8
:10120000767D03AC0FC4BCE80F000FC4BCE80F0030
:101210000FC49CE80F0002AD4FF0000E84E80F00F1
:10122000C5F800E021E02B6C73614FF4F47229469D
:101230007CA815F06CFF33697CAA3146504698476C
:101240008A9BAB644946CDE900588246334601206B
:101250003246B847814630BB4FF4F4727CA9284629
:1012600015F055FFBAF1080F1AD1296C3046FFF777
:101270001BFF09F1090904465FFA89FA0028D2D058
:10128000AB6BAB643246CDE9005833464AF01001EF
:101290000120B84738B920460DF5767DBDE8F087C6
:1012A000BAF1070F05D0092420460DF5767DBDE87B
:1012B000F0874846296CFFF777FF03A800F0C6FBCC
:1012C000806C7047F0B5CB6BFBB001F1040C0B6484
:1012D0000E460546BCE80F0001AC0FC4BCE80F0089
:1012E0000FC4BCE80F000FC49CE80F004FF0FF379D
:1012F00084E80F00009706E02B696A462946984764
:101300000828044608D110992846FFF7CDFE00288A
:10131000F2D009207BB0F0BD6846FFF711FF062C24
:10132000F7D131462846FFF741FF00BFC160D96BB6
:10133000826119640022194656E700BF70B5C6687D
:1013400043690B64AEB903690A4604460D4601467B
:1013500002209847072805D008280FD129462046A3
:10136000FFF724FF3046296CFFF71EFF281D00F011
:101370006DFB0122FFF738FF16F0BCFC16F0BAFC3B
:10138000C2681AB1CA6B0A6400222DE79AE700BF4F
:10139000704700BF836801460BB1012018477047B2
:1013A000052915D8DFE801F00A031403030501201D
:1013B0007047009A436C13600020704743B90F2AAE
:1013C00006D800EB820200205368009A1360704731
:1013D0000220704700B585B00A46002303A900919A
:1013E0001946FFF7DDFF039805B05DF804FB00BF69
:1013F000052915D8DFE801F00A03140303050120CD
:101400007047009B1B6843640020704743B90F2A54
:1014100006D8009B00EB82021B68536000207047D7
:101420000220704710B584B0002303AC03920094EF
:101430000A461946FFF7DCFF04B010BD70B5D36B48
:10144000ADF5107D02F1040C136405460C46BCE8B2
:101450000F000DF15C0EAEE80F00BCE80F00AEE827
:101460000F00BCE80F00AEE80F009CE80F004FF043
:10147000FF368EE80F00169610E0FFF7D3FF2146E7
:1014800016A8A847034616AA0820694683B9049BF4
:101490009847052806460CD0092809D026996846A1
:1014A000FFF702FE03460C216A4616A8002BE4D083
:1014B000092616A8FFF744FE30460DF5107D70BDD5
:1014C0002DE9F04F1646CA6C89B00D4652F8041B40
:1014D000069200F0030C002B79D00C0C8DF81D4007
:1014E0000904E4B2059102EB840202218DF81C107C
:1014F000296DBCF1020F08BFAA6B11F0010809D0D9
:1015000005A9304600F0A4FB002856D1082009B0F8
:10151000BDE8F08F1768002FF2D000F00801CDE988
:101520000118E3469A46BAF1020F4CD01788548846
:1015300002F10409AA6C24F001030F21304603EBE9
:101540000208FFF747FF80453BD827F0010202EB76
:101550000803834294BF00230123640004F00204C3
:1015600007F001072743012F4ED0022F35D027BBAC
:10157000BBF1000F02D0002B40F0D38009F1040230
:101580001768002FCFD105A93046DDF8088000F09C
:101590005FFB90B9B8F1000FB8D00F213046FFF7CC
:1015A00019FF0E2102463046FFF73CFF6C4A0F211F
:1015B0003046FFF737FF072000E0092009B0BDE8FB
:1015C000F08F0023C9E7546802F10809B2E7090265
:1015D00005918DF81D30032188E7D9F8004024F0EB
:1015E0000048BBF1000F47D12BB1019B002B5CD011
:1015F000B8F1000F59D0002C01DA09F1040908F103
:10160000010209EB8202BBE7BBF1000F1CD1C3B1A1
:10161000D9F80430D9F80020991C4FEAD272CCD006
:1016200005F158040133049400F08E8009F10400A0
:10163000FFF7B2FD04AB01462846AFF30080002857
:1016400059D109F108029BE70D213046FFF7C2FE90
:101650002C6A8442F5D1AB6A9945F2D14846FFF72E
:10166000D1FC0F2102463046FFF7DCFE2A4600215E
:101670003046FFF7D7FE9EE70D213046FFF7AAFE62
:101680002F6A8742B7D1AB6A9945B4D100240423AD
:10169000C5E90B434B44C5F828806B63D9F800308B
:1016A000A34258DB01230293A9E705F15803CDF8C3
:1016B0000CB009F10407B34600241E460BE038467F
:1016C0000496FFF769FD0022014604AB2846AFF3FC
:1016D00000800437F8B9444504F10104EFD10D212D
:1016E0005846FFF777FE049BC5F828900246C5E9E7
:1016F0000823062062E704460D213046FFF76AFE04
:10170000049E2862022C04BFEE6205F12C06C5E996
:101710000969062052E75E46D9F80040DDF80CB0B2
:1017200069E74846FFF76EFC09F104030446AB6322
:101730002846AFF3008000283FF43FAF22460F2138
:101740003046FFF76FFE36E730460D21FFF742FEC9
:1017500026462862DBE708F1010209EB82007EE7FA
:10176000000000000023ABE60123A9E60223A7E660
:101770002DE9F0410646C4B01446052900F2E88080
:10178000DFE811F012002D00E60066008B00060075
:10179000836B002C40F0DC8053F8042B426483639D
:1017A000002044B0BDE8F081002B40F0D180856B73
:1017B0001FFA84FC012006F1040E00FA03F111EA7D
:1017C0000C0F2A4604D052F8041B4EF8231015467D
:1017D0000133102BF1D1A704E2D4B563E0E7012B6C
:1017E0004FEA1447A4B27CD0052B40F0B18007EB40
:1017F0000408B8F1200F00F2AB800F2F40F2AA804E
:10180000002CCDD00268550700F1FF80019302AD96
:10181000284600F03BF96400A7F11000B26B019B71
:10182000611E05EBC0000131043802EB810152F862
:10183000044B40F8044F8A42F9D1012B00F0CD80CF
:101840000F2FB26340F2E980284600F01BF9A7E7AA
:10185000032B7DD1A7B207EB1443102B4FEA14449E
:1018600076D80368190700F1A48022AD284600F05D
:1018700033F97A00B06B05EBC404531E42B1011B6F
:10188000625844F8042B013B5A1CF9D100EBC70005
:10189000B063284600F0FEF882E7002B58D1102CE8
:1018A00056D80368D8067CD422AD284600F040F90B
:1018B000B76B294600234FF0010C0CFA03F22242C9
:1018C000384603F1010303D050F8042B0A600746A1
:1018D000042B01F10401F0D1B763284600F01EF992
:1018E0005EE73A19102A33D8102F31D00268D10799
:1018F00008D5304622F0030240F8502B019300F047
:10190000B5F8019B019322AD284600F0AFF8B16B0A
:10191000019B002C62D06200013A05EBC7004FF03A
:1019200000080132043801EB820251F8044B40F800
:10193000044F9142F9D1B8F1000F42D1012B4DD0A3
:101940000F2FB1633FF62CAF284600F093F827E73E
:10195000022026E70268B8F1100F02F0010143D916
:1019600051B122F0010242F0020240F8502B0193E3
:1019700000F084F83268019B0193500751D422ADE6
:10198000284600F07BF802A800F080F8C7F11002AA
:101990005200B16B019BA8F11008013A05EBC7009A
:1019A000BFE723F01003336006F5EC7000F0C0F8D9
:1019B0007AE723F00803036000F5AC7000F08CF8C0
:1019C00053E7102F384638BF10204FEA480110382F
:1019D00002AD013905EBC00025E722AD0431B1634A
:1019E000284600F03FF8DBE619BB22AD28460193FC
:1019F00000F044F8B16B002CA6D06200019B013AC4
:101A000005EBC7004FF000088BE722F0040240F816
:101A1000D82B019300F03AF8F9E622A800F02AF852
:101A200012E7304622F0040240F8D82B00F02EF8DE
:101A3000A5E7304622F0010242F0020240F8502BA6
:101A4000019300F01BF8019BCFE700BF00F13401C8
:101A500091E838009C46A6464CF8045D90E8FF0FDC
:101A6000E54600BD90EC210B704700BF80EC210BD8
:101A7000704700BF90EC200B704700BF80EC200B3C
:101A8000704700BFD0EC200B704700BFC0EC200BAC
:101A9000704700BFF0EC0201F0EC0211F0EC022103
:101AA000F0EC0231F0EC0241F0EC0251F0EC02619A
:101AB000F0EC0271F0EC0281F0EC0291F0EC02A18A
:101AC000F0EC02B1F0EC02C1F0EC02D1F0EC02E17A
:101AD000F0EC02F1704700BFE0EC0201E0EC021113
:101AE000E0EC0221E0EC0231E0EC0241E0EC0251DA
:101AF000E0EC0261E0EC0271E0EC0281E0EC0291CA
:101B0000E0EC02A1E0EC02B1E0EC02C1E0EC02D1B9
:101B1000E0EC02E1E0EC02F1704700BFB0FC0181B3
:101B2000B0FC0191B0FC01A1B0FC01B1704700BF55
:101B3000A0FC0181A0FC0191A0FC01A1A0FC01B1CD
:101B4000704700BFEC4600B52DE900502DE9FF1F9E
:101B50004FF000032DE90C0001A9FFF7B3FBDDF8FE
:101B600040E012B0704700BFEC4600B52DE90050D0
:101B70002DE9FF1F4FF000032DE90C0001A9FFF72D
:101B8000DDFBDDF840E012B0704700BFEC4600B569
:101B90002DE900502DE9FF1F4FF000032DE90C0047
:101BA00001A9FFF7EDFBDDF840E012B0704700BF80
:101BB000EC4600B52DE900502DE9FF1F4FF0000362
:101BC0002DE90C0001ABFFF7B1FBDDF840E012B0EE
:101BD000704700BFEC4600B52DE900502DE9FF1F0E
:101BE0004FF000032DE90C0001AAFFF727FCDDF8F8
:101BF00040E012B0704700BF027A03467AB9427AD9
:101C0000A2B14168013A10B44272086803220C1D67
:101C10001A7202025C60000E10BC1A607047006805
:101C2000013A1A7202021A60000E7047B020704723
:101C300000B585B003AA0023009219460C22FFF7D5
:101C4000AFFB039805B05DF804FB00BFF0E700BFF1
:101C50002DE9F043064685B00D464FF000082846B2
:101C6000FFF7CAFFB028044600F01C8107065BD5C9
:101C700000F0F003A02B1AD030D8802B00F0828027
:101C8000902B27D100F00D030D2B23D002AF0023A2
:101C900000F00F02194600973046FFF781FB002342
:101CA00000970D2219463046FFF7A2FBD7E7C34342
:101CB00003F007034FF47F621A41010702F47F62C9
:101CC00001D542F48042002319463046FFF750FD0B
:101CD0000028C4D0092005B0BDE8F083B02B68D03F
:101CE000C02B3DD1C62800F0CA80C72800F0DF8095
:101CF00000F0F803C02B00F0EC80C82800F0F7805B
:101D0000C928E7D12846FFF777FF020300F00F004C
:101D100002F4702201300243012105233046FFF70F
:101D200027FD00289BD0D5E78300DBB21F1D0DF1F6
:101D3000080900231946CDF800900D223046FFF720
:101D40002FFB029BCDF8009060064CBFDF1BFF18F5
:101D500000230D22194630460297FFF749FB7EE724
:101D600000F0F803D02BB5D100F0070201320523B3
:101D700042F4002201213046FFF7FAFC00283FF42C
:101D80006EAFA7E72846FFF737FF24022043B0F5E0
:101D9000004F9FD004010023A2B219463046FFF73E
:101DA000E7FC002896D114F4004F18BF4FF001084B
:101DB00055E7A0F1B103042B00F2B580DFE803F092
:101DC0005529160C030003AA0023009219460D2280
:101DD0003046FFF7E5FA42E700231A460521304670
:101DE000FFF7C6FC00283FF43AAF73E72846FFF739
:101DF00003FF020300F00F00013002F47022012300
:101E0000024319463046FFF7B3FC00283FF427AFE2
:101E100060E700230DF108090D221946CDF8009066
:101E20003046FFF7BDFA2846FFF7E6FE0206029CA1
:101E30004FF002070BD500F07F00B840044428465D
:101E40000294FFF7D9FE030607F10707F3D4B84061
:101E5000002304F501740444CDF800900D221946C6
:101E600030460294FFF7C4FAF9E62846FFF7C4FEAD
:101E7000431EDBB20E2B02467FF625AF2AE728462B
:101E8000FFF7BAFE020300F00F00013002F47022E7
:101E90000323024319463046FFF76AFC00283FF44B
:101EA000DEAE17E7B8F1000F2DD0002013E728466B
:101EB000FFF7A2FE431EDBB20E2B02463FF60AAF2F
:101EC000002304213046FFF753FC00283FF4C7AE3F
:101ED00000E700F00F020132032342F420221946EA
:101EE0003046FFF745FC00283FF4B9AEF2E628463D
:101EF000FFF782FE00F0F00200F00F031032013312
:101F000043EA023208E702AC4346414600940E22FF
:101F10003046FFF745FA0F220094434641463046CB
:101F2000FFF766FAC1E700F0FC03B42B3FF4D2AE32
:101F300000F007020132012342F400221946304624
:101F4000FFF716FC00283FF48AAEC3E610B5C26C5A
:101F5000536884B04FF0030C08321C0208461B0E75
:101F600001A9019402928DF80CC08DF80D30FFF795
:101F70006FFE04B010BD00BF08B5FFF767FE806CB0
:101F800008BD00BF08B5FFF761FEC06CC37900EB68
:101F90008300083008BD00BF704700BF72B6FEE77F
:101FA00000B595B03022002108A814F0D5FF002319
:101FB000039304930593069307930193204A116CAE
:101FC00041F080511164126C02F080520192019A2A
:101FD00002931C4A136823F4404343F40043136004
:101FE000136803F440430293029B012308934FF4C8
:101FF000A023099302230E934FF480030F93082329
:1020000010934FF4A873119304231293139308A809
:1020100001F054F980B90F230393022104910023A6
:1020200005934FF480520692079303A801F0B0FB8A
:1020300020B915B05DF804FBFFF7B0FFFFF7AEFF66
:10204000003802400070004008B502F057F8FFF772
:10205000A7FF00F019F800F085F800F0A5F804F0EB
:1020600013FC04F07DFC04F029FE04F0CFFC04F026
:1020700083FE04F001FD04F017FD04F013F806F0F0
:10208000ABF804F021F8FEE7F0B58BB0002405941E
:10209000069407940894099401942F4B1A6B42F00C
:1020A00004021A631A6B02F004020192019A02946C
:1020B0001A6B42F080021A631A6B02F080020292DD
:1020C000029A03941A6B42F001021A631A6B02F02F
:1020D00001020392039A04941A6B42F002021A63FB
:1020E0001B6B03F002030493049B1C4F2246202128
:1020F000384601F025FD1A4D22464FF4407128461E
:1021000001F01EFD4FF4005305934FF4881306931E
:10211000079405A9284601F02FFC202305930126EA
:1021200006960794089405A9384601F025FC4FF45B
:102130004073059306960794089405A9284601F074
:102140001BFC22460521282001F0C4FF282001F0B5
:10215000D1FF0BB0F0BD00BF0038024000000240CC
:102160000008024010B582B0002401940D4B1A6B98
:1021700042F400121A631B6B03F400130193019BDA
:1021800022460521102001F0A5FF102001F0B2FF2A
:1021900022460521112001F09DFF112001F0AAFF28
:1021A00002B010BD0038024008B50A480A4B03606F
:1021B0004FF4E133436000238360C36003610C226A
:1021C00042618361C36102F0CFF800B908BDFFF737
:1021D000E5FEFBE7640800200044004030B589B00C
:1021E0000023039304930593069307930268364BE9
:1021F0009A4201D009B030BD04460025019503F58F
:10220000FA331A6C42F400321A641A6C02F4003287
:102210000192019A02951A6B42F001021A631B6B3C
:1022200003F001030293029B0C2303930223049304
:10223000032306930723079303A9244801F09CFB7B
:102240002348244B03604FF0006343608560C56002
:102250004FF480630361456185614FF48073C3610E
:102260004FF440330362456201F0FAFC28BB184B7F
:10227000E3639C631848194B03604FF000634360AD
:10228000402383600023C3604FF480620261436196
:102290008361C3614FF440320262436201F0E0FCAB
:1022A00070B90D4BA3639C6300220521262001F029
:1022B00011FF262001F01EFF9CE7FFF76FFED6E717
:1022C000FFF76CFEEDE700BF004400400000024055
:1022D0000408002088600240A4070020A06002409B
:1022E000FEE7FEE7FEE7FEE7FEE7704708B50248B7
:1022F00001F0AEFD08BD00BF0408002008B502488B
:1023000001F0A6FD08BD00BFA407002008B50348E2
:1023100000F0CCFB024800F0C9FB08BDAC0800206F
:102320008C32002008B5024800F0C0FB08BD00BF99
:102330004432002008B5024802F0B4F908BD00BFDD
:102340006408002008B54FF4005001F0FFFB08BD01
:1023500000B583B0002200920D4B596C41F48041CE
:102360005964596C01F48041009100990192196CF3
:1023700041F0805119641B6C03F080530193019B61
:102380000F216FF0010001F0A5FE03B05DF804FB22
:102390000038024030B589B00546002401941D4B39
:1023A0005A6C42F001025A645B6C03F00103019322
:1023B000019B02A903A801F0C1FA01F0AFFA164A85
:1023C000A2FB00239B0C013B1448154A026040F21B
:1023D000E732C260436004618460846100F068FC9D
:1023E000044610B1204609B030BD0C4800F01EFB79
:1023F00004460028F6D1192001F07CFE0F2D01D9EA
:102400000124EFE700222946192001F063FE054B65
:102410001D60E7E70038024083DE1B43AC08002064
:10242000000001400400002000B585B00B0A8DF8C3
:102430000C308DF80D108DF80E200A230093032325
:1024400003AA4100024805F0ADF905B05DF804FBB0
:10245000F031002070B584B00B0A8DF80C308DF887
:102460000D1000238DF80B3044000A4D1E260096F7
:10247000022303AA2146284605F094F90096012379
:102480000DF10B022146284605F048FA9DF80B0095
:1024900004B070BDF0310020302303704FF400739E
:1024A00043800A4A4260002303720949C160094916
:1024B0000161312101754FF48071C182826103771E
:1024C000054B0362054B4362704700BF00080240A2
:1024D000DA74783FBC779C4184411B3F518DEA41BF
:1024E00010B504460021FFF7B5FFB42801D0012044
:1024F00010BD012240F207212046FFF795FF01227F
:102500004FF402712046FFF78FFF002296212046EC
:10251000FFF78AFFFD2297212046FFF785FF002263
:10252000E3212046FFF780FF0422E4212046FFF745
:102530007BFF0222E5212046FFF776FF0122E621FC
:102540002046FFF771FF0322E7212046FFF76CFFCB
:102550000222F5212046FFF767FF0522D9212046F8
:10256000FFF762FFCE22DB212046FFF75DFF03224B
:10257000DC212046FFF758FFF822DD212046FFF737
:1025800053FF00229F212046FFF74EFF3C22A3214C
:102590002046FFF749FF0022B7212046FFF744FFFE
:1025A0003C22BB212046FFF73FFF0922B2212046F3
:1025B000FFF73AFF0922CA212046FFF735FF012223
:1025C0004FF4CC712046FFF72FFF17224FF4D8713C
:1025D0002046FFF729FF002240F2AD112046FFF709
:1025E00023FF0522FF212046FFF71EFF05224FF49F
:1025F00080712046FFF718FF052240F2991120460E
:10260000FFF712FF1B224FF4D3712046FFF70CFF98
:102610003E224FF4D6712046FFF706FF1F2240F2FC
:10262000A7112046FFF700FF002230212046FFF7C8
:10263000FBFE102211212046FFF7F6FE02224FF486
:1026400095712046FFF7F0FE03223A212046FFF75E
:10265000EBFEFF2231212046FFF7E6FE2422142163
:102660002046FFF7E1FE002042E7F8B506460024C9
:1026700001E00134E4B2012C0BD804EB840306EB37
:1026800083031A7A002AF4D15988586801F058FA5D
:10269000EFE7002401E00134E4B2012C20D804EB80
:1026A00084039F0006EB83052B7A002BF3D10122D4
:1026B0006988686801F044FA052001F04BFDF25D7D
:1026C00040F212212920FFF7AFFE052001F042FD64
:1026D000F05DFFF705FF0028DDD101232B72DAE75B
:1026E000F8BD38B50546002400E00134012C0DDCAE
:1026F00004EB8403980005EB83031B7A002BF4D0D2
:1027000001221821285CFFF78FFEEEE738BD2DE986
:10271000F84306460F460024A0460FE04D2116F868
:102720000900FFF797FE10F0010F15D100222A7261
:102730006A726988686801F003FA0134012C2DDCA3
:1027400004EB84054FEA850906EB85052B7A002BFF
:10275000E4D14FF00108F0E7622116F80900FFF715
:1027600079FE07EE900A95ED037AF8EEE77A67EEC8
:10277000877A95ED047A77EE877AFCEEE77A17EEA2
:10278000903A9BB2FF2B02D9FF236B72D5E7042B43
:1027900002D800236B72D0E76B72CEE7B8F1000F5E
:1027A00002D03B7801333B70BDE8F88370B5044636
:1027B0000E4601F0C9FC0546012218212046FFF70C
:1027C00033FE4D212046FFF745FE10F0010F06D1E4
:1027D00001F0BAFC431B502BF3D901200AE062211F
:1027E0002046FFF737FE3070002216212046FFF703
:1027F0001BFE002070BDF8B507460E4600251AE006
:1028000004F10901B85CFFF7D1FF28BB94ED037A0E
:10281000637A07EE903AF8EEE77A67EE877A94EDFE
:10282000047A77EE877AFDEEE77A17EE903AFF2B7F
:102830000FDC63720135012D15DC05EB8504A20068
:1028400007EB8404237A002BDAD133780133337019
:10285000F0E7FF236372EDE700222272618860686F
:1028600001F06EF9E6E7F8BD30B4026A036A23F0BE
:10287000010303624568836923F073030C681C43FA
:1028800022F002028B6813430B4A904206D0456047
:1028900084614A684263036230BC704723F00803D6
:1028A000CA681A4322F0040325F440754A692A4392
:1028B0008D691543EBE700BF0000014030B4036AA7
:1028C000026A22F4807202624468C26922F07302D2
:1028D0000D68154323F400738A6843EA02230D4A06
:1028E000904206D04460C5614A68C263036230BC4E
:1028F000704723F40063CA6843EA022323F4806329
:1029000024F440544A6944EA02148A6944EA0214ED
:10291000E8E700BF0000014030B4036A026A22F415
:10292000805202624468C26922F4E6420D6842EABB
:10293000052223F400538D6843EA0533074DA8426E
:1029400006D04460C2614A680264036230BC7047CA
:1029500024F480444D6944EA8514F2E70000014004
:1029600010B4036A046A24F001040462846924F048
:10297000F00C4CEA021223F00A030B43826103625B
:102980005DF8044B704710B4036A046A24F0100425
:102990000462846924F4704C4CEA023223F0A003F0
:1029A00043EA0113826103625DF8044B7047836858
:1029B00023F070030B4343F007038360704700006C
:1029C00090F83D30DBB2012B2AD1022380F83D3054
:1029D0000368154A934218D0B3F1804F15D0A2F581
:1029E0007C42934211D002F5806293420DD002F5F1
:1029F0008062934209D002F59A32934205D01A6858
:102A000042F001021A60002070479A6802F0070243
:102A1000062A07D01A6842F001021A6000207047A7
:102A200001207047002070470000014090F83D30C1
:102A3000DBB2012B2FD1022380F83D300268D3682E
:102A400043F00103D3600368154A934218D0B3F1F1
:102A5000804F15D0A2F57C42934211D002F58062DE
:102A600093420DD002F58062934209D002F59A326A
:102A7000934205D01A6842F001021A6000207047A4
:102A80009A6802F00702062A07D01A6842F001028B
:102A90001A6000207047012070470020704700BF77
:102AA00000000140704770477047704770B504469A
:102AB0000368DE681D6915F0020F10D016F0020FD2
:102AC0000DD06FF002021A610123037703689B693E
:102AD00013F0030F5ED0FFF7E6FF0023237715F016
:102AE000040F12D016F0040F0FD023686FF0040209
:102AF0001A610223237723689B6913F4407F4FD028
:102B00002046FFF7D0FF0023237715F0080F12D0DF
:102B100016F0080F0FD023686FF008021A61042323
:102B200023772368DB6913F0030F40D02046FFF7BB
:102B3000BAFF0023237715F0100F12D016F0100FF4
:102B40000FD023686FF010021A61082323772368DF
:102B5000DB6913F4407F31D02046FFF7A4FF002348
:102B6000237715F0010F02D016F0010F2DD115F0CB
:102B7000800F02D016F0800F2FD115F0400F02D039
:102B800016F0400F31D115F0200F02D016F0200FB3
:102B900033D170BDFFF786FF2046FFF785FF9CE726
:102BA0002046FFF77FFF2046FFF77EFFABE720467A
:102BB000FFF778FF2046FFF777FFBAE72046FFF7D9
:102BC00071FF2046FFF770FFC9E723686FF001022D
:102BD0001A61204605F070FEC9E723686FF0800295
:102BE0001A61204600F069FBC7E723686FF04002D6
:102BF0001A612046FFF759FFC5E723686FF02002EE
:102C00001A61204600F058FBC3E700000368274A1A
:102C100090420ED0B0F1804F0BD0A2F57C42904292
:102C200007D002F58062904203D002F580629042A4
:102C300003D123F070034A6813431C4A90421AD010
:102C4000B0F1804F17D0A2F57C42904213D002F52C
:102C5000806290420FD002F5806290420BD002F564
:102C60009A32904207D002F58062904203D002F57A
:102C70008062904203D123F44073CA68134323F067
:102C800080034A6913438A68C2620A688262074AFB
:102C9000904207D0026842F00402026001224261C1
:102CA000036070470A690263F4E700BF0000014057
:102CB00040B310B5044690F83D30F3B1022384F8D8
:102CC0003D30214651F8040BFFF7A0FF012384F8A3
:102CD000463084F83E3084F83F3084F8403084F841
:102CE000413084F8423084F8433084F8443084F82A
:102CF000453084F83D30002010BD80F83C3003F0B2
:102D0000EBFEDBE70120704740B310B5044690F8B6
:102D10003D30F3B1022384F83D30214651F8040BD5
:102D2000FFF774FF012384F8463084F83E3084F8BE
:102D30003F3084F8403084F8413084F8423084F8E1
:102D4000433084F8443084F8453084F83D30002026
:102D500010BD80F83C3003F03DFFDBE701207047F9
:102D6000002853D0F8B50D46044690F83D30002BAE
:102D700047D0022384F83D302268936823F48043CF
:102D800023F007039360214651F8040BFFF73EFF41
:102D900021688B688A690E6A2868184322F4407299
:102DA00022F00302AB68AF6943EA0723134323F41D
:102DB0007C4323F0FC03EA68EF6942EA07221A43E6
:102DC0002B6A1B032F6943EA0713134326F0AA0655
:102DD0006A686D6942EA05123243886021688B6136
:102DE00023681A62012384F8463084F83E3084F860
:102DF0003F3084F8423084F8433084F83D3000207E
:102E0000F8BD80F83C3003F0B1FEB2E70120704716
:102E100030B4036A026A22F01002026244688269D6
:102E200022F4E6420D6842EA052223F020038D6871
:102E300043EA05130C4DA84206D0446082614A68FB
:102E40008263036230BC704723F08003CD6843EA9D
:102E5000051323F0400324F440644D6944EA8504DB
:102E60008D6944EA8504E8E70000014038B590F830
:102E70003C30012B66D004460D46012380F83C30DF
:102E80000C2A5AD8DFE802F0075959591B595959E9
:102E90003059595944000068FFF7E6FC22689369ED
:102EA00043F0080393612268936923F0040393615C
:102EB0002268936929690B43936100203EE0006812
:102EC000FFF7A6FF2268936943F4006393612268C9
:102ED000936923F48063936122689369296943EAC3
:102EE00001239361002029E00068FFF7E7FC2268D6
:102EF000D36943F00803D3612268D36923F0040344
:102F0000D3612268D36929690B43D361002015E09E
:102F10000068FFF701FD2268D36943F40063D361C1
:102F20002268D36923F48063D3612268D369296955
:102F300043EA0123D361002000E00120002384F84C
:102F40003C3038BD0220FCE710B4846824F47F4C88
:102F500042EA03220A4342EA0C0282605DF8044B13
:102F6000704790F83C30012B78D010B5044601230F
:102F700080F83C30022380F83D300268936823F4E7
:102F80007F4323F0770393600B68602B4CD023D8EA
:102F9000402B54D011D8202B03D00AD80BB1102BC2
:102FA00005D119462068FFF702FD002028E0012026
:102FB00026E0302BF5D0012022E0502B0AD1CA6840
:102FC00049680068FFF7CCFC50212068FFF7EFFC50
:102FD000002015E0012013E0B3F5805F3AD0B3F58F
:102FE000005F14D0702B37D1CB684A6889680068BD
:102FF000FFF7AAFF2268936843F0770393600020ED
:10300000012384F83D30002384F83C3010BDCB68A8
:103010004A6889680068FFF797FF2268936843F45D
:10302000804393600020EBE7CA6849680068FFF7B7
:10303000AAFC60212068FFF7BAFC0020E0E7CA681C
:1030400049680068FFF78CFC40212068FFF7AFFC5F
:103050000020D5E70020D3E70120D1E70220704708
:1030600001F01F014FF0010C0CFA01FC036A23EA86
:103070000C030362036A8A40134303627047000033
:1030800010B504460846002932D194F83E30DBB230
:10309000013B18BF0123002B63D1002841D102233B
:1030A00084F83E30012201462068FFF7D9FF2368EB
:1030B0002E4A934245D023682C4A934246D0B3F11E
:1030C000804F43D0A2F57C4293423FD002F580620C
:1030D00093423BD002F58062934237D002F59A3298
:1030E000934233D01A6842F001021A60002037E0A0
:1030F000042908D008290DD094F84130DBB2013BF7
:1031000018BF0123C7E794F83F30DBB2013B18BF7B
:103110000123C0E794F84030DBB2013B18BF012324
:10312000B9E7042805D0082807D0022384F84130E5
:10313000B8E7022384F83F30B4E7022384F8403034
:10314000B0E75A6C42F400425A64B4E79A6802F05D
:103150000702062A07D01A6842F001021A6000200E
:1031600010BD0120FCE70020FAE700BF000001408D
:1031700038B5044690F83E00C0B294F83F3094F859
:103180004220D2B294F843C00D46B1B9012849D1CA
:10319000012A48D1022384F83E3084F842307DB3BE
:1031A000042D39D0012200212068FFF759FF0122A8
:1031B00004212068FFF754FF27E0DBB25FFA8CFCA4
:1031C000042912D0012833D1012B2CD1012A31D16D
:1031D000BCF1010F30D1022384F83E3084F83F3037
:1031E00084F8423084F84330D9E7012B1CD1BCF17C
:1031F000010F1BD1022384F83F3084F84330CEE71F
:10320000012200212068FFF72BFF2268136843F09A
:1032100001031360002006E0012204212068FFF76B
:103220001FFFF2E7012038BD0120FCE71846FAE74E
:103230000120F8E71846F6E71046F4E790F83C203E
:10324000012A35D010B40346012280F83C20022226
:1032500080F83D2002685068946820F0700C08687F
:1032600040EA0C0050601A681248824212D0B2F153
:10327000804F0FD0A0F57C4082420BD000F58060DB
:10328000824207D000F58060824203D000F59A3078
:10329000824204D124F080044968214391600122D4
:1032A00083F83D20002083F83C005DF8044B704714
:1032B000022070470000014070477047002800F06E
:1032C000E08170B582B00446036813F0010F3BD073
:1032D0009F4B9B6803F00C03042B2CD09C4B9B68EA
:1032E00003F00C03082B21D06368B3F5803F4FD067
:1032F000B3F5A02F52D0964B1A6822F480321A6090
:103300001A6822F480221A606368002B50D000F003
:103310001BFF05468E4B1B6813F4003F14D100F0D1
:1033200013FF401B6428F5D90320B1E1884B5B688B
:1033300013F4800FD8D0864B1B6813F4003F03D0E2
:103340006368002B00F09F81236813F0020F54D0B4
:103350007F4B9B6813F00C0F3ED07D4B9B6803F0B6
:103360000C03082B33D0E368002B68D0794B012283
:103370001A6000F0E9FE0546754B1B6813F0020F5A
:1033800054D100F0E1FE401B0228F5D903207FE173
:103390006F4A136843F480331360B5E76C4B1A68C7
:1033A00042F480221A601A6842F480321A60ABE755
:1033B00000F0CAFE0546664B1B6813F4003FC3D0FD
:1033C00000F0C2FE401B6428F5D9032060E1604B89
:1033D0005B6813F4800FC6D15D4B1B6813F0020FBE
:1033E00003D0E368012B40F05081594A136823F061
:1033F000F803216943EAC1031360236813F0080F3F
:1034000042D063696BB3534B0122C3F8802E00F0A6
:103410009BFE05464E4B5B6F13F0020F34D100F05C
:1034200093FE401B0228F5D9032031E1484A136876
:1034300023F0F803216943EAC1031360DDE7454B3C
:1034400000221A6000F080FE0546414B1B6813F015
:10345000020FD2D000F078FE401B0228F5D90320DD
:1034600016E13C4B0022C3F8802E00F06DFE0546AD
:10347000374B5B6F13F0020F06D000F065FE401B68
:103480000228F5D9032003E1236813F0040F77D055
:103490002F4B1B6C13F0805F33D1002301932C4B17
:1034A0001A6C42F080521A641B6C03F08053019333
:1034B000019B0125284B1B6813F4807F23D0A36850
:1034C000012B34D0052B38D0214B1A6F22F001028A
:1034D0001A671A6F22F004021A67A368002B3DD006
:1034E00000F032FE06461A4B1B6F13F0020F46D156
:1034F00000F02AFE801B41F288339842F3D9032062
:10350000C6E00025D6E7144A136843F480731360BD
:1035100000F01AFE0646104B1B6813F4807FCED1D4
:1035200000F012FE801B0228F5D90320B0E0084A03
:10353000136F43F001031367CFE7054B1A6F42F097
:1035400004021A671A6F42F001021A67C5E700BF4A
:1035500000380240000047420070004000F0F4FDD7
:103560000646524B1B6F13F0020F08D000F0ECFD23
:10357000801B41F288339842F3D9032088E0EDB9EB
:10358000A369002B00F08380484A926802F00C0285
:10359000082A51D0022B17D0454B00221A6600F0A2
:1035A000D3FD0446414B1B6813F0007F42D000F06E
:1035B000CBFD001B0228F5D9032069E03B4A136CC0
:1035C00023F080531364DBE7394B00221A6600F0C6
:1035D000BBFD0546354B1B6813F0007F06D000F09D
:1035E000B3FD401B0228F5D9032051E0E369226AAC
:1035F0001343626A43EA8213A26A5208013A43EA19
:103600000243E26A43EA0263284A5360284B0122DC
:103610001A6600F099FD0446244B1B6813F0007FE6
:1036200006D100F091FD001B0228F5D903202FE000
:1036300000202DE000202BE0012B2BD01B4B5B68E2
:1036400003F48001E269914226D103F03F02216A2E
:103650008A4223D1616A47F6C0721A40B2EB811FD9
:103660001ED103F44031A26A5208013AB1EB024F75
:1036700018D103F07063E26AB3EB026F14D100203B
:1036800006E001207047012002E0012000E0002058
:1036900002B070BD0120FBE70120F9E70120F7E748
:1036A0000120F5E70120F3E70120F1E700380240AF
:1036B0000000474208B5334B9B6803F00C03042B12
:1036C0005BD0082B5BD12F4B5A6802F03F025B683E
:1036D00013F4800F2CD02B4B5868C0F388104FEA9E
:1036E000401CBCEB000C6EEB0E0E4FEA8E1343EA4F
:1036F0009C634FEA8C11B1EB0C0163EB0E03DB0012
:1037000043EA5173C90011EB000C43F10003590265
:1037100000234FEA4C2041EADC51FDF7DFFA194B58
:103720005B68C3F3014301335B00B0FBF3F008BDFA
:10373000144B5868C0F388104FEA401CBCEB000CD7
:103740006EEB0E0E4FEA8E1343EA9C634FEA8C1128
:10375000B1EB0C0163EB0E03DB0043EA5173C900CC
:1037600011EB000C43F10003990200234FEA8C2077
:1037700041EA9C51FDF7B2FAD1E70348D7E7034885
:10378000D5E700BF0038024000127A000024F400A0
:10379000002800F09B8070B50D4604464F4B1B6817
:1037A00003F007038B4208D2CBB24C4A1370136864
:1037B00003F007038B4240F08B80236813F0020F65
:1037C00017D013F0040F04D0454A936843F4E05334
:1037D0009360236813F0080F04D0414A936843F4C0
:1037E000604393603E4A936823F0F003A1680B4363
:1037F0009360236813F0010F32D06368012B21D04E
:103800009A1E012A25D9364A126812F0020F61D099
:1038100033498A6822F0030213438B6000F094FC62
:1038200006462F4B9B6803F00C036268B3EB820FD4
:1038300016D000F089FC801B41F288339842F0D901
:10384000032042E0264A126812F4003FE0D1012032
:103850003BE0234A126812F0007FD9D1012034E006
:103860001E4B1B6803F00703AB4207D9EAB21B4BA0
:103870001A701B6803F00703AB422DD1236813F0C5
:10388000040F06D0164A936823F4E053E1680B4313
:103890009360236813F0080F07D0114A936823F44C
:1038A0006043216943EAC1039360FFF703FF0C4BB8
:1038B0009B68C3F303130B4AD35CD8400A4B1860D0
:1038C0000A4B1868FEF766FD002070BD01207047A6
:1038D0000120FAE70120F8E70120F6E7003C02406A
:1038E00000380240D87D01080800002004000020B4
:1038F000014B1868704700BF0800002008B5FFF7AB
:10390000F7FF044B9B68C3F38223034AD35CD84080
:1039100008BD00BF00380240D07D010808B5FFF7A0
:10392000E7FF044B9B68C3F34233034AD35CD840A0
:1039300008BD00BF00380240D07D01080F2303609E
:103940000B4B9A6802F0030242609A6802F0F002A0
:1039500082609A6802F4E052C2609B68DB0803F45C
:10396000E0530361034B1B6803F007030B607047D0
:1039700000380240003C024000230F2B00F2D780A9
:1039800070B582B065E085684FEA430E032404FAFF
:103990000EF425EA0405CC6804FA0EF42C43846086
:1039A000446824EA02044A68C2F300129A4022439F
:1039B00042605CE0DC08083450F8242003F007057E
:1039C000AD004FF00F0E0EFA05FE22EA0E0E0A6948
:1039D000AA4042EA0E0240F824205CE0042200E003
:1039E000002202FA0EF22A430234514D45F82420F7
:1039F000504A94686FEA0C0224EA0C054E6816F4EB
:103A0000801F01D04CEA04054A4CA560E46802EA34
:103A100004054E6816F4001F01D04CEA0405454C1D
:103A2000E560646802EA04054E6816F4003F01D0C0
:103A30004CEA04053F4C6560246822404D6815F44B
:103A4000803F01D04CEA04023A4C226001330F2B34
:103A50006BD801229A400C6804EA020C32EA040492
:103A6000F4D14C6804F00304013C012C8BD94A6862
:103A700002F00302032A09D0C4685D000322AA40B1
:103A800024EA02048A68AA402243C2604A6802F01B
:103A90000302022A8ED004684FEA430E032202FA80
:103AA0000EF224EA02044A6802F0030202FA0EF25D
:103AB000224302604A6812F4403FC7D000220192BC
:103AC0001D4A546C44F480445464526C02F48042A5
:103AD0000192019A9C08A51C154A52F8255003F042
:103AE000030E4FEA8E0E0F2202FA0EF225EA0205AD
:103AF000124A90423FF474AF02F5806290420ED0B9
:103B000002F5806290420CD002F5806290420AD0A9
:103B100002F5806290423FF461AF072261E7012223
:103B20005FE702225DE703225BE702B070BD7047EA
:103B300000380140003C01400038024000000240D3
:103B40000AB18161704709048161704708B5054B6E
:103B50005B69034200D108BD024B586104F0A0FE2E
:103B6000F9E700BF003C014030B405682C6824F43C
:103B700080242C60046863608368402B05D0036850
:103B800099600368DA6030BC704703689A60036824
:103B9000D960F8E710B40368D9B210390A4AA2FB19
:103BA00001421209094CA25CC2655F2907D96FF373
:103BB000090304338365806D5DF8044B70476FF330
:103BC00009038365F7E700BFABAAAAAAC87D01086D
:103BD000836A826992B9012B0AD0022B02D00BB101
:103BE00000207047C36A13F0807F28D100207047FF
:103BF000C36AB3F1C07F24D000207047B2F5005FE4
:103C000009D0022B25D9032B25D1C36A13F0807F5D
:103C100023D100207047032B03D8DFE803F01404FE
:103C2000140A00207047C36A13F0807F0DD1002072
:103C30007047C36AB3F1C07F09D0002070470120EC
:103C40007047012070470120704701207047012014
:103C50007047012070470020704701207047000026
:103C600070B5044600F070FA002C5BD005460223C4
:103C700084F83530002384F834302268136823F048
:103C80000103136023681A6812F0010F0AD000F0D4
:103C90005BFA431B052BF5D920236365032084F8C9
:103CA000350070BD1A68204911406268A06802435F
:103CB000E06802432069024360690243A06902434D
:103CC000E0690243206A02430A43616A04291ED064
:103CD0001A602668756925F00705636A1D43042B81
:103CE00007D1A36A1D43E36A1BB12046FFF770FFAB
:103CF00090B975612046FFF74DFFE26D3F23934079
:103D0000836000206065012384F83530C9E7E16AEB
:103D1000206B01430A43DBE740236365012084F8FD
:103D20003500BEE70120BCE73F8010F038B50446FF
:103D3000856D90F8340001282BD0012084F83400E0
:103D400094F83500C0B2012804D0002384F8343040
:103D5000022038BD022084F835000020606520462E
:103D6000FFF702FFE26D3F239340AB6022681368C8
:103D700043F016031360236C23B12268136843F0E9
:103D8000080313602268136843F0010313600020E6
:103D9000DFE70220DDE770B50446866D00F0D4F958
:103DA00094F83530DBB2022B06D080236365002304
:103DB00084F83430012070BD05462268136823F072
:103DC000160313602268536923F080035361236C48
:103DD000E3B12268136823F00803136022681368B4
:103DE00023F00103136023681B6813F0010F11D047
:103DF00000F0AAF9431B052BF5D9202363650320A6
:103E000084F83500002384F83430D4E7A36C002B09
:103E1000DFD1E3E7E26D3F239340B360012384F8F1
:103E20003530002084F83400C5E790F83530DBB237
:103E3000022B03D08023436501207047052380F8BF
:103E400035300268136823F00103136000207047C7
:103E5000F0B583B0044600230193724B1D68724B8A
:103E6000A3FB0535AD0A876D3E68C26D08239340FC
:103E7000334210D003681A6812F0040F0BD01A688E
:103E800022F004021A60C26D08239340BB60436DA8
:103E900043F001034365E26D01239340334209D0AF
:103EA0002268526912F0800F04D0BB60636D43F04A
:103EB00002036365E26D04239340334209D0226814
:103EC000126812F0020F04D0BB60636D43F004036C
:103ED0006365E26D10239340334224D02268126858
:103EE00012F0080F1FD0BB6023681A6812F4802FED
:103EF0000DD01B6813F4002F04D1236C9BB1204616
:103F0000984710E0A36C73B1204698470BE01A68FD
:103F100012F4807F03D11A6822F008021A60236C21
:103F20000BB120469847E26D20239340334255D091
:103F30002268126812F0100F50D0BB6094F8353030
:103F4000DBB2052B0ED023681A6812F4802F33D011
:103F50001B6813F4002F2AD1636C002B3ED020463F
:103F600098473BE02268136823F016031360226829
:103F7000536923F080035361236CA3B12268136853
:103F800023F008031360E26D3F239340BB600123DD
:103F900084F83530002384F83430236D002B3FD073
:103FA000204698473CE0A36C002BE7D1EBE7E36B9E
:103FB000A3B12046984711E01A6812F4807F09D116
:103FC0001A6822F010021A60012384F835300023A9
:103FD00084F83430E36B0BB120469847636DFBB136
:103FE000636D13F0010F17D0052384F83530226874
:103FF000136823F001031360019B01330193AB426B
:1040000004D823681B6813F0010FF5D1012384F84D
:104010003530002384F83430E36C0BB120469847E8
:1040200003B0F0BD08000020B5814E1B002807DB5F
:1040300000F01F02400901239340024A42F8203059
:10404000704700BF00E100E0002808DB0901C9B2A9
:1040500000F1604000F5614080F80013704700F007
:104060000F000901C9B2014B1954704714ED00E06B
:1040700000B500F00700C0F1070CBCF1040F28BF29
:104080004FF0040C031D062B0FD9C31E4FF0FF3E4B
:104090000EFA0CF021EA000199400EFA03FE22EA22
:1040A0000E0241EA02005DF804FB0023EEE7000087
:1040B000074AD36823F4E0631B041B0C000200F4DE
:1040C000E060034343F0BF6343F40033D3607047C1
:1040D00000ED00E010B50446054BD868C0F302209F
:1040E000FFF7C6FF01462046FFF7AEFF10BD00BF39
:1040F00000ED00E008B5FFF799FF08BD08B50B4BD0
:104100001A6842F400721A601A6842F480621A60F7
:104110001A6842F480721A600320FFF7C9FF0F206B
:10412000FEF738F9FEF714F9002008BD003C024004
:10413000034A1168034B1B780B441360704700BFA0
:10414000F408002000000020014B1868704700BFF1
:10415000F408002038B50446FFF7F6FF0546B4F131
:10416000FF3F02D0044B1B781C44FFF7EDFF401BC0
:10417000A042FAD338BD00BF00000020026802F15F
:104180000C0353E8003F23F0C0030C3242E8003137
:104190000029F3D1202380F841307047026802F1F2
:1041A0000C0353E8003F23F490730C3242E80031D3
:1041B0000029F3D1026802F1140353E8003F23F011
:1041C0000103143242E800310029F3D1036B012BC3
:1041D00005D0202380F84230002303637047026833
:1041E00002F10C0353E8003F23F010030C3242E8C5
:1041F00000310029F3D1ECE790F84130DBB2212BFC
:1042000001D0022070478368B3F5805F17D0036A3E
:104210005A1C02621A7803685A60C38C9BB2013B35
:104220009BB2C3844BB90268D36823F08003D36088
:104230000268D36843F04003D360002070470369ED
:10424000002BE4D1036A1B880268C3F308035360A0
:10425000036A02330362E0E710B50446026813699B
:1042600023F44053C1680B431361836802691A4306
:1042700043691A43C3691A430168CB6823F41643A0
:1042800023F00C031343CB600268536923F440739B
:1042900081690B4353610368314A934206D002F5AA
:1042A0008062934202D0FFF729FB01E0FFF736FB63
:1042B000E369B3F5004F29D00021031849411B18C9
:1042C00041F10001C90041EA5371DB00181863682D
:1042D0004FEA83024FEA937341F10001FCF7FEFCC1
:1042E000204AA2FB00314909642303FB11031B018F
:1042F0003233A2FB03235B0903F0F00202EB01124D
:1043000003F00F03216813448B6010BD00230218D3
:1043100043EB0301121841F10001C90041EA527157
:10432000D200101841F10001626892185B41FCF75D
:10433000D5FC0C4AA2FB00314909642303FB11039D
:10434000DB003233A2FB03235B095A0002F4F8724C
:1043500002EB011203F00703216813448B60D4E7DA
:10436000001001401F85EB5160B310B5044690F872
:10437000413013B3242384F841302268D36823F4F6
:104380000053D3602046FFF767FF2268136923F4C8
:10439000904313612268536923F02A035361226812
:1043A000D36843F40053D36000206064202384F872
:1043B000413084F84230606310BD80F84030FDF732
:1043C0000DFFD7E70120704738B5134690F841201C
:1043D000D2B2202A36D10446002935D00BB90120AB
:1043E00031E001628384C38400224264212084F886
:1043F0004100A06B154DC563A06B154D0564A06B06
:10440000144DC564A06B026522680432A06BFFF7EF
:104410008DFC30B110236364202384F841300120E7
:1044200011E023686FF040021A60226802F1140361
:1044300053E8003F43F08003143242E80031002982
:10444000F3D100E0022038BD0120FCE7DF44000882
:10445000474500085745000810B5044603685A69E7
:1044600090F84130DBB2212B0AD023685A6902F060
:10447000400294F84230DBB2222B19D0002010BD4C
:1044800002F08002002AF0D0226802F1140353E8FF
:10449000003F23F08003143242E800310029F3D1B9
:1044A000A06B08B1FFF777FC2046FFF767FEDCE75B
:1044B000002AE3D0226802F1140353E8003F23F0FE
:1044C0004003143242E800310029F3D1E06B08B117
:1044D000FFF761FC2046FFF761FECFE7704708B5A4
:1044E0000346806B1B681B6813F4807F1AD100237E
:1044F000C384026802F1140353E8003F23F08003F1
:10450000143242E800310029F3D1026802F10C03B1
:1045100053E8003F43F040030C3242E800310029E9
:10452000F3D108BDFFF7DAFFFBE708B50168CA68F9
:1045300022F04002CA60202280F84120FFF7CEFF1F
:10454000002008BD704708B5806BFFF7FBFF08BD72
:1045500070477047704710B5846B23685A6994F8A8
:104560004130DBB2212B10D023685A6902F040029F
:1045700094F84230DBB2222B11D0636C43F010036D
:1045800063642046FFF7E6FF10BD02F08002002AB8
:10459000EAD00023E3842046FFF7F0FDE4E7002A99
:1045A000EBD00023E3852046FFF7F8FDE5E708B5EB
:1045B000806B0023C385FFF7CDFF08BD704790F8DF
:1045C0004230DBB2222B69D18368B3F5805F4FD0D4
:1045D000826AB3F5805F04D0002B56D10369002BAB
:1045E00053D103685B681370836A01338362C38DA0
:1045F0009BB2013B9BB2C385002B51D100B583B068
:104600000268D36823F02003D3600268D36823F4E0
:104610008073D3600268536923F001035361202340
:1046200080F8423000234363036B012B33D1002316
:104630000363026802F10C0353E8003F23F0100308
:104640000C3242E800310029F3D103681A6812F0F5
:10465000100F06D0002201921A6801925B68019344
:10466000019B818DFFF7AAFF002003B05DF804FBDA
:104670000269002AACD1826A03685B68C3F308034D
:104680001380836A02338362B1E703685B6803F0D7
:104690007F031370A8E7FFF75BFFE5E70220704791
:1046A0000020704710B582B0044602681368D068D5
:1046B000516913F00F0F09D113F0200F0CD010F037
:1046C000200F09D02046FFF77AFF16E011F0010114
:1046D00015D110F4907F12D1216B012979D013F0FC
:1046E000800F03D010F0800F40F0218113F0400FB5
:1046F00003D010F0400F40F01E8102B010BD13F047
:10470000010F06D010F4807F03D0626C42F00102EA
:10471000626413F0040F04D019B1626C42F002021B
:10472000626413F0020F04D019B1626C42F004020B
:10473000626413F0080F07D010F0200F00D119B1F8
:10474000626C42F008026264626C002AD5D013F0F9
:10475000200F02D010F0200F29D123685B6903F0ED
:104760004003626C12F0080F00D163B32046FFF7DC
:1047700015FD23685B6913F0400F20D0226802F119
:10478000140353E8003F23F04003143242E80031A1
:104790000029F3D1E36B73B1694A1A65E06BFFF747
:1047A00044FB0028A9D0E06B036D9847A5E720469D
:1047B000FFF705FFD1E72046FFF7CCFE9DE7204637
:1047C000FFF7C8FE99E72046FFF7C4FE00236364A5
:1047D00093E713F0100F82D010F0100F3FF47FAF6B
:1047E000002301931368019353680193019B53695C
:1047F00013F0400F5FD0E26B13685B689BB2002B35
:104800004AD0A18D994247D9E385D369B3F5807F1A
:1048100037D0226802F10C0353E8003F23F4807381
:104820000C3242E800310029F3D1226802F114036E
:1048300053E8003F23F00103143242E8003100291D
:10484000F3D1226802F1140353E8003F23F0400340
:10485000143242E800310029F3D1202384F8423099
:1048600000232363226802F10C0353E8003F23F086
:1048700010030C3242E800310029F3D1E06BFFF75E
:104880008AFA02236363A18DE38D9BB2C91A89B2B0
:104890002046FFF793FE30E7A18D99427FF42DAFBC
:1048A000D369B3F5807F7FF428AF0223636320468A
:1048B000FFF784FE21E7A18DE38D9BB2C91A89B26F
:1048C000E38D9BB2002B3FF418AF00293FF415AFE6
:1048D000226802F10C0353E8003F23F490730C327A
:1048E00042E800300028F3D1226802F1140353E8B3
:1048F000003F23F00103143242E800300028F3D1D6
:10490000202384F8423000232363226802F10C0341
:1049100053E8003F23F010030C3242E80030002837
:10492000F3D1022363632046FFF748FEE5E6204605
:10493000FFF762FCE1E62046FFF7F7FDDDE600BF8A
:10494000AF45000808B5806B01234363036B012B5F
:1049500002D0FFF7FEFD08BD818D4908FFF72EFE4E
:10496000F9E708B50346806B1B681B6813F4807F6A
:104970002BD10023C385026802F10C0353E8003FEA
:1049800023F480730C3242E800310029F3D102682D
:1049900002F1140353E8003F23F00103143242E80C
:1049A00000310029F3D1026802F1140353E8003FFB
:1049B00023F04003143242E800310029F3D12023D0
:1049C00080F84230036B012B07D000234363036B55
:1049D000012B0FD0FFF7BCFD08BD026802F10C03EC
:1049E00053E8003F23F010030C3242E80031002965
:1049F000F3D1EAE7818DFFF7E1FDEDE730B583B054
:104A0000044613468162828500224264222084F893
:104A10004200E06B244DC563E06B244D0564E06B00
:104A2000234DC564E06B026520680A46011DE06BFA
:104A3000FFF77CF900282FD10023019323681A681F
:104A400001925B680193019B23695BB1226802F1CB
:104A50000C0353E8003F43F480730C3242E800310A
:104A60000029F3D1226802F1140353E8003F43F018
:104A70000103143242E800310029F3D1226802F127
:104A8000140353E8003F43F04003143242E800317E
:104A90000029F3D103B030BD10236364202384F8D0
:104AA00042300120F6E700BF63490008454900088D
:104AB0005745000808B590F84230DBB2202B08D1EA
:104AC00049B10AB9012008BD00230363FFF796FF2F
:104AD000F9E70220F7E70120F5E70000034AD2F8E2
:104AE000883043F47003C2F88830704700ED00E06E
:104AF00000F1080343604FF0FF328260C36003613E
:104B000000230360704700230361704743684B60D4
:104B10009A688A6051609960086103680133036094
:104B2000704730B40D68B5F1FF3F11D000F10803B4
:104B30001C465B681A68AA42FAD963684B609960A0
:104B40008C606160086103680133036030BC7047AA
:104B50000469F2E70369416882688A6041685160CC
:104B60005A68824206D0002202611A68013A1A602D
:104B70001868704782685A60F5E710B5044601F07E
:104B8000D1FCA26BE36B9A4204D0002401F0ECFC50
:104B9000204610BD0124F9E710B5044601F0C2FC1F
:104BA000A36B23B9012401F0DFFC204610BD0024D3
:104BB000F9E770B504461546866B026C5AB903686E
:104BC0001BB100200136A66370BD806800F0ECFFC9
:104BD0000023A360F6E76DB9406812F098FA6368A5
:104BE000226C13446360A268934219D32368636004
:104BF0002846E7E7C06812F08AFAE368226C51425F
:104C00009B1AE3602268934202D2A3680B44E360DC
:104C1000022D01D00020D5E726B1013E0020D1E7CA
:104C20002846CFE70020CDE70346026C6AB110B5F5
:104C30000846D9681144D9609C68A14201D319681B
:104C4000D960D96812F063FA10BD704738B50546CF
:104C500001F068FC95F8454064B201E0013C64B2A3
:104C6000002C0ADD6B6A43B105F1240000F0D6FE8A
:104C70000028F3D000F082FFF0E7FF2385F84530ED
:104C800001F072FC01F04EFC95F8444064B201E082
:104C9000013C64B2002C0ADD2B6943B105F1100020
:104CA00000F0BCFE0028F3D000F068FFF0E7FF231F
:104CB00085F8443001F058FC38BD38B5E0B10D46F8
:104CC000044601F02FFC2368E26B216C01FB0230EB
:104CD000A0600020A0636360013A02FB0133E3603F
:104CE000FF2384F8443084F84530FDB9236963B963
:104CF00001F03AFC012038BD4FF0500383F31188D6
:104D0000BFF36F8FBFF34F8FFEE704F1100000F089
:104D100085FE0028ECD04FF0E0234FF08052C3F81E
:104D2000042DBFF34F8FBFF36F8FE1E704F1100045
:104D3000FFF7DEFE04F12400FFF7DAFED8E738B50E
:104D40001D46049C0B4649B92460E063236401219D
:104D50002046FFF7B2FF84F84C5038BD2260F4E7DC
:104D600040B94FF0500383F31188BFF36F8FBFF347
:104D70004F8FFEE710B584B01C46844653B192B104
:104D800089B94FF0500383F31188BFF36F8FBFF3DE
:104D90004F8FFEE74FF0500383F31188BFF36F8FFF
:104DA000BFF34F8FFEE76AB150230393039B502B51
:104DB00013D04FF0500383F31188BFF36F8FBFF30D
:104DC0004F8FFEE70029EFD04FF0500383F3118897
:104DD000BFF36F8FBFF34F8FFEE7039B012384F870
:104DE000463000949DF818306046FFF7A8FF204633
:104DF00004B010BDF0B585B0019288B10F461D46D4
:104E00000446B1B1022D20D1E36B012B1DD04FF030
:104E1000500383F31188BFF36F8FBFF34F8FFEE70B
:104E20004FF0500383F31188BFF36F8FBFF34F8FA1
:104E3000FEE7036C002BE5D04FF0500383F311889D
:104E4000BFF36F8FBFF34F8FFEE700F09DFE064666
:104E500058B9019B002B48D04FF0500383F31188C1
:104E6000BFF36F8FBFF34F8FFEE700263DE02A466A
:104E700039462046FFF79DFE636A7BB948B14FF083
:104E8000E0234FF08052C3F8042DBFF34F8FBFF3E0
:104E90006F8F01F069FB012005B0F0BD04F1240023
:104EA00000F0BCFD0028F4D04FF0E0234FF080521A
:104EB000C3F8042DBFF34F8FBFF36F8FE9E701F005
:104EC00053FB0020E8E702A800F00AFE012619E0E3
:104ED000002384F8443021E0002384F8453023E0A7
:104EE0002046FFF7B3FE00F077FC01F01BFBA26B3E
:104EF000E36B9A42BBD3022DB9D0019B002BDED0CD
:104F0000002EE0D001F030FB00F0CCFB01F00AFBFA
:104F100094F8442052B2B2F1FF3FD9D094F8452022
:104F200052B2B2F1FF3FD7D001F01EFB01A902A897
:104F300000F0E2FDD8B92046FFF71FFE0028CFD0D1
:104F4000019904F1100000F035FD2046FFF77EFEC8
:104F500000F042FC0028C8D14FF0E0234FF080520F
:104F6000C3F8042DBFF34F8FBFF36F8FBDE720460B
:104F7000FFF76CFE00F030FC00208DE72DE9F843D0
:104F800090B10F4616461C460546B1B1022C20D101
:104F9000EB6B012B1DD04FF0500383F31188BFF34F
:104FA0006F8FBFF34F8FFEE74FF0500383F31188ED
:104FB000BFF36F8FBFF34F8FFEE7036C002BE5D07D
:104FC0004FF0500383F31188BFF36F8FBFF34F8F00
:104FD000FEE701F0CDFBEFF311884FF0500383F3B0
:104FE0001188BFF36F8FBFF34F8FAA6BEB6B9A42A1
:104FF00006D3022C04D0002088F31188BDE8F88382
:1050000095F845904FFA89F9AB6B22463946284608
:10501000FFF7CFFDB9F1FF3F06D009F101035BB205
:1050200085F845300120E7E76B6A0BB90120E3E71B
:1050300005F1240000F0F2FC18B126B10120306027
:10504000DAE70120D8E70120D6E7F0B585B0019274
:1050500090B10F460446C1B100F096FD064600BB74
:10506000019B002B5ED04FF0500383F31188BFF3F8
:105070006F8FBFF34F8FFEE74FF0500383F311881C
:10508000BFF36F8FBFF34F8FFEE7036C002BE3D0AE
:105090004FF0500383F31188BFF36F8FBFF34F8F2F
:1050A000FEE700263EE039462046FFF7BDFD013D04
:1050B000A563236923B901F057FA012005B0F0BDBB
:1050C00004F1100000F0AAFC0028F4D04FF0E02317
:1050D0004FF08052C3F8042DBFF34F8FBFF36F8F93
:1050E000E9E701F041FA0020E8E702A800F0F8FC47
:1050F000012621E0002384F8443029E0002384F8CD
:1051000045302BE02046FFF7A1FD00F065FB09E0EC
:105110002046FFF79BFD00F05FFB2046FFF73CFDBC
:1051200000283FD101F0FEF9A56B002DBBD1019BFA
:10513000002BD6D0002ED8D001F016FA00F0B2FA2B
:1051400001F0F0F994F844305BB2B3F1FF3FD1D0F5
:1051500094F845305BB2B3F1FF3FCFD001F004FAD1
:1051600001A902A800F0C8FC0028D1D12046FFF711
:1051700013FD0028C6D0019904F1240000F01AFCA8
:105180002046FFF763FD00F027FB0028CAD14FF04F
:10519000E0234FF08052C3F8042DBFF34F8FBFF3CD
:1051A0006F8FBFE7002089E70023072B0CD8074A41
:1051B00052F833200AB10133F7E7044A42F83310BA
:1051C00002EBC30250607047704700BFF808002030
:1051D00070B504460D46164601F0A4F994F8443023
:1051E0005BB2B3F1FF3F0DD094F845305BB2B3F141
:1051F000FF3F0BD001F0B8F9A36B5BB12046FFF77E
:1052000025FD70BD002384F84430EDE7002384F8C9
:105210004530EFE73246294604F1240000F0E2FB76
:10522000ECE70000084B1B681B6823B9074B4FF0E5
:10523000FF321A607047044B1B68DB68DB685A68F2
:10524000024B1A60704700BFA809002040090020E7
:105250002DE9F04780460D4617469946089EDDF831
:1052600024A00A9C9200A521206B11F075FE236BEF
:1052700007F18042013A03EB820727F00707A5B345
:105280004FF0000CBCF10F0F09D815F80C3004EBEF
:105290000C0282F8343013B10CF1010CF2E7002358
:1052A00084F84330372E00D93726E662E6640025BD
:1052B0002565201DFFF727FC04F11800FFF723FCEC
:1052C0002461C6F13806A6616462656584F85850A9
:1052D0004A464146384601F0F7F82060BAF1000F1F
:1052E00001D0CAF80040BDE8F087002384F83430CC
:1052F000D8E7000038B5002407E004EB84029300EF
:105300000E481844FFF7F4FB0134372CF5D90C4D47
:105310002846FFF7EDFB0B4C2046FFF7E9FB0A4858
:10532000FFF7E6FB0948FFF7E3FB0948FFF7E0FB5F
:10533000084B1D60084B1C6038BD00BFD40900201D
:10534000C0090020AC090020900900207C09002041
:1053500064090020A8090020A409002010B5044613
:1053600001F0E0F8224A136801331360214B1B68F7
:105370005BB1214B1B686BB91E4B1B68DA6AE36A91
:105380009A4207D81B4B1C6004E01A4B1C60136840
:10539000012B29D0194A1368013313606364E06A52
:1053A000174B1B68984201D9154B186000EB800021
:1053B000211D144B03EB8000FFF7A8FB01F0D4F88C
:1053C0000D4B1B687BB10B4B1B68DA6AE36A9A4290
:1053D00009D24FF0E0234FF08052C3F8042DBFF301
:1053E0004F8FBFF36F8F10BDFFF784FFD2E700BF71
:1053F00060090020340E00205409002044090020D8
:1054000058090020D409002010B5044690F85930FE
:1054100063B1012B11D0022B0ED04FF0500383F358
:105420001188BFF36F8FBFF34F8FFEE7006B00F063
:10543000CFFF204600F0CCFF10BD00F0C9FFFBE716
:105440000F4B1B68D3B110B501F06CF80D4BDB6846
:10545000DC68201DFFF77EFB0B4A1368013B1360DD
:10546000074A1368013B136001F07EF82046FFF7FE
:10547000CBFF034B1B68002BE6D110BD704700BF6C
:10548000780900207C0900206009002008B5FFF79A
:10549000D7FF074B1B68012BF9D94FF0E0234FF0E2
:1054A0008052C3F8042DBFF34F8FBFF36F8FEEE729
:1054B000D409002070B504460D46174B1E68174BE3
:1054C00018680430FFF746FBB4F1FF3F0DD03444B9
:1054D000124B1B685C60A64210D9114B18680F4B29
:1054E00019680431FFF71DFB70BD002DEFD00B4B89
:1054F000196804310B48FFF709FBF5E70A4B1868F8
:10550000064B19680431FFF70CFB084B1B68A342DC
:10551000EAD9064B1C60E7E75C090020340E002046
:10552000A409002064090020A809002040090020E7
:1055300030B587B00B9C7CB10C9DB5B15C25049552
:10554000049D5C2D1AD04FF0500383F31188BFF3F4
:105550006F8FBFF34F8FFEE74FF0500383F3118837
:10556000BFF36F8FBFF34F8FFEE74FF0500383F30E
:105570001188BFF36F8FBFF34F8FFEE7049D0C9D23
:105580002C63022485F8594000240394029505AC4D
:1055900001940A9C0094FFF75BFE0C98FFF7DEFE77
:1055A000059807B030BD2DE9F04385B00746884621
:1055B00014461E46900000F089FE08B381465C2028
:1055C00000F084FE0546A8B1C0F83090002380F8B2
:1055D0005930039302900D9B01930C9B009333462B
:1055E000224641463846FFF733FE2846FFF7B6FE0F
:1055F000012007E0484600F0EBFE4FF0FF3001E0ED
:105600004FF0FF3005B0BDE8F083000010B588B062
:1056100000240594069407AA06A905A800F0D8FD61
:10562000059B0293069B019300942346079A174912
:105630001748FFF77DFF174B1860C0B100F068FBFB
:10564000012815D14FF0500383F31188BFF36F8FFA
:10565000BFF34F8F104B4FF0FF321A600F4B0122F8
:105660001A600F4B00221A6000F0F6FF03E00020E2
:10567000B0F1FF3F01D008B010BD4FF0500383F3ED
:105680001188BFF36F8FBFF34F8FFEE7E87D0108EE
:105690008D5400083C0900204009002054090020D6
:1056A0005C090020024A136801331360704700BF91
:1056B00038090020014B1868704700BF5C090020C2
:1056C000F8B53A4B1B68002B69D1394B1D68013581
:1056D0001D60C5B9374B1B681B6843B14FF05003C1
:1056E00083F31188BFF36F8FBFF34F8FFEE7314A0B
:1056F0001168314B186810601960304A1368013323
:105700001360FFF78FFD2E4B1B68AB423DD900277E
:105710002C4B1B68DB6A03EB83039A002A4B9B58D4
:10572000012B00D90127294B1B68002B3CD00127F6
:105730003AE001271F4B1B681B6843B31D4B1B68D6
:10574000DB68DC6863689D4226D3261D3046FFF780
:1057500001FAA36A1BB104F11800FFF7FBF9E36A31
:105760001B4A1268934201D9194A136003EB830361
:105770009A00314614481044FFF7C8F9E26A114B09
:105780001B68DB6A9A42D4D2D4E70027D2E70C4BDD
:105790004FF0FF321A60BBE7094A1360B8E70D4AC1
:1057A00013680133136000273846F8BD380900201C
:1057B0005C090020A8090020A40900204809002055
:1057C00040090020340E0020D40900204C0900209C
:1057D000580900205009002038B5354B1B6843B9E3
:1057E0004FF0500383F31188BFF36F8FBFF34F8FD8
:1057F000FEE700F097FE2E4B1A68013A1A601B680C
:10580000002B4FD12B4B1B680BB900244BE000241D
:10581000294B1B681BB3284BDB68DC6804F11800BC
:10582000FFF798F9251D2846FFF794F9E06A234B06
:105830001B68984201D9214B186000EB8000294673
:105840001F4B03EB8000FFF761F9E26A1D4B1B68F9
:10585000DB6A9A42DCD31C4B01221A60D8E70CB1F8
:10586000FFF7E0FC194B1C6884B9174B1C68D4B1D6
:105870004FF0E0234FF08052C3F8042DBFF34F8F59
:10588000BFF36F8F01240EE0013C07D0FFF718FF34
:105890000028F9D00C4B01221A60F5E70B4B0022CF
:1058A0001A60E2E7002400F05FFE204638BD00BF2A
:1058B00038090020600900209009002058090020C4
:1058C000D4090020340E00204C090020500900208B
:1058D00010B5A8B10446104B1B6843B14FF05003FC
:1058E00083F31188BFF36F8FBFF34F8FFEE7FFF78E
:1058F000D9FE00212046FFF7DDFDFFF76DFF48B917
:105900004FF0E0234FF08052C3F8042DBFF34F8FC8
:10591000BFF36F8F10BD00BF38090020204B1B68FC
:105920001BB1204B01221A6070471E4B00221A60E7
:105930001D4B1B6803EB83018A001C498A585AB926
:105940000BB1013BF6E74FF0500383F31188BFF32F
:105950006F8FBFF34F8FFEE7084603EB83018A008A
:10596000024451684968516003EB830C4FEA8C0292
:105970000832024491420BD003EB830291000B4AA0
:105980000A445268D1680A4A1160074A1360704796
:10599000486862469100054A0A445060ECE700BF3F
:1059A000380900204C09002058090020D4090020A3
:1059B000340E002058B110B50C46094A1168183150
:1059C000FFF7AFF801212046FFF774FD10BD4FF03F
:1059D000500383F31188BFF36F8FBFF34F8FFEE740
:1059E000340E002038B570B10D4614460A4A1168CD
:1059F0001831FFF78BF80CB14FF0FF3521462846E0
:105A0000FFF758FD38BD4FF0500383F31188BFF303
:105A10006F8FBFF34F8FFEE7340E002038B5C36899
:105A2000DC6824B304F118052846FFF793F8184BF7
:105A30001B682BBB251D2846FFF78CF8E06A154B29
:105A40001B68984201D9134B186000EB800029466F
:105A5000114B03EB8000FFF759F8E26A0F4B1B680C
:105A6000DB6A9A4211D901200D4B186038BD4FF006
:105A7000500383F31188BFF36F8FBFF34F8FFEE79F
:105A800029460848FFF742F8E7E70020EEE700BFA5
:105A90003809002058090020D4090020340E0020C5
:105AA0004C0900209009002060B110B5044600F0B8
:105AB00039FD094B1B682360084B1B68636000F0CD
:105AC00053FD10BD4FF0500383F31188BFF36F8F68
:105AD000BFF34F8FFEE700BF480900205C0900209C
