:020000040800F2
:10000000008001208DCA00083154000833540008D4
:100010003554000837540008395400080000000027
:10002000000000000000000000000000B19B00087C
:100030003B54000800000000519C00083B9700085A
:10004000DDCA0008DDCA0008DDCA0008DDCA0008F4
:10005000DDCA0008DDCA00083D540008DDCA0008FA
:10006000DDCA0008DDCA0008DDCA0008DDCA0008D4
:10007000DDCA0008DDCA0008DDCA0008DDCA0008C4
:100080004954000859540008DDCA00080000000067
:10009000000000000000000000000000DDCA0008B1
:1000A000DDCA00086954000881540008DDCA000850
:1000B000DDCA0008DDCA0008DDCA0008DDCA000884
:1000C000DDCA0008DDCA0008DDCA0008DDCA000874
:1000D000DDCA0008DDCA00089154000800000000D5
:1000E000A1540008DDCA0008DDCA000800000000B5
:1000F000000000000000000000000000DDCA000851
:1001000000000000DDCA0008DDCA0008DDCA0008E2
:1001100000000000000000000000000000000000DF
:10012000DDCA0008DDCA0008DDCA0008DDCA000813
:10013000DDCA000800000000000000000000000010
:10014000000000000000000000000000DDCA000800
:10015000DDCA0008DDCA0008DDCA0008DDCA0008E3
:10016000DDCA0008DDCA0008000000000000000031
:10017000000000000000000000000000000000007F
:1001800000000000DDCA00080000000000000000C0
:04019000DDCA0008BC
:1001C0000348044B834202D0034B03B118477047E6
:1001D0007C0700207C070020000000000548064B3B
:1001E0001B1AD90F01EBA301491002D0034B03B135
:1001F000184770477C0700207C07002000000000A3
:1002000010B5064C237843B9FFF7DAFF044B13B15E
:100210000448AFF300800123237010BD8007002045
:10022000000000002C99010808B5044B1BB10449DB
:100230000448AFF30080BDE80840CFE700000000AD
:10024000840700202C99010801292DE9F0415BD990
:100250004FF00108C64600244FF0FF35434608E042
:10026000A3EB05081C464FF0010E04EB0E03994268
:1002700010D900EB050CC75C1CF80E60B742EFD339
:1002800032D04FF001082546C646444404EB0E0325
:100290009942EED80127C2F80080BE4600244FF0F4
:1002A000FF363B4607E09F1B1C464FF0010E04EB58
:1002B0000E03994210D900EB060C10F803801CF8CD
:1002C0000EC0E045EFD817D001272646BE463C4475
:1002D00004EB0E039942EED80136681C864201D326
:1002E00017603046BDE8F081C6450ABF74440EF180
:1002F000010E4FF0010EB8E7BE450ABF74440EF17F
:10030000010E4FF0010ED2E701270026E8E700BFFB
:100310002DE9F04F174687B005AA80468946384632
:1003200019461C46FFF790FF059B02938246024642
:10033000F918384601F0AEFF00285FD144F400639D
:100340000193029BE31A06460546A9EB04010393B9
:10035000CAF1010BA9421BD35645334638BF534659
:100360009C4223D9581EEA183844424402E0013323
:100370009C421BD012F801CB10F801EFE645F6D0F5
:100380009C4213D95D441D44A9424FF00006E3D2BC
:10039000019908EB090001F0ABFF8144A9EB0401CE
:1003A000A942D9D2002007B0BDE8F08F56450AF126
:1003B000FF336FD205EB0A02424407EB0A000095B7
:1003C00002E09E4211D0734610F801CD12F8015D93
:1003D000AC4503F1FF3EF4D0009D013301369E424F
:1003E00007D8029B039E1D44B4E701369E42009D40
:1003F000F7D908EB050007B0BDE8F08FA4EB0A03BE
:10040000534538BF534601330193059344F40063C9
:100410000025A9EB040100930AF1FF36CAF1010B94
:10042000A94216D3544520D905EB0A024244B81913
:10043000534602E001339C4217D012F801CB10F86A
:1004400001EFE645F6D09C420FD95D441D44A94218
:10045000E8D2009908EB090001F04AFF8144A9EBBA
:100460000401A9429ED35445DED8BAF1000FC0D092
:1004700005EB0A00404407EB0A0201E0BB42B8D09A
:1004800012F801ED10F801CDE6451346F6D0019BB8
:100490001D44C5E75346A1E72DE9F04F9346ADF261
:1004A0001C4D05AA80468A46584619461C46FFF749
:1004B000CBFE134681460DF2144243F8044F93429B
:1004C000FBD16CB1601E58440BF1FF3206AD12F83F
:1004D000011FA31A013B5B44824245F82130F6D14B
:1004E000059B01934A460BEB0301584601F0D2FEEF
:1004F000002878D144F4006307460546AAEB040EB1
:100500000293661EAE4511D308EB050C06AA1CF833
:10051000063052F82330C3B11FB1019A9A4288BF06
:10052000A31A1D44AE454FF00007EDD208EB0A00B8
:10053000029901F0DDFE8244AAEB040EAE45E3D23F
:1005400000200DF21C4DBDE8F08F4F453B4638BFF3
:100550004B469E4218D9591EEA1859444244009508
:1005600002E001339E420ED012F8010B11F8015F38
:100570008542F6D09E42009D06D9C9F101022A4467
:10058000D5180027BEE7009D4F4509F1FF3380F0E5
:10059000818005EB090242440BEB09010095CDF87F
:1005A0000C9002E09F4213D04B4611F8015D12F807
:1005B000010D854203F1FF39F4D0009DDDF80C9068
:1005C000013301379F4209D8019B1D44E71A99E77F
:1005D00001379F42009DDDF80C90F5D960460DF281
:1005E0001C4DBDE8F08FA4EB09034B4538BF4B46CB
:1005F00001330193059344F400630025AAEB040E34
:100600000093661EAE4509D308EB050006AA835D7C
:1006100052F823306BB11D44AE45F5D208EB0A0009
:10062000009901F065FE8244AAEB040EAE45EBD2C0
:1006300086E7B14517D209F1FF3105EB09025944AC
:1006400042444B4602E00133B3420CD012F8017B26
:1006500011F801CFBC45F6D09E4204D9C9F1010280
:100660002A44D518CEE7B9F1000F3FF46AAF05EB85
:10067000090141440BEB090202E05B453FF461AF25
:1006800012F801CD11F8017DBC451346F5D0019B50
:100690001D44C1E74B4694E72DE9F0410D4609782A
:1006A00090B00446002954D06A78002A00F0828075
:1006B000AB78002B51D0E8782E68002800F08180BC
:1006C0002B79002B56D0284600F09AFD064640F4C0
:1006D0000071204601F00CFE86425AD8FE2E00F230
:1006E0008880801B27184022711C684600F0F4FDAA
:1006F0007EB16A1E5FFA86FC901912F8013F03F082
:100700003F0340336B44A91A6144904203F8401CF4
:10071000F3D1013CA35D03F03F0340336B4413F876
:10072000403C1C44A74203D238E04444A74235D39E
:1007300014F806C00CF03F0C0CF140030DEB030C59
:100740003246294620461CF8408C01F0A3FD0028C3
:10075000EBD1204610B0BDE8F081007842EA0142BA
:10076000B8B140EA03439A42214614F8010FF7D189
:100770004C1EEEE7227862B131BA01E08B421ED006
:1007800042EA0323204614F8012F002AF6D18B42B7
:1007900015D00024204610B0BDE8F081BB5DB8192B
:1007A000002BF6D04FF4006101F0A2FD0744A742F0
:1007B000AFD2EEE710B0BDE8F04100F0BDB8C41E06
:1007C000C7E7120442EA0162217842EA03230029C2
:1007D000DFD0024601E00029DBD041EA0200B3EBA2
:1007E000002F25464FEA002214F8011FF3D1AC1E5A
:1007F000AFE7014633462A46204610B0BDE8F04137
:100800004AE600BF0000000038B5124B1D682A6B95
:1008100004461AB10023C2E9044338BD182001F090
:1008200041F80246286378B101200021C2E90401A1
:10083000094B0A480A499160C2E900030B239381DE
:100840000023C2E9044338BD064B0748462100F0A7
:10085000DBF800BF0000002034126DE60E33CDAB94
:10086000ECDE050038A4010850A401081C4B10B5AB
:100870001C68226B8AB113691A4954691A4803FB30
:1008800001F100FB0411A3FB0030013341EB000137
:10089000C2E9043121F0004010BD182001F002F837
:1008A0000246206388B1114C114B0E4811499160EA
:1008B0009FED097BC2E900430B2393810E4B014658
:1008C00082ED047BC2E9043110BD0C4B0C4852216F
:1008D00000F09AF8AFF30080010000000000000073
:1008E000000000202DF451582D7F954C0E33CDABD8
:1008F00034126DE6ECDE05002E7F954C38A401081D
:1009000050A4010810B4044C03460A4620685DF860
:10091000044B194601F02CB80000002000B5054B2F
:1009200083B0014601AA186801F022F803B05DF80F
:1009300004FB00BF0000002011F0FF01034600F09F
:10094000030239D08ABB026810B501EB012E0EEB11
:100950000E4E8EEA0204A2F1013323EA0203A4F14F
:10096000013222EA0402134313F0803F0FD150F802
:10097000044F84EA0E0CA4F10133ACF1013223EAF6
:10098000040322EA0C02134313F0803FEFD00378F4
:1009900023B936E010F8013F002B32D09942F9D14B
:1009A00010BD8A4228D09A0729D01A7818460133F8
:1009B000002AF6D110467047CAB90268A2F1013385
:1009C00023EA020313F0803F08D150F8042FA2F16C
:1009D000013323EA020313F0803FF6D003785BB1C2
:1009E00010F8013F002BFBD17047990705D018463E
:1009F00013F8012B002AF8D170471846DDE7184696
:100A0000A1E7184610BD00BF00B50B4C2568144681
:100A1000EE681A4685B003460D464CB1074900956D
:100A2000CDE901143046064900F08EFF00F0CEFB00
:100A300004490C46F3E700BF000000207CA4010835
:100A40008CA4010888A4010808B513460022FFF70A
:100A5000DBFF00BF10B51C4C002924689AB02DDBC9
:100A6000009004904FF40270ADF80C004FF00000BD
:100A7000199013D001394FF6FF7002910591ADF82E
:100A80000E006946204600F09DF9421C01DA8B23D6
:100A90002360009B00221A701AB010BD4FF6FF7041
:100AA00002910591ADF80E006946204600F08AF9E2
:100AB000431C01DA8B2323601AB010BD8B23236003
:100AC0004FF0FF30F8E700BF0000002030B51446BB
:100AD000002C9BB005462EDB1A464FF40273ADF88E
:100AE0000C304FF0000300910491199313D04FF68E
:100AF000FF73013CADF80E3069461E9B02940594CD
:100B000000F060F9421C01DA8B232B60009B00226D
:100B10001A701BB030BD4FF6FF73ADF80E3069464A
:100B20001E9B0294059400F04DF9431C01DA8B23BF
:100B30002B601BB030BD8B2303604FF0FF30F8E714
:100B400080EA0102844612F0030F4FD111F0030F27
:100B500032D14DF8044D11F0040F51F8043B0BD085
:100B6000A3F101329A4312F0803F04BF4CF8043BDA
:100B700051F8043B16D100BF51F8044BA3F10132E8
:100B80009A4312F0803FA4F101320BD14CF8043BA0
:100B9000A24312F0803F04BF51F8043B4CF8044BD1
:100BA000EAD023460CF8013B13F0FF0F4FEA332342
:100BB000F8D15DF8044B704711F0010F06D011F821
:100BC000012B0CF8012B002A08BF704711F0020F0F
:100BD000BFD031F8022B12F0FF0F16BF2CF8022BFA
:100BE0008CF8002012F47F4FB3D1704711F8012B1D
:100BF0000CF8012B002AF9D1704700BF2DE9F0470E
:100C00008F681D46AF420B680C46164636D8B1F9C0
:100C10000CC01CF4906F0ED13D46184631462A4652
:100C200000F0D4FCA368DF1B2368A7602B440020DE
:100C30002360BDE8F0874A69096902EB42025F1A46
:100C400002EBD2726B1C52103B44934292BF91460E
:100C500099461A461CF4806F804611D0114600F068
:100C6000D7FB824600B321693A4600F081FDA38993
:100C700023F4906343F08003A38105E02F46CCE783
:100C800000F0BEFE824658B10AEB0703A9EB070746
:100C9000A760C4F810A0C4F8149023602F46BCE7E6
:100CA0002169404600F034FCA3890C2243F0400344
:100CB000C8F800204FF0FF30A381BAE72DE9F04FCC
:100CC0009368176883B09246002B74D04FF0000BE6
:100CD0008B680A6881460C465D4645E0B4F90C30E5
:100CE00013F4906F2CD0D4E90401161A01EB4102E1
:100CF00002EBD272711C52102944914292BF90466D
:100D000088460A465B0539D51146484600F080FB07
:100D1000019000283DD03246216900F029FDA289CA
:100D2000019B22F4906242F08002A2819819A8EB04
:100D30000606A660C4F8148023612060A8462E46EB
:100D40003246594600F042FCDAF80810A3682268DF
:100D5000A3EB08033244491BA3602260CAF80810C1
:100D600049B3D7E900B5083798461046002DF8D0AA
:100D70009D421E46B2D2A8462E46E1E701464846AD
:100D800000F03EFE03460028D0D12169484600F01D
:100D9000BFFBA3890C2243F04003C9F800204FF0A9
:100DA000FF30A38100220023CAF80820CAF80430CB
:100DB00003B0BDE8F08F00200023CAF8043003B070
:100DC000BDE8F08F2DE9F04F1C468B891D069DB0C4
:100DD00088468146934603D50B69002B00F0F180CD
:100DE0000023099343F22003ADF829309BF800302B
:100DF0007D4D03940126002B73D0DA4603E01AF8E8
:100E0000013F002B75D0252BF9D1BAEB0B0473D120
:100E10009AF80020002A64D000234FF0FF32CDE979
:100E200005230AF1010A049307938DF853301A93AE
:100E300005E0049A06FA03F31A430492A2465446C4
:100E4000052214F8011B284600F042FCA346431B70
:100E50000028EED1049BD80644BF20228DF85320F1
:100E600019079AF8001044BF2B228DF853202A2925
:100E700050D1039A11680432002903927CDB079158
:100E80009AF801102E295BD0584C0322204600F01E
:100E90001FFC38B1049B001B4022824013430BF11E
:100EA000010B04931BF8011B51488DF828100622F2
:100EB00000F00EFC002865D04E4B002B55D003AA45
:100EC00000924D4B424604A94846AFF300800746C6
:100ED0007A1C06D0099B3B4409939BF80030002BF9
:100EE0008BD1B8F80C305B067AD409981DB0BDE8F8
:100EF000F08FBAEB0B04F4D023465A4641464846DD
:100F0000FFF77CFE0130ECD0099B9AF800202344C7
:100F100009937FE7A1F13002092A88BFD346B1D8EF
:100F2000079B00E00134217803EB830302EB4303CA
:100F3000A1F13002092AF5D92E290793A346A3D19E
:100F40009BF801102A2927D1039B9BF802101A68ED
:100F500005920433002A0BF102000393B8BF4FF04F
:100F6000FF338346B8BF05938EE7039B073323F017
:100F7000070308330393ADE7494243F002030791A7
:100F800004937DE703AA00921B4B424604A94846FE
:100F900000F0FAFD07469BE7A1F130020023092A81
:100FA00005930BF1010B3FF66FAF1BF8011F03EB2D
:100FB000830302EB4303A1F13002092AF5D905931B
:100FC00062E7402100F024FAC8F80000C8F81000D9
:100FD00018B14023C8F8143002E70C23C9F80030D8
:100FE0004FF0FF3082E700BFBCA40108C4A4010891
:100FF000C8A4010800000000FD0B00082DE9F0471F
:10100000074649480E46354616F801EB10F80EC063
:101010001CF0080CF7D1BEF12D0F5AD0BEF12B0FEA
:1010200003BF96F800E06446AE1C64464BB9BEF1BF
:10103000300F5CD00A23DFF8F4804FF0050A9946A0
:101040000AE0102B4AD04FF0FF38B8FBF3F803FB4F
:1010500008FA6FEA0A0A99460025284605E02CD0CE
:1010600009FB00C0012516F801EBAEF1300CBCF114
:10107000090F06D9AEF1410CBCF1190F0BD8AEF136
:10108000370C634510DDB5F1FF3FECD04045E6D9A4
:101090004FF0FF35E7E7AEF1610CBCF1190F03D853
:1010A000AEF1570C6345EEDC6B1C0BD004B1404233
:1010B0000AB165B91160BDE8F087D445D0DD4FF0C5
:1010C000FF35D0E722233B602846002AF3D0711E6B
:1010D000F0E796F800E00124AE1CA7E7BEF1300F60
:1010E00011D04FF00F0A6FF070489946B4E733788B
:1010F00003F0DF03582B0BD008234FF0070A6FF0E3
:1011000060489946A8E7307800F0DF005828E8D119
:101110004FF0100996F801E04FF00F0A02366FF019
:1011200070484B4698E700BF699901089999991949
:1011300064E700BF10B4044C8446134620685DF891
:10114000044B0A46614659E70000002010B4044CE5
:101150008446134620685DF8044B0A4661464DE715
:101160000000002070B50F4B0F4DAB42A3EB0506FE
:1011700007D0B610002455F8043B01349847A64226
:10118000F9D818F0D3FB094D094B5E1BAB424FEA6F
:10119000A60606D0002455F8043B01349847A64221
:1011A000F9D870BD90AD010890AD010890AD01086F
:1011B000A4AD010810B4044C03460A4620685DF84B
:1011C000044B194600F0DAB80000002008B50620EC
:1011D00001F0ACFC012008F07FFE00BF0000000021
:1011E00000000000000000000000000000000000FF
:1011F00000000000000000000000000000000000EF
:1012000030B490F800F020F007016FF0000C10F0FF
:10121000070491F820F040F048804FF000046FF090
:101220000700D1E9002391F840F000F1080082FAAC
:101230004CF2A4FA8CF283FA4CF3A2FA8CF34BBB77
:10124000D1E9022382FA4CF200F10800A4FA8CF2F0
:1012500083FA4CF3A2FA8CF3E3B9D1E9042382FABE
:101260004CF200F10800A4FA8CF283FA4CF3A2FAD3
:101270008CF37BB9D1E9062301F1200182FA4CF20B
:1012800000F10800A4FA8CF283FA4CF3A2FA8CF372
:10129000002BC6D0002A04BF04301A4612BAB2FA94
:1012A00082F200EBD20030BC7047D1E9002304F099
:1012B0000305C4F100004FEAC50514F0040F91F8CE
:1012C00040F00CFA05F562EA05021CBF63EA05036B
:1012D00062464FF00004AAE7830730B547D0541E9A
:1012E000002A3ED0CAB2034601E0013C39D303F8DC
:1012F000012B9D07F9D1032C2CD9CDB205EB052587
:101300000F2C05EB054535D9A4F1100222F00F0C86
:1013100003F1100EE6444FEA121C1A46C2E90055CA
:10132000C2E9025510327245F8D10CF1010214F0F5
:101330000C0F03EB021204F00F0C13D0ACF10403FA
:1013400023F003030433134442F8045B9342FBD1BC
:101350000CF003042CB1C9B21C4403F8011BA342D6
:10136000FBD130BD64461346002CF4D1F9E70346A7
:101370001446C0E71A46A446E0E700BF70B5A1FBDB
:10138000025454B9294600F043F8064618B12A46DB
:101390002146FFF7A1FF304670BD0C2202600026F7
:1013A000F9E700BF014B1868704700BF000000203C
:1013B00010B4044C03460A4620685DF8044B1946F5
:1013C00000F01EBB0000002070B5104E33680546CB
:1013D0000C46B3B12146284601F07AF9431C0CD0E3
:1013E000C41C24F00304A04205D0211A284601F0B1
:1013F0006FF9013001D0204670BD4FF0FF34204618
:1014000070BD194601F064F93060E3E79C070020E5
:101410002DE9F843CD1C25F0030508350C2D38BF08
:101420000C25002D064618DBA94216D8DFF8DC8013
:1014300000F0ECFCD8F80420A2B1144603E0636885
:1014400022467BB11C4623685B1BF8D40B2B1FD8AC
:101450009442636854D053600CE00C233360002046
:10146000BDE8F88329463046FFF7AEFF431C04462B
:1014700019D00560304600F0CBFC04F10B00231DB1
:1014800020F00700C21A1CBF1B1AA350BDE8F88346
:1014900061199442256014BF5160C8F8041063516B
:1014A00063684B60E6E7D8F804701FB33C467F687A
:1014B000002FFBD123683946304604EB030901F0C5
:1014C00007F9814516D12368ED1A29463046FFF702
:1014D0007BFF01300ED02368D8F804202B44236012
:1014E000536883B1A34203D01A465B689C42FBD188
:1014F0000023B0E70C233360304600F089FCAEE7F0
:10150000C8F80430B6E7C8F80470B3E79C070020B9
:10151000002950D038B551F8043C0C1F002BB8BF3F
:10152000E418054600F072FC274A13682BB1A34269
:101530000CD92168601883422CD06360284614605F
:10154000BDE8384000F064BCA3420FD81A465B687F
:10155000002BF9D111685018844217D02CD3636046
:1015600054602846BDE8384000F052BC116850185D
:10157000A04214D020D8216860188342EFD11868A7
:101580005B680844C4E900035460EAE723680B443D
:101590001360E6E718685B6808442060CDE72068C0
:1015A0000144501883421160DBD1D3E900040144A7
:1015B000C2E90014D5E770470C232B602846BDE82C
:1015C000384000F025BC00BFA007002088420ED99B
:1015D0008B1883420BD900EB020C002A6ED06246B6
:1015E00013F801CD02F801CD9942F9D170470F2AC5
:1015F0000FD8034602F1FF3C002A5FD00CF1010C2A
:10160000013B8C4411F8012B03F8012F6145F9D1FE
:10161000704740EA01039B0751D1A2F1100370B556
:1016200001F1200C23F00F0501F1100E00F1100460
:10163000AC441B095EF8105C44F8105C5EF80C5C6E
:1016400044F80C5C5EF8085C44F8085C5EF8045CE6
:1016500044F8045C0EF1100EE64504F11004E9D1E3
:10166000013312F00C0F01EB031102F00F0400EB39
:10167000031328D0043C24F003064FEA940C1E44C4
:101680001C1F8E465EF8045B44F8045FB442F9D137
:101690000CF1010402F0030203EB840301EB84016B
:1016A00002F1FF3C4AB10CF1010C013B8C4411F8F2
:1016B000012B03F8012F6145F9D170BD704702F18C
:1016C000FF3C03469AE72246EAE700BF000000001D
:1016D00001F0FF01102A2BDB10F0070F08D010F8E3
:1016E000013B013A8B422DD010F0070F42B3F6D1E7
:1016F000F0B441EA012141EA014122F007047FF000
:1017000000070023F0E80256083C85EA010586EA56
:10171000010685FA47F5A3FA87F586FA47F6A5FA92
:1017200087F68EB9EED1F0BC01F0FF0102F007029E
:1017300032B110F8013B013A83EA010313B1F8D149
:101740000020704701387047002D06BF354603382A
:10175000073815F0010F07D1013015F4807F02BF63
:10176000013015F4C03F0130F0BC0138704700BFB4
:10177000844641EA000313F003036DD1403A41D39C
:1017800051F8043B40F8043B51F8043B40F8043B5B
:1017900051F8043B40F8043B51F8043B40F8043B4B
:1017A00051F8043B40F8043B51F8043B40F8043B3B
:1017B00051F8043B40F8043B51F8043B40F8043B2B
:1017C00051F8043B40F8043B51F8043B40F8043B1B
:1017D00051F8043B40F8043B51F8043B40F8043B0B
:1017E00051F8043B40F8043B51F8043B40F8043BFB
:1017F00051F8043B40F8043B51F8043B40F8043BEB
:10180000403ABDD2303211D351F8043B40F8043B8A
:1018100051F8043B40F8043B51F8043B40F8043BCA
:1018200051F8043B40F8043B103AEDD20C3205D39A
:1018300051F8043B40F8043B043AF9D2043208D092
:10184000D2071CBF11F8013B00F8013B01D30B8804
:1018500003806046704700BF082A13D38B078DD0E2
:1018600010F003038AD0C3F10403D21ADB071CBFB4
:1018700011F8013B00F8013B80D331F8023B20F81E
:10188000023B7BE7043AD9D3013A11F8013B00F857
:10189000013BF9D20B7803704B7843708B788370DF
:1018A00060467047024B01461868FFF7B1BD00BFA4
:1018B00000000020024B01461868FFF729BE00BF58
:1018C0000000002040EA01039B0710B501D1032A64
:1018D00017D8844601F1FF3E07E01EF8011F03F808
:1018E000011B541E29B19C4622466346002AF4D1AE
:1018F00010BD9444002CFBD003F8011B6345FBD1C1
:1019000010BD8E468446DEF80040A4F1013323EA80
:10191000040313F0803F71460EF1040EDAD1043A4D
:10192000032A4CF8044BEED87146D3E70CB400B54B
:1019300083B004AB53F8042B019300F031FD03B0E6
:101940005DF804EB02B070470EB410B583B005AB80
:10195000064C53F8042B01930146206800F020FD4B
:1019600003B0BDE8104003B0704700BF0000002086
:101970002DE9F047DFF8749007460E46904600F0D8
:10198000A3FED9F800504DB133781C466BB13446F4
:1019900002E014F8013F3BB13D2BFAD1384600F08C
:1019A00095FE0020BDE8F087A41B28680028F5D02C
:1019B0002246314600F02EFA28B92868035D3D2BF7
:1019C00000EB040A04D055F8040F0028F0D1E5E735
:1019D000D9F80030EB1A9B103846C8F8003000F0F8
:1019E00075FE0AF10100BDE8F08700BF9C000020F1
:1019F00000B583B001AAFFF7BBFF03B05DF804FB9D
:101A00002DE9F041144641B30AB306460D4600F0F5
:101A100071FE8442074602D8B4EB500F13D821461A
:101A20003046FFF7F5FC804650B1BC4222462946BD
:101A300028BF3A46FFF79CFE29463046FFF768FD6F
:101A40004046BDE8F081A8464046BDE8F081A0468A
:101A5000FFF75EFD4046BDE8F081BDE8F04111466C
:101A6000FFF7D6BC2DE9F84F92461F460A698B68EE
:101A7000DDF828909A42B8BF1A46CAF8002091F8BB
:101A800043300C46064613B10132CAF800202268E2
:101A900091065FD5DAF800300233CAF800302268C8
:101AA00012F0060F11461DD1E1689942D8BF1146C8
:101AB00018DD4FF0000804F1190B05E0E568DAF8CD
:101AC0000030ED1A45450CDD01235A4639463046B3
:101AD000C847013008F10108F0D14FF0FF30BDE8F0
:101AE000F88F216894F84330003B18BF01238A0621
:101AF0000AD5E1185A1C302081F84300224494F89A
:101B0000451082F84310023304F14302394630464F
:101B1000C8470130E1D02368DAF80050216903F0AA
:101B20000603042BD4E902201BD08A4220DD4FF0AB
:101B30000008521A90441A34002501E0454517DA8E
:101B40000123224639463046C847013005F10105D8
:101B5000F4D1C2E712F0060F0DD0003B18BF0123ED
:101B6000D2E7401B8A4220EAE078E2DC0028E2DC8F
:101B70000020BDE8F88FE168DAF800309942D8BF5C
:101B8000114696DCAEE700BF2DE9F047174684B05A
:101B90000A7E0C9D0C460646984601F1430C002A2D
:101BA00035D0A2F15803D9B2202969D8202B67D8A3
:101BB000DFE813F0E6006600660066006600660077
:101BC00066006600660066006600AC007000660095
:101BD00066006600660070006600660066006600CB
:101BE00021008300C60066006600B6006600830020
:101BF00066006600EC002B6822686169181D286089
:101C000010061B6802D4520600F1E0801960002320
:101C1000E1462361CDF800803B4603AA21463046C9
:101C2000FFF720FF013020D023694A46394630466D
:101C3000C047013019D02368E068DDF80C909B079D
:101C400018D5484516DD002504F1190A04E0E068BE
:101C5000A0EB0903AB420DDD012352463946304665
:101C6000C047013005F10105F1D14FF0FF3004B05C
:101C7000BDE8F0874845B8BF484604B0BDE8F087E6
:101C800084F84220012004F142090023206184F8F5
:101C90004330BFE72A682368111D1806296002D463
:101CA000590600F195801068014600286268C0F26C
:101CB000938054484FF00A0E15E020682B6810F00E
:101CC000800F53F8041B02D1400648BF89B26F2A27
:101CD0004C482B6014BF4FF00A0E4FF0080E002343
:101CE000626884F84330002AA26051DB236823F045
:101CF0000403236000294BD1002A7BD1E146BEF1C9
:101D0000080F56D0ACEB0903236183E72B681A68F0
:101D100004332B6004F1420984F842200120B4E727
:101D20002B686268191D2960D3F80090002148468D
:101D3000FFF7CEFC002863D0A0EB09006060A4E7A9
:101D4000236843F02003236078222F4884F845203D
:101D50002A6813F0800F52F8041B03D113F0400FD0
:101D600018BF89B22A60DA0744BF43F0200323601A
:101D700019B9236823F0200323604FF0100EAEE75B
:101D8000582384F845301F482368E1E72368DBE7E0
:101D90007546E146B1FBF5F305FB131A0A46AA4264
:101DA00010F80A1009F8011D1946F3D2BEF1080F08
:101DB000A8D12368DD07A5D5626823699A42A1DC12
:101DC000302309F8013C09F1FF399BE719801EE730
:101DD000B2F90010084668E72D20002AA26084F8B6
:101DE000430002DB23F0040323600A25054849422F
:101DF000AE46CEE7037884F8423004F142097EE72C
:101E0000606842E7D0A40108E4A40108704700BF5D
:101E1000704700BF002A3ED030B5844604460843D0
:101E200080070B462ED1032A07D82BE0043A25D091
:101E30001EF0803F22D1032A22D92068194653F888
:101E4000045BA0F1013EA842A4462EEA000E04F174
:101E50000404EBD09CF800000C7884421DD1E646C7
:101E600068B11EF8010F11F8014FA2EB0E03A0425A
:101E700003F1FF3311D11CEB0303F1D1002030BD7E
:101E8000A44619469CF800000C78A04205D1012A0E
:101E9000F4D0E646E4E710467047001B30BD00BFB3
:101EA00002780B78012A28BF9A4240F0D8806DE969
:101EB000044540EA0104CDE902676FF0000C4FEAE7
:101EC00044721AB380EA010414F0070F6BD100F0DA
:101ED000070420F0070004F0030521F007014FEA92
:101EE000C505F0E8042314F0040FF1E804670CFAC8
:101EF00005F462EA040266EA04060BD063EA04030E
:101F0000624667EA0407664604E000BFF0E804237F
:101F1000F1E8046782FA4CF582EA0604A4FA8CF42C
:101F20006CBB83FA4CF583EA0705A5FA8CF595B9E5
:101F300050E9022351E9026782FA4CF582EA06046D
:101F4000A4FA8CF483FA4CF583EA0705A5FA8CF51C
:101F50002543DBD09CB92DBAB5FA85F424F00704EB
:101F600027FA04F1DDE9026723FA04F303F0FF0026
:101F700001F0FF01FDE80445A0EB0100704724BA21
:101F8000B4FA84F424F0070426FA04F1DDE90267C8
:101F900022FA04F202F0FF0001F0FF01FDE804451F
:101FA000A0EB0100704714F0030F3CD110F00304C4
:101FB00028D150F8082B51F8083B82FA4CF582EAF8
:101FC0000305A5FA8CF55DB950F8042C51F8043CD2
:101FD00082FA4CF582EA0305A5FA8CF5002DE8D0CB
:101FE0002DBAB5FA85F424F0070423FA04F122FA95
:101FF00004F202F0FF0001F0FF01FDE80445A0EB50
:10200000010070474FEAC40420F0030050F8082B89
:1020100021F0030151F8083B0CFA04F462EA0402CF
:1020200063EA0403C9E710F003041DD0A1EB040127
:1020300020F00300E40750F8042B06D012D28B786E
:102040005FFAA2F4E41A06D12BB1CB785FFAB2F4AE
:10205000E41A00D133B920465DF8104B7047A2EB6B
:102060000300704701F1040150F8042BCC0721F064
:10207000030151F8043B48D824D222F07F4482FA6D
:102080004CF594EA1325A5FA8CF50AD165B951F8F7
:10209000043B84EA0204B4EB036F0ED150F8042B26
:1020A000EBE74FEA132355E035F07F454DD1087833
:1020B000FDE80445C0F1000070474FEA126203F0EA
:1020C000FF0347E002EA1C4482FA4CF594EA134508
:1020D000A5FA8CF50AD165B951F8043B84EA0204EB
:1020E000B4EB034F0CD150F8042BEBE74FEA13434A
:1020F00030E015EA1C4528D10B884FEA124229E04E
:102100004FEA124203EA1C4324E002F0FF0482FA81
:102110004CF594EA1365A5FA8CF50AD165B951F826
:10212000043B84EA0204B4EB032F09D150F8042BDA
:10213000EBE74FEA13630DE015F0FF0F05D10B68D5
:102140004FEA122223F07F4304E04FF00000FDE845
:102150000445704712BA1BBA82FA4CF482EA0304AF
:10216000A4FA8CF5B5FA85F402FA04F203FA04F342
:102170004FEA1260FDE80445A0EB1360704700BF12
:1021800008B410B5002A9DB0044636DB4FF4027344
:10219000ADF814304FF000031B930291069120AB71
:1021A00017D0013A4FF6FF7104920792ADF816105E
:1021B0001F9A019302A9FEF705FE421C01DA8B2348
:1021C0002360029B00221A701DB0BDE8104001B0D0
:1021D00070474FF6FF7104920792ADF816101F9AE0
:1021E000019302A9FEF7EEFD431C01DA8B23236065
:1021F0001DB0BDE8104001B070478B2303604FF065
:10220000FF30F5E70CB410B5214B00291C689CB0D9
:1022100038DB4FF000034FF402721B93ADF814202B
:10222000029006901FAB18D001394FF6FF7204914F
:102230000791ADF8162002A91E9A01932046FEF7D9
:10224000C1FD421C01DA8B232360029B00221A701D
:102250001CB0BDE8104002B070474FF6FF72049109
:102260000791ADF8162002A91E9A01932046FEF7A9
:10227000A9FD431C01DA8B2323601CB0BDE810408C
:1022800002B070478B2323604FF0FF30F5E700BFAB
:1022900000000020032A30B415D941EA0004A40745
:1022A00084460B4604D0541E0FE0043A032A08D992
:1022B0001946604653F8044B5CF8045BA542F4D021
:1022C000F1E760461946541E7AB1431E01390219DE
:1022D00001E09A4209D013F8010F11F801CF6045CF
:1022E000F7D0A0EB0C0030BC7047002030BC70472A
:1022F00071B1034600EB010C01E0634506D01A46BC
:10230000013311780029F8D1101A7047181A704754
:10231000084670479368013B002B936011DA10B4B4
:102320009469A34209DB0A2907D01368581C10607E
:10233000197008465DF8044B70475DF8044B00F0D7
:1023400073B91368581C106019700846704700BFB5
:102350009BB1F8B5134406460F46541E5D1E01E0BE
:10236000AC4208D014F8011F3A463046FFF7D2FFBE
:10237000431CF5D1F8BD0020F8BD0020704700BF18
:10238000936810B514461BB918460023636010BD4E
:1023900000F0B8F90023A3600023636010BD00BF04
:1023A0002DE9F04FA1B08B4691461C46049018B120
:1023B000036A002B00F01C81BBF80C30180740F1B9
:1023C0009580DBF81030002B00F090800023CA4687
:1023D0000D9343F22003ADF839309AF80030864E61
:1023E00007940127002B79D0D14604E019F8013F6A
:1023F000002B00F08580252BF8D1B9EB0A0840F0BE
:10240000828099F80030002B68D000234FF0FF3213
:10241000CDE9092309F1010908930B938DF8633085
:102420001E9305E0089A07FA03F31A430892A1469F
:102430004C46052214F8011B3046FFF749F9A24625
:10244000831B0028EED1089BD90644BF20228DF8BB
:10245000632099F800101A0744BF2B228DF86320DF
:102460002A2966D1079A1168043200290792C0F21E
:102470009A800B9199F801102E2970D05F4C03229D
:102480002046FFF725F938B1089B001B4022824007
:1024900013430AF1010A08931AF8011B58488DF8F2
:1024A00038100622FFF714F9002800F08280554BFF
:1024B000002B69D007AA0092534B04985A4608A9EA
:1024C000AFF300800390039B013307D00D9B039A69
:1024D00013440D939AF80030002B85D1BBF80C30D3
:1024E0005B060AD40D9821B0BDE8F08F04985946D8
:1024F00000F0C0FD00283FF469AF4FF0FF30F2E775
:10250000B9EB0A08EAD00AF1FF35CDF81490A946D4
:10251000049D01E0A0453ED94C465A4619F8011FDA
:102520002846FFF7F7FE02340130A4EB0A04F1D18C
:10253000D4E7A1F13002092A88BFCA469CD80B9B78
:1025400000E00134217803EB830302EB4303A1F1A4
:102550003002092AF5D92E290B93A2468ED19AF87A
:1025600001102A292FD1079B9AF802101A680992A4
:102570000433002A0AF102000793B8BF4FF0FF337B
:102580008246B8BF099379E7079B073323F0070317
:10259000083307939AE70D99DDF81490414499F8B0
:1025A00000300D912FE7494243F002030B9108934D
:1025B00060E707AA0092144B04985A4608A9FFF74F
:1025C000E3FA03907FE7A1F130020023092A09937F
:1025D0000AF1010A3FF652AF1AF8011F03EB830319
:1025E00002EB4303A1F13002092AF5D9099345E72B
:1025F00000F022FCE0E600BFBCA40108C4A401086E
:10260000C8A40108000000005123000810B4054CC4
:102610008446134620685DF8044B0A466146FFF77E
:10262000BFBE00BF00000020F8B50D4614460646A8
:1026300010B1036A002B37D0A389A269A2601A07E0
:1026400019D52369BBB122686169D31AEDB29942E9
:102650002F4620DD0133A1680139A160511C2160A2
:10266000157062699A420DD0A389DB0701D50A2D46
:1026700008D03846F8BD2146304600F0FBFC38B99A
:102680002369E0E72146304600F090FC0028F0D0B6
:102690004FF0FF37EDE72146304600F087FC002879
:1026A000F6D122680123D6E700F0C6FBC4E700BFDD
:1026B00010B4044C03460A4620685DF8044B1946E2
:1026C000FFF7B2BF00000020704700BF704700BF97
:1026D00038B5074D0022044608462A6007F0CEFBB5
:1026E000431C00D038BD2B68002BFBD0236038BDC5
:1026F000E008002051F8043C181F002BBCBF0B5809
:10270000C01870479368002B00F0F8802DE9F04F57
:10271000B1F90CC01CF0080F83B0904681460C46FE
:1027200031D00B697BB31CF00207D8F8006038D0B9
:102730000027D4F828B0216ADFF8C4A23D465545E9
:102740002B463A4628BF53464846C5B1D8470028CD
:1027500040F3CA80D8F808301B1A07442D1AC8F86D
:102760000830002B00F0B68055452B46D4F828B031
:10277000216A28BF53463A464846002DE6D1D6E99D
:1027800000750836DBE72146484600F073FC002858
:1027900040F0AF80B4F90CC0D8F800601CF002071C
:1027A000C6D11CF0010A63D12368A16857461846B8
:1027B0008B46002F58D01CF4007F00F0B580B94242
:1027C0000A4600F2E1801CF4906F2FD02169626903
:1027D0005D1A02EB420202EBD2726B1C52103B44B8
:1027E000934292BF93469B461A461CF4806F00F0BA
:1027F000EA8011464846FEF70BFE002800F0F980FB
:102800002A4621690090FEF7B3FFA289009B22F4BB
:10281000906242F08002A2815819ABEB0505C4F822
:1028200014B02361A5602060BB463A465146009231
:10283000FEF7CCFEA1682368009AA1EB0B011A44B5
:102840003D46A16022600027D8F808305B1BAA44EF
:10285000C8F80830002B3DD02368A168B4F90CC03B
:1028600018468B46002FA6D1D6E900A708369EE76A
:102870003846BB463D460097002D41D0002846D043
:10288000009A2068A168D4E90473AA4228BF2A46A6
:10289000B84204D901EB030A524500F38580934204
:1028A00075DC216AA76A5A464846B847B0F1000A63
:1028B0001ADD009BB3EB0A0300930FD00120D8F878
:1028C0000830A3EB0A03D344A5EB0A05C8F8083087
:1028D000002BD1D1002003B0BDE8F08F214648463F
:1028E00000F064FB0028EAD0B4F90C3043F0400358
:1028F000A3814FF0FF3003B0BDE8F08F0020704798
:10290000756833460836002DFAD0D3F800B02A4651
:102910000A215846FEF7DCFE002867D00130A0EB04
:102920000B0300931A46ACE722699A4214D36269FA
:10293000BA4211D86FF00043BB4228BF3B46A56A9C
:1029400093FBF2F3216A02FB03F348465246A84781
:10295000051EC9DD7F1B77E7B94228BF39460D4602
:1029600018460A465146FEF731FEA1682368491B06
:102970002B44A16023600029ECD12146484600F099
:1029800015FB0028E6D0AFE7BB463A464EE759466E
:102990000192FEF71BFE019AA3689B1AA3602368AD
:1029A00013442360924684E759465246FEF70EFED2
:1029B0002368534423602146484600F0F7FA002874
:1029C0003FF477AF90E74846FFF71AF80346002830
:1029D0007FF422AF21694846FEF79AFDB4F90C3026
:1029E0000C22C9F8002023F080037FE76A1C0092C4
:1029F00047E70C22B4F90C30C9F8002076E700BF95
:102A000000FCFF7F38B5C46B0CB1002038BD8021BD
:102A10000546FEF7FDFC0246E86330B1031F7C3239
:102A200043F8044F9342FBD1EFE74FF0FF3038BD3E
:102A300030B51F2983B0054608D8C36B0C4653B187
:102A400053F8240043F8242003B030BD162303605C
:102A50004FF0FF30F8E780210192FEF7D9FC019A90
:102A6000E86303460028F3D0011F00F17C05002035
:102A700041F8040FA942FBD1E2E700BF1F2938B596
:102A800005461ED8C26B0C466AB152F8213053B1CC
:102A9000012B06D0591C10D0002142F824102046EA
:102AA0009847002038BD284600F042FC22460146E7
:102AB0002846BDE8384000F025BC162303600120FD
:102AC00038BD162303604FF0FF3038BD1F292AD8C8
:102AD00038B5C36B0C460546A3B153F8242003EB6D
:102AE00084034AB1511C0BD0012A07D0002520468F
:102AF0001D609047284638BD012038BD032038BDF1
:102B0000022038BD8021FEF783FC0346E86338B11C
:102B1000021F00217C3042F8041F8242FBD1DCE717
:102B20004FF0FF3038BD4FF0FF30704738B5134BD2
:102B30001F281D681DD8EA6B044662B152F8203088
:102B40004BB1012B05D0591C0FD0002142F82010A9
:102B50009847002038BD284600F0EAFB224601468F
:102B60002846BDE8384000F0CDBB16232B6001207D
:102B700038BD16232B604FF0FF3038BD0000002019
:102B8000114B1F2870B51E6808D8F36B04460D461C
:102B90004BB153F8240043F8245070BD1623336022
:102BA0004FF0FF3070BD80213046FEF731FC034608
:102BB000F0630028F4D0021F00217C3042F8041F8B
:102BC0008242FBD1E5E700BF0000002038B50B4B87
:102BD0001D68EC6B0CB1002038BD80212846FEF743
:102BE00017FCE86338B1031F00F17C0243F8044F7F
:102BF0009342FBD1EFE74FF0FF3038BD00000020DB
:102C000038B5174B1F281D6826D80446E86BA0B1BD
:102C100050F8243000EB84004BB15A1C0BD0012B30
:102C200007D00025056020469847284638BD01207A
:102C300038BD032038BD022038BD80212846FEF76C
:102C4000E7FBE86340B1031F00F17C01002243F879
:102C5000042F8B42FBD1DBE74FF0FF3038BD00BFC4
:102C60000000002000207047024A0349034800F09A
:102C7000DFB900BF50000020AD2F00080400002085
:102C80000C4B4168994210B5044601D000F08EF912
:102C9000A168094B994202D0204600F087F9E1680B
:102CA000064B994204D02046BDE8104000F07EB9A2
:102CB00010BD00BFA40700200C08002074080020ED
:102CC000002070472DE9F8432A4C2B49DFF8BC90CF
:102CD000DFF8BC80294FC4F83811002504230822EE
:102CE000294604F15C00264EE360C4E90055C4E9BE
:102CF0000455A5606566A561FEF7EEFA214B636792
:102D00000822294604F1C400C4E90849C4E90A8735
:102D1000C4E91A55C4E91E552567C4F8CC50C4F857
:102D200080502663FEF7D8FA174BC4F8DC302946EA
:102D300004F16803082204F59670C4F88830C4E9E9
:102D40002398C4E92576C4E93455C4E93855C4F854
:102D5000D850C4F83451C4F8E850FEF7BDFA04F175
:102D6000D003C4E93D98C4E93F76C4F8F030BDE82B
:102D7000F88300BFA4070020692C0008D93200089E
:102D8000FD32000809000100120002007132000843
:102D900099320008F8B5254BD3F838310646002B98
:102DA0003CD0234FD7E90134013B04D51DE05A1C28
:102DB00004F1680419D0B4F90C50013B002DF6D190
:102DC0001C4BE360C4E90155C4E904556566256000
:102DD000A5610822294604F15C00FEF77DFAC4E9EA
:102DE0000D55C4E912552046F8BD3D680DB12F467A
:102DF000D8E74FF4D6713046FEF70AFB044680B19F
:102E00000423C0E900530C302946A0604FF4D0726F
:102E10002546FEF761FA3C602F46C3E7FFF752FFF5
:102E2000BFE70C2338603360DDE700BFA407002054
:102E3000500000200100FFFF036A03B17047044BFC
:102E4000044AD3F838310262002BF7D13AE700BFC9
:102E5000A4070020812C0008704700BF704700BF06
:102E6000024A0349002000F0E3B800BF50000020F0
:102E7000652C0008024A0349002000F0D9B800BFC1
:102E800050000020C12C0008B1F90C302DE9F041B0
:102E90001E070C4680463DD44A68002A56DDE56A86
:102EA000002D34D00022D8F80060C8F8002013F4B8
:102EB0008052216A57D101234046A847451C02464B
:102EC00066D0B4F90C30E56A216A580705D5636805
:102ED000D21A636B0BB1236CD21A00234046A84769
:102EE000431C42D00023636023692360A389DF046D
:102EF00000D56065616BC8F8006041B104F144031E
:102F0000994202D04046FEF703FB00236363002092
:102F1000BDE8F0810E69002EF9D09B070D6808BF4F
:102F20004B690E6018BF0023AD1B8B600BE02B4676
:102F30003246216AA76A4046B847B0F1000CA5EBBB
:102F40000C05664406DD002DF1DCE0E70A6C002A82
:102F5000A5DCDCE7B4F90C3043F04003A3814FF06B
:102F6000FF30BDE8F081626DAFE7D8F80010B4F92A
:102F70000C301D29F0D80C4ACA40D507ECD522697F
:102F8000226000226260DA04B4D50029B1D0B1E732
:102F9000D8F80030002B94D01D2B01D0162BD9D19E
:102FA000C8F80060B3E700BF010040200B69B3B16F
:102FB00010B5044682B008B1036A5BB1B1F90C30B8
:102FC00013B9002002B010BD204602B0BDE8104089
:102FD000FFF75ABF0191FFF72FFF0199EEE700209D
:102FE000704700BFB8B138B50D4A0369156804468B
:102FF0002BB10DB12B6A53B1B4F90C300BB90020D1
:1030000038BD21462846BDE83840FFF73DBF284679
:10301000FFF712FFF0E7034A0349044800F008B83D
:103020000000002050000020AD2F00080400002008
:103030002DE9F8430746884616464FF00009D6E9C1
:103040000154013D10D4A389012B08D9B4F90E30E5
:1030500001332146384602D0C04749EA0009013D04
:103060006B1C04F16804EED13668002EE7D14846A7
:10307000BDE8F88338B52F4B1B6805460C4613B1E5
:103080001A6A002A4BD0B4F90C3018071CD52269F3
:1030900022B313F0010107D0616900204942A0600A
:1030A000A1613AB1002038BD980758BF6169A1609D
:1030B000002AF7D1190658BF1046F4D543F0400353
:1030C000A3814FF0FF3038BDD9062CD55A0712D452
:1030D000226943F00803A381002ADAD103F42071A6
:1030E000B1F5007FD5D02146284600F025F8B4F987
:1030F0000C302269CDE7616B51B104F14402914279
:1031000004D02846FEF704FAB4F90C3000226263BA
:1031100022690021C4E9002123F02403D9E71846DD
:10312000FFF78AFEAFE7092243F040032A60A3813C
:10313000C7E700BF0000002070B5B1F90C300C46A5
:10314000990796B007D504F147030122C4E9043278
:10315000236016B070BDB4F90E100029054629DBB6
:103160006A4600F00FF9002822DB4FF48061284600
:10317000019EFEF74DF988B3A389206043F08003D8
:1031800006F47046A381B6F5005F4FF48063C4E98E
:103190000403DED1B4F90E10284600F057F80028D9
:1031A000D7D0A38923F0030343F00103A381D0E721
:1031B000B4F90C3013F0800F14BF40264FF4806632
:1031C00031462846FEF724F940B1A389206043F038
:1031D0008003C4E90406A38116B070BDB4F90C30B5
:1031E0009A05B6D423F0030304F1470243F0020327
:1031F0000121C4E90421A3812260AAE770B50C462D
:10320000B1F90E10002996B015461E460FDB6A462E
:1032100000F0B8F800280ADB019B03F47043A3F523
:103220000053B3FA83F34FF480625B0908E0A2898C
:1032300012F0800F4FF0000314BF40224FF4806261
:10324000002033602A6016B070BD00BF38B5074D4E
:103250000022044608462A6006F06AFE431C00D09D
:1032600038BD2B68002BFBD0236038BDE008002060
:1032700010B50C46B1F90E1000F06EF8002803DB13
:10328000636D0344636510BDA38923F48053A38158
:1032900010BD00BF002070472DE9F0410C46B1F988
:1032A0000C101F46CB05054616460BD421F4805161
:1032B000A1813B46B4F90E1032462846BDE8F041E4
:1032C00000F08CB8B4F90E100223002200F070F860
:1032D000B4F90C10EAE700BF10B50C46B1F90E10B6
:1032E00000F066F8B4F90C30421C0EBF23F4805392
:1032F00043F480536065A38110BD00BFB1F90E1087
:1033000000F018B870B50C46084D0346002620465C
:1033100011461C462E6006F0D7FD431C00D070BD40
:103320002B68002BFBD0236070BD00BFE00800209D
:1033300006F0C8BD38B5074D0022044608462A608D
:1033400006F0EEFD431C00D038BD2B68002BFBD0EF
:10335000236038BDE008002038B50C46084D84468F
:10336000114620461A4600232B60644606F0BAFD3B
:10337000431C00D038BD2B68002BFBD0236038BD28
:10338000E008002070B50C46084D03460026204694
:1033900011461C462E6006F0C6FD431C00D070BDD1
:1033A0002B68002BFBD0236070BD00BFE00800201D
:1033B00038B50C46084D8446114620461A4600236F
:1033C0002B60644606F0B6FD431C00D038BD2B6868
:1033D000002BFBD0236038BDE008002038B50C4638
:1033E000084D8446114620461A4600232B60644649
:1033F00006F088FD431C00D038BD2B68002BFBD0A5
:10340000236038BDE008002081F0004102E000BFE9
:1034100083F0004330B54FEA41044FEA430594EA94
:10342000050F08BF90EA020F1FBF54EA000C55EACF
:10343000020C7FEA645C7FEA655C00F0E2804FEAA0
:103440005454D4EB5555B8BF6D420CDD2C4480EA82
:10345000020281EA030382EA000083EA010180EAB2
:10346000020281EA0303362D88BF30BD11F0004F00
:103470004FEA01314FF4801C4CEA113102D0404236
:1034800061EB410113F0004F4FEA03334CEA133371
:1034900002D0524263EB430394EA050F00F0A78089
:1034A000A4F10104D5F1200E0DDB02FA0EFC22FA84
:1034B00005F2801841F1000103FA0EF2801843FA78
:1034C00005F359410EE0A5F120050EF1200E012A69
:1034D00003FA0EFC28BF4CF0020C43FA05F3C018A7
:1034E00051EBE37101F0004507D54FF0000EDCF120
:1034F000000C7EEB00006EEB0101B1F5801F1BD3C9
:10350000B1F5001F0CD349085FEA30004FEA3C0CCC
:1035100004F101044FEA445212F5800F80F09A80C2
:10352000BCF1004F08BF5FEA500C50F1000041EBC6
:10353000045141EA050130BD5FEA4C0C404141EBCA
:103540000101013C28BFB1F5801FE9D291F0000FC5
:1035500004BF01460020B1FA81F308BF2033A3F174
:103560000B03B3F120020CDA0C3208DD02F1140C6B
:10357000C2F10C0201FA0CF021FA02F10CE002F1A6
:103580001402D8BFC2F1200C01FA02F120FA0CFC9F
:10359000DCBF41EA0C019040E41AA2BF01EB0451E8
:1035A000294330BD6FEA04041F3C1CDA0C340EDCE6
:1035B00004F11404C4F1200220FA04F001FA02F329
:1035C00040EA030021FA04F345EA030130BDC4F1E7
:1035D0000C04C4F1200220FA02F001FA04F340EADC
:1035E0000300294630BD21FA04F0294630BD94F08D
:1035F000000F83F4801306BF81F480110134013D74
:103600004EE77FEA645C18BF7FEA655C29D094EAE4
:10361000050F08BF90EA020F05D054EA000C04BF62
:103620001946104630BD91EA030F1EBF002100204D
:1036300030BD5FEA545C05D14000494128BF41F0EC
:10364000004130BD14F580043CBF01F5801130BD50
:1036500001F0004545F0FE4141F470014FF00000DB
:1036600030BD7FEA645C1ABF194610467FEA655C8C
:103670001CBF0B46024650EA013406BF52EA03352E
:1036800091EA030F41F4002130BD00BF90F0000F1C
:1036900004BF0021704730B54FF4806404F1320458
:1036A0004FF000054FF0000150E700BF90F0000F11
:1036B00004BF0021704730B54FF4806404F1320438
:1036C00010F0004548BF40424FF000013EE700BF08
:1036D00042004FEAE2014FEA31014FEA02701FBF98
:1036E00012F07F4393F07F4F81F06051704732F0CA
:1036F0007F4208BF704793F07F4F04BF41F4002121
:10370000704730B54FF4607401F0004521F000417E
:103710001CE700BF50EA010208BF704730B54FF008
:1037200000050AE050EA010208BF704730B511F009
:10373000004502D5404261EB41014FF4806404F141
:1037400032045FEA915C3FF4D8AE4FF003025FEAC7
:10375000DC0C18BF03325FEADC0C18BF033202EB4B
:10376000DC02C2F1200300FA03FC20FA02F001FAA5
:1037700003FE40EA0E0021FA02F11444BDE600BF48
:1037800070B54FF0FF0C4CF4E06C1CEA11541DBFF7
:103790001CEA135594EA0C0F95EA0C0F00F0DEF8C2
:1037A0002C4481EA030621EA4C5123EA4C5350EAA7
:1037B000013518BF52EA033541F4801143F48013F8
:1037C00038D0A0FB02CE4FF00005E1FB02E506F089
:1037D0000042E0FB03E54FF00006E1FB03569CF0DE
:1037E000000F18BF4EF0010EA4F1FF04B6F5007FE4
:1037F00064F5407404D25FEA4E0E6D4146EB060656
:1038000042EAC62141EA55514FEAC52040EA5E50DE
:103810004FEACE2EB4F1FD0C88BFBCF5E06F1ED888
:10382000BEF1004F08BF5FEA500E50F1000041EBBF
:10383000045170BD06F0004646EA010140EA02006C
:1038400081EA0301B4EB5C04C2BFD4EB0C0541EA8E
:10385000045170BD41F480114FF0000E013C00F3A3
:10386000AB8014F1360FDEBF002001F0004170BDC7
:10387000C4F10004203C35DA0C341BDC04F11404E0
:10388000C4F1200500FA05F320FA04F001FA05F26C
:1038900040EA020001F0004221F0004110EBD37039
:1038A00021FA04F642EB06015EEA430E08BF20EA65
:1038B000D37070BDC4F10C04C4F1200500FA04F308
:1038C00020FA05F001FA04F240EA020001F000419A
:1038D00010EBD37041F100015EEA430E08BF20EA0D
:1038E000D37070BDC4F1200500FA05F24EEA020E55
:1038F00020FA04F301FA05F243EA020321FA04F084
:1039000001F0004121FA04F220EA020000EBD3703A
:103910005EEA430E08BF20EAD37070BD94F0000F3A
:103920000FD101F00046400041EB010111F4801F6E
:1039300008BF013CF7D041EA060195F0000F18BF1F
:10394000704703F00046520043EB030313F4801F5B
:1039500008BF013DF7D043EA0603704794EA0C0F15
:103960000CEA135518BF95EA0C0F0CD050EA41062B
:1039700018BF52EA4306D1D181EA030101F00041A8
:103980004FF0000070BD50EA410606BF10461946D0
:1039900052EA430619D094EA0C0F02D150EA0136DC
:1039A00013D195EA0C0F05D152EA03361CBF10461D
:1039B00019460AD181EA030101F0004141F0FE41BC
:1039C00041F470014FF0000070BD41F0FE4141F440
:1039D000780170BD70B54FF0FF0C4CF4E06C1CEA40
:1039E00011541DBF1CEA135594EA0C0F95EA0C0FF5
:1039F00000F0A7F8A4EB050481EA030E52EA0335B0
:103A00004FEA013100F088804FEA03334FF08055D0
:103A100045EA131343EA12634FEA022245EA1115FD
:103A200045EA10654FEA00260EF000419D4208BFAE
:103A3000964244F1FD0404F5407402D25B084FEA5B
:103A40003202B61A65EB03055B084FEA32024FF407
:103A500080104FF4002CB6EB020E75EB030E22BF64
:103A6000B61A754640EA0C005B084FEA3202B6EB24
:103A7000020E75EB030E22BFB61A754640EA5C00D3
:103A80005B084FEA3202B6EB020E75EB030E22BF63
:103A9000B61A754640EA9C005B084FEA3202B6EB64
:103AA000020E75EB030E22BFB61A754640EADC0023
:103AB00055EA060E18D04FEA051545EA16754FEA85
:103AC00006164FEAC30343EA52734FEAC2025FEAA3
:103AD0001C1CC0D111F4801F0BD141EA00014FF032
:103AE00000004FF0004CB6E711F4801F04BF014303
:103AF0000020B4F1FD0C88BFBCF5E06F3FF6AFAE1F
:103B0000B5EB030C04BFB6EB020C5FEA500C50F1AE
:103B1000000041EB045170BD0EF0004E4EEA113131
:103B200014EB5C04C2BFD4EB0C0541EA045170BD38
:103B300041F480114FF0000E013C90E645EA060E7C
:103B40008DE60CEA135594EA0C0F08BF95EA0C0FAA
:103B50003FF43BAF94EA0C0F0AD150EA01347FF4F2
:103B600034AF95EA0C0F7FF425AF104619462CE7C9
:103B700095EA0C0F06D152EA03353FF4FDAE10462C
:103B8000194622E750EA410618BF52EA43067FF47D
:103B9000C5AE50EA41047FF40DAF52EA43057FF40D
:103BA000EBAE12E74FF0FF3C06E000BF4FF0010C18
:103BB00002E000BF4FF0010C4DF804CD4FEA410C7C
:103BC0007FEA6C5C4FEA430C18BF7FEA6C5C1BD049
:103BD00001B050EA410C0CBF52EA430C91EA030FCA
:103BE00002BF90EA020F0020704710F1000F91EA27
:103BF000030F58BF994208BF90422CBFD8176FEAF5
:103C0000E37040F0010070474FEA410C7FEA6C5CC2
:103C100002D150EA013C07D14FEA430C7FEA6C5CC9
:103C2000D6D152EA033CD3D05DF8040B704700BFF5
:103C30008446104662468C461946634600E000BF43
:103C400001B5FFF7B7FF002848BF10F1000F01BD15
:103C50004DF808EDFFF7F4FF0CBF012000205DF8E0
:103C600008FB00BF4DF808EDFFF7EAFF34BF012065
:103C700000205DF808FB00BF4DF808EDFFF7E0FFFE
:103C800094BF012000205DF808FB00BF4DF808ED4F
:103C9000FFF7CEFF94BF012000205DF808FB00BFB6
:103CA0004DF808EDFFF7C4FF34BF012000205DF898
:103CB00008FB00BF4A0011D212F5001211D20DD537
:103CC0006FF47873B3EB62520ED44FEAC12343F022
:103CD000004343EA505323FA02F070474FF00000CC
:103CE000704750EA013002D14FF0FF3070474FF07B
:103CF000000070474FEA4102B2F1E04324BFB3F540
:103D0000001CDCF1FE5C0DD901F0004C4FEAC00252
:103D10004CEA5070B2F1004F40EB830008BF20F036
:103D20000100704711F0804F21D113F13872BCBFF0
:103D300001F00040704741F480114FEA5252C2F145
:103D40001802C2F1200C10FA0CF320FA02F018BF8E
:103D500040F001004FEAC1234FEAD32303FA0CFCE1
:103D600040EA0C0023FA02F34FEA4303CCE77FEA70
:103D7000625307D150EA01331EBF4FF0FE4040F4BA
:103D80004000704701F0004040F0FE4040F4000069
:103D9000704700BF7BB972B90029BEBF00204FF049
:103DA000004106E008BF00281CBF6FF000414FF043
:103DB000FF3001F085B9ADF1080C6DE904CE0029A2
:103DC00009DB002B1ADB00F04DF8DDF804E0DDE93B
:103DD000022304B07047404261EB4101002B1BDB22
:103DE00000F040F8DDF804E0DDE9022304B04042D1
:103DF00061EB4101524263EB43037047524263EB74
:103E0000430300F02FF8DDF804E0DDE9022304B0FD
:103E1000404261EB41017047524263EB430300F0C3
:103E200021F8DDF804E0DDE9022304B0524263EB3F
:103E30004303704753B94AB9002908BF00281CBF83
:103E40004FF0FF314FF0FF3001F03AB9ADF1080CFF
:103E50006DE904CE00F006F8DDF804E0DDE90223A8
:103E600004B070472DE9F047089D0E4604460F4602
:103E7000002B4AD194468C45B2FA82F260D942B105
:103E8000C2F12003974020FA03F30CFA02FC1F430F
:103E900094404FEA1C4E1FFA8CF6B7FBFEF1230C40
:103EA0000EFB117743EA074301FB06F098420AD95B
:103EB0001CEB030301F1FF3780F01581984240F2BB
:103EC0001281023963441B1AA4B2B3FBFEF00EFB4D
:103ED000103344EA034400FB06F6A6420AD91CEB61
:103EE000040400F1FF3380F00081A64240F2FD801F
:103EF0006444023840EA0140A41B00211DB1D440B3
:103F00000023C5E90043BDE8F0878B4205D90DB118
:103F1000C5E9000100210846F5E7B3FA83F100295D
:103F200046D1B34202D3824200F2F580841A66EB96
:103F3000030201201746002DE5D0C5E90047E2E75E
:103F4000002A40F09380A1EB0C034FEA1C471FFAB4
:103F50008CFE0121B3FBF7F607FB1630230C43EA76
:103F600000430EFB06F0984208D91CEB030306F150
:103F7000FF3802D2984200F2D08046461B1AA4B203
:103F8000B3FBF7F007FB103344EA03440EFB00FEDB
:103F9000A64508D91CEB040400F1FF3302D2A64564
:103FA00000F2B6801846A4EB0E0440EA0640A5E7EE
:103FB000C1F120078B4022FA07FC4CEA030C06FAF9
:103FC00001FE20FA07F426FA07F344EA0E0400FA89
:103FD00001F84FEA1C404FEA1449B3FBF0FE1FFA08
:103FE0008CF600FB1E3349EA03430EFB06F99945A4
:103FF00002FA01F20BD91CEB03030EF1FF3A80F039
:104000008580994540F28280AEF1020E6344A3EBB5
:104010000909A4B2B9FBF0F300FB139944EA09447F
:1040200003FB06F6A64208D91CEB040403F1FF309B
:1040300068D2A64266D9023B644443EA0E40A41B00
:10404000A0FB02E6B4427346B14652D34FD05DB1F5
:10405000B8EB030264EB090404FA07F722FA01F350
:104060001F43CC40C5E9007400214CE7C2F1200198
:1040700020FA01F30CFA02FC26FA01F196403343D0
:104080004FEA1C471FFA8CFEB1FBF7F007FB101636
:10409000190C41EA064100FB0EF68E4204FA02F4C6
:1040A00008D91CEB010100F1FF382DD28E422BD92B
:1040B00002386144891B9BB2B1FBF7F607FB16116E
:1040C00043EA014306FB0EF1994208D91CEB0303B6
:1040D00006F1FF3814D2994212D9023E63445B1AAA
:1040E00046EA004136E73946EDE6184602E7F04574
:1040F000ADD2BEEB020366EB0C060138B146A6E773
:104100004646ECE7034698E74046D3E7D6467EE7C7
:104110006444023847E708460DE7023E63442DE752
:1041200003685A004CBF43F0004323F00043184497
:10413000704700BF2DE9F04759B301F1FF3805463C
:10414000164647464FF0000A0AEB070101EBD17112
:10415000491005EBC1094846FFF7E2FF88454FEAE1
:10416000C104034610D004F10800B342284407D824
:10417000FFF7D6FF0138B04208D201F1010AE3E7A8
:104180008A4506D04F1EDFE7B042F9D84846BDE861
:10419000F0874FF000094846BDE8F087012809D0B4
:1041A000022805D0044B00280CBF18460020704799
:1041B0000248704702487047794800088148000863
:1041C0007D48000830B5224B83B004468D1E43B3B2
:1041D00001A92846AFF30080F0B101992A46FFF704
:1041E000A9FF0146C0B1FFF79BFF4B68A064012BFC
:1041F0002BD0002B01F1040025DBFFF791FF0023FA
:1042000023650368E064002B12DBFFF789FF034698
:104210000020236103B030BD00230920236103B0D7
:1042200030BD0C4B0C49C91AC91018460191D5E78D
:10423000C3F30360FFF7B2FF031E0CBF0920002089
:10424000236103B030BD0123DAE700230520E0E756
:104250000000000070AC010890AD01080368DA07A7
:1042600010B5044606D49B0700F1500009D500F0B4
:1042700095FC2368590709D51A070ED5DB0613D517
:1042800010BD00F083FC23685907F5D404F1D80071
:1042900000F08CFC23681A07F0D404F5AC7000F031
:1042A0008DFC2368DB06EBD404F5EC70BDE8104010
:1042B00000F0C8BC0346006800B11844704700BF56
:1042C00009207047704700BF70B504460E46316C38
:1042D0002046FFF777FF054688B9326C6261236993
:1042E00032462146012098470828F0D0072806D1F9
:1042F0002846316CFFF7E6FF301D00F03BFCFFDE87
:104300002DE9F04701F1040CC768D0F81880064683
:104310009146BCE80F00ADF5767D03AC0FC4BCE858
:104320000F000FC4BCE80F000FC49CE80F0002ADE3
:104330004FF0000E84E80F00C5F800E021E02B6C80
:1043400073614FF4F47229467CA8FDF711FA3369C2
:104350007CAA3146504698478A9BAB644946CDE9D2
:1043600000588246334601203246B847814630BB6A
:104370004FF4F4727CA92846FDF7FAF9BAF1080F58
:104380001AD1296C3046FFF71DFF09F109090446CF
:104390005FFA89FA0028D2D0AB6BAB643246CDE924
:1043A000005833464AF010010120B84738B920467A
:1043B0000DF5767DBDE8F087BAF1070F05D0092429
:1043C00020460DF5767DBDE8F0874846296CFFF75D
:1043D00079FF03A800F0CEFB806C7047F0B5CB6B83
:1043E0000B6401F1040C0E460546BCE80F00FBB05F
:1043F00001AC0FC4BCE80F000FC4BCE80F000FC431
:104400009CE80F004FF0FF3784E80F00009706E0AC
:104410002B696A46294698470828044608D110990E
:104420002846FFF7CFFE0028F2D009207BB0F0BD70
:104430006846FFF713FF062CF7D131462846FFF7F1
:1044400043FF00BFC160D96B826119640022194625
:1044500056E700BF70B5C66843690B64AEB903691F
:104460000A4604460D46014602209847072805D013
:1044700008280ED129462046FFF726FF3046296C32
:10448000FFF720FF281D00F075FB0122FFF738FF22
:10449000FFDEFFDEC2681AB1CA6B0A6400222FE792
:1044A0009CE700BF704700BF836801460BB1012045
:1044B00018477047052915D8DFE801F00A031403EF
:1044C000030501207047009A436C13600020704779
:1044D00043B90F2A06D800EB820200205368009AE5
:1044E000136070470220704700B585B00A4600236C
:1044F00003A900911946FFF7DDFF039805B05DF8A9
:1045000004FB00BF052915D8DFE801F00A031403F6
:10451000030501207047009B1B684364002070471F
:1045200043B90F2A06D8009B00EB82021B68536038
:10453000002070470220704710B584B0002303AC00
:10454000039200940A461946FFF7DCFF04B010BD41
:1045500070B5D36B136402F1040C05460C46BCE83D
:104560000F00ADF5107D0DF15C0EAEE80F00BCE85C
:104570000F00AEE80F00BCE80F00AEE80F009CE8AB
:104580000F004FF0FF368EE80F00169610E0FFF791
:10459000D3FF214616A8A847034616AA0820694655
:1045A00083B9049B9847052806460CD0092809D0F2
:1045B00026996846FFF706FE03460C216A4616A8B0
:1045C000002BE4D0092616A8FFF748FE30460DF56B
:1045D000107D70BD2DE9F04F1646CA6C89B00D46AE
:1045E00052F8041B069200F0030C002B79D00C0C3F
:1045F0008DF81D400904E4B2059102EB840202210A
:104600008DF81C10296DBCF1020F08BFAA6B11F0C8
:10461000010809D005A9304600F0AEFB002856D1AC
:10462000082009B0BDE8F08F1768002FF2D000F025
:104630000801CDE90118E3469A46BAF1020F4CD0C1
:104640001788548802F10409AA6C24F001030F2191
:10465000304603EB0208FFF747FF80453BD827F0C1
:10466000010202EB0803834294BF0023012364008C
:1046700004F0020407F001072743012F4ED0022F58
:1046800035D027BBBBF1000F02D0002B40F0D38008
:1046900009F104021768002FCFD105A93046DDF8D3
:1046A000088000F069FB90B9B8F1000FB8D00F2175
:1046B0003046FFF719FF0E2102463046FFF73CFF58
:1046C0006C4A0F213046FFF737FF072000E0092032
:1046D00009B0BDE8F08F0023C9E7546802F108096A
:1046E000B2E7090205918DF81D30032188E7D9F85A
:1046F000004024F00048BBF1000F47D12BB1019BD3
:10470000002B5CD0B8F1000F59D0002C01DA09F170
:10471000040908F1010209EB8202BBE7BBF1000FBB
:104720001CD1C3B1D9F80430D9F80020991C4FEA44
:10473000D272CCD005F158040133049400F08E807D
:1047400009F10400FFF7B6FD04AB01462846AFF3BC
:104750000080002859D109F108029BE70D2130465D
:10476000FFF7C2FE2C6A8442F5D1AB6A9945F2D1BB
:104770004846FFF7D5FC0F2102463046FFF7DCFE26
:104780002A4600213046FFF7D7FE9EE70D2130462E
:10479000FFF7AAFE2F6A8742B7D1AB6A9945B4D119
:1047A00000240423C5E90B434B44C5F828806B6300
:1047B000D9F80030A34258DB01230293A9E705F1A1
:1047C0005803CDF80CB009F10407B34600241E4687
:1047D0000BE038460496FFF76DFD0022014604AB5E
:1047E0002846AFF300800437F8B9444504F10104CA
:1047F000EFD10D215846FFF777FE049BC5F82890AE
:104800000246C5E90823062062E704460D2130462A
:10481000FFF76AFE049E2862022C04BFEE6205F1D7
:104820002C06C5E90969062052E75E46D9F8004022
:10483000DDF80CB069E74846FFF772FC09F10403A4
:104840000446AB632846AFF3008000283FF43FAF37
:1048500022460F213046FFF76FFE36E730460D2126
:10486000FFF742FE26462862DBE708F1010209EB6A
:1048700082007EE7000000000023ABE60123A9E6EA
:104880000223A7E62DE9F0410646C4B014460529E7
:1048900000F2D880DFE811F012002D00D6006C0085
:1048A00091000600836B002C40F0CC8053F8042B61
:1048B00042648363002044B0BDE8F081002B40F0E7
:1048C000C180856B1FFA84FC012006F1040E00FAFA
:1048D00003F111EA0C0F2A4604D052F8041B4EF8DB
:1048E000231015460133102BF1D1A704E2D4B56390
:1048F000E0E7012B4FEA1447A4B200F08380052BB8
:1049000040F0A08007EB0408B8F1200F00F29A8075
:104910000F2F40F29980002CCCD00268500700F194
:104920001881019302AD284600F044F94FEA440C87
:10493000A7F11000B16B019B0CF1FF3C05EBC0002F
:104940000CF1010C043801EB8C0251F8044B40F8D7
:10495000044F9142F9D1012B00F0DE800F2FB1639B
:1049600002D822A800F01AF9284600F01FF9A1E7A2
:10497000032B67D1A7B207EB1443102B4FEA144463
:1049800060D80368190700F1BF8022AD284600F007
:1049900037F97A00B06B05EBC404531E42B1011B1A
:1049A000625844F8042B013B5A1CF9D100EBC700B4
:1049B000B063284600F002F97CE7002B42D1102CAE
:1049C00040D80368DD0600F1978022AD284600F04C
:1049D00043F9B76B294600234FF0010C0CFA03F2A0
:1049E0002242384603F1010303D050F8042B0A6039
:1049F0000746042B01F10401F0D1B763284600F00B
:104A000021F957E73A19102A1CD8102F1AD002683A
:104A1000D00708D5304622F0030240F8502B01930E
:104A200000F0B8F8019B019322AD284600F0B2F8DF
:104A3000B26B019B002C58D10432B263284600F0BF
:104A4000A5F837E7022036E7B8F1100F026865D9FC
:104A5000D40772D522F0010242F0020240F8502B36
:104A6000019300F09FF83268019B12F0040F66D1A9
:104A700022AD2846019300F095F802A800F09AF8BC
:104A8000C7F110014900B26B019BA8F1100C4C1E3C
:104A900005EBC7000134043802EB840152F8044BE3
:104AA00040F8044F8A42F9D1BCF1000F5AD0102FC0
:104AB000384638BF10204FEA4C0C103802AD0CF1CC
:104AC000FF3C05EBC0003BE7304622F0010242F01C
:104AD000020240F8502B22AD019300F063F8284603
:104AE00000F060F8B26B24B3019B6400013C05EB5D
:104AF000C7004FF0000CCDE723F01003036000F572
:104B0000EC7000F0A9F860E723F00803036000F5FB
:104B1000AC7000F075F838E722AD8DE7D107D3D43B
:104B200022AD2846019300F03DF8B26B019B002CAA
:104B3000DBD1284600F032F8BCE6540798D5304661
:104B400022F0040240F8D82B019300F033F8019BC7
:104B50008EE7304622F0040240F8D82B019300F093
:104B600029F8DFE6012B3FF467AF0F2FB2633FF662
:104B7000A1AEDEE700F1340191E838009C46A6467C
:104B80004CF8045D90E8FF0FE54600BD90EC210B6A
:104B9000704700BF80EC210B704700BF90EC200BEA
:104BA000704700BF80EC200B704700BFD0EC200B9B
:104BB000704700BFC0EC200B704700BFF0EC020153
:104BC000F0EC0211F0EC0221F0EC0231F0EC0241C9
:104BD000F0EC0251F0EC0261F0EC0271F0EC0281B9
:104BE000F0EC0291F0EC02A1F0EC02B1F0EC02C1A9
:104BF000F0EC02D1F0EC02E1F0EC02F1704700BF02
:104C0000E0EC0201E0EC0211E0EC0221E0EC023108
:104C1000E0EC0241E0EC0251E0EC0261E0EC0271F8
:104C2000E0EC0281E0EC0291E0EC02A1E0EC02B1E8
:104C3000E0EC02C1E0EC02D1E0EC02E1E0EC02F1D8
:104C4000704700BFB0FC0181B0FC0191B0FC01A134
:104C5000B0FC01B1704700BFA0FC0181A0FC019134
:104C6000A0FC01A1A0FC01B1704700BFEC4600B55B
:104C70002DE900502DE9FF1F4FF000032DE90C0036
:104C800001A9FFF7ABFBDDF840E012B0704700BFB1
:104C9000EC4600B52DE900502DE9FF1F4FF0000351
:104CA0002DE90C0001A9FFF7D5FBDDF840E012B0BB
:104CB000704700BFEC4600B52DE900502DE9FF1FFD
:104CC0004FF000032DE90C0001A9FFF7E3FBDDF82D
:104CD00040E012B0704700BFEC4600B52DE900502F
:104CE0002DE9FF1F4FF000032DE90C0001ABFFF78A
:104CF000A9FBDDF840E012B0704700BFEC4600B5FC
:104D00002DE900502DE9FF1F4FF000032DE90C00A5
:104D100001AAFFF71DFCDDF840E012B0704700BFAC
:104D2000027A03467AB9427AA2B14168013A10B4D4
:104D30004272086803220C1D1A7202025C60000EA7
:104D400010BC1A6070470068013A1A7202021A60B9
:104D5000000E7047B020704700B585B003AA00234D
:104D6000009219460C22FFF7A5FB039805B05DF8E9
:104D700004FB00BFF0E700BF2DE9F043064685B015
:104D80000D464FF000082846FFF7CAFFB02804463A
:104D900000F01C8107065BD500F0F003A02B1AD0B1
:104DA00030D8802B00F08280902B27D100F00D03AB
:104DB0000D2B23D002AF002300F00F0219460097FD
:104DC0003046FFF777FB002300970D221946304647
:104DD000FFF798FBD7E7C34303F007034FF47F6265
:104DE0001A41010702F47F6201D542F48042002398
:104DF00019463046FFF746FD0028C4D0092005B00B
:104E0000BDE8F083B02B68D0C02B3DD1C62800F0A0
:104E1000CA80C72800F0DF8000F0F803C02B00F044
:104E2000EC80C82800F0F780C928E7D12846FFF7B2
:104E300077FF020300F00F0002F4702201300243FA
:104E4000012105233046FFF71DFD00289BD0D5E743
:104E50008300DBB21F1D0DF1080900231946CDF8B0
:104E600000900D223046FFF725FB029BCDF8009005
:104E700060064CBFDF1BFF1800230D221946304689
:104E80000297FFF73FFB7EE700F0F803D02BB5D188
:104E900000F007020132052342F4002201213046CE
:104EA000FFF7F0FC00283FF46EAFA7E72846FFF7B6
:104EB00037FF24022043B0F5004F9FD004010023A8
:104EC000A2B219463046FFF7DDFC002896D114F453
:104ED000004F18BF4FF0010855E7A0F1B103042BB4
:104EE00000F2B580DFE803F05529160C030003AA91
:104EF0000023009219460D223046FFF7DBFA42E705
:104F000000231A4605213046FFF7BCFC00283FF479
:104F10003AAF73E72846FFF703FF020300F00F00E4
:104F2000013002F470220123024319463046FFF794
:104F3000A9FC00283FF427AF60E700230DF1080922
:104F40000D221946CDF800903046FFF7B3FA2846F7
:104F5000FFF7E6FE0206029C4FF002070BD500F0B9
:104F60007F00B840044428460294FFF7D9FE0306A8
:104F700007F10707F3D4B840002304F50174044493
:104F8000CDF800900D22194630460294FFF7BAFA88
:104F9000F9E62846FFF7C4FE431EDBB20E2B02469D
:104FA0007FF625AF2AE72846FFF7BAFE020300F096
:104FB0000F00013002F470220323024319463046E9
:104FC000FFF760FC00283FF4DEAE17E7B8F1000FF2
:104FD0002DD0002013E72846FFF7A2FE431EDBB2C8
:104FE0000E2B02463FF60AAF002304213046FFF79E
:104FF00049FC00283FF4C7AE00E700F00F02013281
:10500000032342F4202219463046FFF73BFC0028D8
:105010003FF4B9AEF2E62846FFF782FE00F0F00258
:1050200000F00F031032013343EA023208E702AC0A
:105030004346414600940E223046FFF73BFA0F22CA
:105040000094434641463046FFF75CFAC1E700F062
:10505000FC03B42B3FF4D2AE00F00702013201236F
:1050600042F4002219463046FFF70CFC00283FF4BA
:105070008AAEC3E610B5C26C536884B04FF0030C1F
:1050800008321C0208461B0E01A9019402928DF8F9
:105090000CC08DF80D30FFF76FFE04B010BD00BFDF
:1050A00008B5FFF767FE806C08BD00BF08B5FFF7C5
:1050B00061FEC06CC37900EB8300083008BD00BFFF
:1050C000704700BF72B6FEE700B595B030220021F0
:1050D00008A8FCF701F900230393049305930693B2
:1050E00007930193204A116C41F080511164126CB6
:1050F00002F080520192019A02931C4A136823F431
:10510000404343F400431360136803F440430293A5
:10511000029B012308934FF4A023099302230E93CB
:105120004FF480030F93082310934FF4A873119347
:1051300004231293139308A801F090FB80B90F2366
:10514000039302210491002305934FF480520692A9
:10515000079303A801F0ECFD20B915B05DF804FB3E
:10516000FFF7B0FFFFF7AEFF0038024000700040CD
:1051700008B502F01BFBFFF7A7FF00F019F800F0DD
:1051800099F800F0B9F804F0D7FE04F041FF05F0FB
:105190000BF904F0B1FF05F065F904F0E3FF04F04A
:1051A000F9FF04F0D7FA06F073FC04F0E5FAFEE725
:1051B0002DE9F0418AB000240594069407940894E0
:1051C00009940194384B1A6B42F004021A631A6B6B
:1051D00002F004020192019A02941A6B42F08002DA
:1051E0001A631A6B02F080020292029A03941A6BFD
:1051F00042F001021A631A6B02F001020392039A51
:1052000004941A6B42F002021A631B6B03F0020350
:105210000493049B254F22462021384601F0E8FFE5
:10522000234D22464FF45871284601F0E1FF4FF418
:10523000005305934FF48818CDF81880079405A9FA
:10524000284601F069FE01260596CDF81880022354
:10525000079305A9284601F05FFE202305930696D3
:105260000794089405A9384601F056FE4FF4587388
:10527000059306960794089405A9284601F04CFE6C
:1052800022460521062002F07DFA062002F08AFA65
:1052900022460521282002F075FA282002F082FA21
:1052A0000AB0BDE8F08100BF0038024000000240B3
:1052B0000008024010B582B0002401940D4B1A6B17
:1052C00042F400121A631B6B03F400130193019B59
:1052D00022460521102002F055FA102002F062FA51
:1052E00022460521112002F04DFA112002F05AFA4F
:1052F00002B010BD0038024008B50A480A4B0360EE
:105300004FF4E133436000238360C36003610C22E8
:1053100042618361C36102F07FFB00B908BDFFF702
:10532000D1FEFBE7A40900200044004030B589B05D
:105330000023039304930593069307930268364B67
:105340009A4201D009B030BD04460025019503F50D
:10535000FA331A6C42F400321A641A6C02F4003206
:105360000192019A02951A6B42F001021A631B6BBB
:1053700003F001030293029B0C2303930223049383
:10538000032306930723079303A9244801F0C4FDD0
:105390002348244B03604FF0006343608560C56081
:1053A0004FF480630361456185614FF48073C3618D
:1053B0004FF440330362456201F0AAFF28BB184B4B
:1053C000E3639C631848194B03604FF0006343602C
:1053D000402383600023C3604FF480620261436115
:1053E0008361C3614FF440320262436201F090FF77
:1053F00070B90D4BA3639C6300220521262002F0A7
:10540000C1F9262002F0CEF99CE7FFF75BFED6E754
:10541000FFF758FEEDE700BF0044004000000240E7
:105420004409002088600240E4080020A060024097
:10543000FEE7FEE7FEE7FEE7FEE7704708B501205E
:1054400001F0DCFE08BD000008B5024802F058F883
:1054500008BD00BF4409002008B5024802F050F81A
:1054600008BD00BFE408002008B5034800F0EEFDC9
:10547000024800F0EBFD08BDEC09002018320020C6
:1054800008B5024800F0E2FD08BD00BFD0310020A1
:1054900008B5024802F05EFC08BD00BFA409002068
:1054A00008B54FF4005001F0A9FE08BD00B583B067
:1054B000002200920D4B596C41F480415964596CA3
:1054C00001F48041009100990192196C41F08051E2
:1054D00019641B6C03F080530193019B0F216FF043
:1054E000010002F04FF903B05DF804FB0038024000
:1054F00030B589B00546002401941D4B5A6C42F02A
:1055000001025A645B6C03F001030193019B02A941
:1055100003A801F0E3FC01F0D1FC164AA2FB002332
:105520009B0C013B1448154A026040F2E732C2600E
:10553000436004618460846100F08AFE044610B117
:10554000204609B030BD0C4800F040FD044600285C
:10555000F6D1192002F026F90F2D01D90124EFE729
:1055600000222946192002F00DF9054B1D60E7E7DE
:105570000038024083DE1B43EC090020000001409C
:105580009000002007EE900AF8EEE77A9FED087A87
:1055900067EE877A9FED077A87EE870ADFED067A56
:1055A00060EE277A9FED050A27EE800A704700BF5C
:1055B0000000844200C0834ADB0FC940170E043D3F
:1055C00090FBF1F301FB130001EBD1725310B0EB30
:1055D000620F00DD401A5B42984200DA08447047CF
:1055E00010B50F4C20603C2101F092F823681B6835
:1055F00000225A620B4B1A800B4B1A805A609A6039
:105600000021D960196159619961D96183F820201D
:105610005A62064B1A60064B1960064B196010BDA2
:105620006C0A0020340A0020440A0020400A0020AE
:105630003C0A0020380A002010B52E4B1B681B685E
:10564000596A2D4A1388CB1A1BB211802B4C238028
:105650006268134463606068294B1B68C01AA060CD
:10566000FFF790FF274BD3ED007A70EE677ADFEDFE
:10567000266A87EEA67A84ED057AD4ED057A9FED49
:10568000237A67EE877A94ED067ADFED216A27EEBA
:10569000267A77EE877AC4ED067AD4ED067AF0EEB4
:1056A000E77A9FED1C7AF4EEC77AF1EE10FA01D595
:1056B0000022A261114B93ED067ADFED136A27EE0B
:1056C000267AD3ED047A77EE877AC3ED047AD3EDA8
:1056D000067A114A92ED007A77EEC77A87EEA67ABB
:1056E00083ED077A83ED030A064981ED000A9B6981
:1056F000136010BD6C0A0020340A0020440A002008
:10570000400A0020380A00200AD7A33C8FC2F53C8B
:10571000EC51783FFFE6DB2E3C0A002038B50F4CF9
:1057200060680F4D2B684FF40051C01AFFF748FF17
:1057300007EE900AF8EEE77A9FED0A7A67EE877A2D
:10574000FDEEE77A2B6817EE902A13442B600123B5
:1057500084F82030636A0133636238BD440A002054
:10576000400A0020CDCC4C3E10B586468446064CFF
:105770000FCCACE80F000FCCACE80F0094E80300AE
:105780008CE80300704610BD440A002008B50146AD
:1057900032230222034805F0CFFDB0FA80F0400921
:1057A00008BD00BF7C310020F8B5074D00EB400379
:1057B00005EB83070022B98855F8230001F018FD96
:1057C0000023FB713B72F8BD5C00002010B5002483
:1057D00004E02046FFF7E8FF0134E4B2032CF8D9D7
:1057E000014B00221A7010BD710A002010B5074C41
:1057F00000EB400304EB830300EB40000122998897
:1058000054F8200001F0F4FC10BD00BF5C00002043
:105810000D4B93F83D30DBB2202B02D10A4B1B6CB1
:1058200083B110B5084C204605F032FB022001F090
:10583000E9FF204605F04EFA2268136843F00103A1
:10584000136010BD704700BF7C31002010B584B0DC
:105850000B0A8DF80C308DF80D108DF80E203223C8
:105860000093032303AA4100054805F02BFB0446DF
:1058700010B9204604B010BDFFF7CAFFF9E700BF1A
:105880007C31002010B501F07F0240F21221FFF7B9
:10589000DDFF10B10124204610BD0446142001F0A4
:1058A000B1FFF8E710B584B00B0A8DF80C308DF815
:1058B0000D10130A8DF80E308DF80F20322300934F
:1058C000042303AA4100054805F0FCFA044610B978
:1058D000204604B010BDFFF79BFFF9E77C310020A4
:1058E00010B5044610221121FFF7B0FF08B10120C6
:1058F00010BD30224FF485712046FFF7A7FF08B195
:105900000120F5E746223F212046FFF79FFF08B11F
:105910000120EDE7FF2231212046FFF797FF08B174
:105920000120E5E7632240212046FFF7BBFF08B1D5
:105930000120DDE701222E212046FFF787FF08B175
:105940000120D5E709221B212046FFF77FFF08B180
:105950000120CDE731223E212046FFF777FF08B135
:105960000120C5E7242214212046FFF76FFF08B16C
:105970000120BDE731221C212046FFF767FF08B157
:105980000120B5E7002240F2A3212046FFF75EFF89
:105990000028ADD00120ABE730B585B015460B0A25
:1059A0008DF80C308DF80D10440032230093022343
:1059B00003AA21460B4805F085FA60B9322300930B
:1059C00001232A462146074805F038FB044630B932
:1059D000204605B030BDFFF71BFF0124F8E7FFF7B5
:1059E00017FFF5E77C31002070B582B00546002333
:1059F0008DF807300DF107021621FFF7CDFFF0B942
:105A00009DF80760012E1BD1002401E00134A4B2EF
:105A10001D2C0CD80B4B03EB8402927833F8241026
:105A20002846FFF713FF0028F0D0304608E0002298
:105A300016212846FFF70AFF10B1304600E001208A
:105A400002B070BD6C9A010800B583B000218DF8DA
:105A500007100DF10702FFF79FFF28B99DF80730E7
:105A6000B42B02D0012000E0012003B05DF804FB5C
:105A7000F8B5044600EB4002594B03EB82030022C9
:105A80005A72DA71FFF7B2FE142001F0BBFE522009
:105A9000FFF77CFE002844D02920FFF7D5FF0546FC
:105AA00000284BD12920FFF79FFF0646002851D13F
:105AB0002920FFF715FF0546002856D104EB4402C4
:105AC000474B03EB820399792920FFF7DBFE07465A
:105AD000002856D1142001F095FE5220FFF756FE03
:105AE0000646002858D104EB44023D4B03EB8203E9
:105AF00098794000FFF74AFE0546002858D004EB8D
