:020000040800F2
:1000000000800120E54D0008B9080008BB08000881
:10001000BD080008BF080008C10800080000000073
:10002000000000000000000000000000F13F000898
:10003000C308000800000000914000087F3B000852
:10004000354E0008354E0008354E0008354E000884
:10005000354E0008354E0008C5080008354E00082A
:10006000354E0008354E0008354E0008354E000864
:10007000354E0008354E0008354E0008354E000854
:10008000D1080008E1080008354E00080000000013
:10009000000000000000000000000000354E0008D5
:1000A000354E0008F108000809090008354E00081F
:1000B000354E0008354E0008354E0008354E000814
:1000C000354E0008354E0008354E0008354E000804
:1000D000354E0008354E00081909000800000000E0
:1000E00029090008354E0008354E000800000000C0
:1000F000000000000000000000000000354E000875
:1001000000000000354E0008354E0008354E00084E
:1001100000000000000000000000000000000000DF
:1001200035090008354E0008354E0008354E0008E8
:10013000354E000800000000000000000000000034
:10014000000000000000000000000000354E000824
:10015000354E0008354E0008354E0008354E000873
:10016000354E0008354E0008000000000000000079
:10017000000000000000000000000000000000007F
:1001800000000000354E00080000000000000000E4
:04019000354E0008E0
:1001A00010B5054C237833B9044B13B10448AFF3B1
:1001B00000800123237010BD10000020000000000B
:1001C000AC4E000808B5034B1BB103490348AFF31D
:1001D000008008BD0000000014000020AC4E0008A4
:1001E00053B94AB9002908BF00281CBF4FF0FF319E
:1001F0004FF0FF3000F088B9ADF1080C6DE904CE86
:1002000000F006F8DDF804E0DDE9022304B07047F1
:100210002DE9F047089D0F4604468C46002B48D137
:100220008A42164661D9B2FA82F34BB1C3F1200279
:1002300001FA03FC20FA02F29E4042EA0C0C9C40B8
:100240004FEA164EB7B2BCFBFEF1220C0EFB11CCEE
:1002500042EA0C4201FB07F0904209D9B21801F1C1
:10026000FF3C80F0EE80904240F2EB800239324455
:10027000121AA4B2B2FBFEF00EFB102244EA0244B2
:1002800000FB07F7A74209D9341900F1FF3280F0CB
:10029000DA80A74240F2D7803444023840EA014075
:1002A000E41B00211DB1DC400023C5E90043BDE88B
:1002B000F0878B4206D90DB1C5E90001002108463F
:1002C000BDE8F087B3FA83F1002948D1BB4202D3DD
:1002D000824200F20781841A67EB030201209446F0
:1002E000002DE4D0C5E9004CE1E7002A00F092803F
:1002F000B2FA82F3002B40F0A8808A1A4FEA164E19
:100300001FFA86FC0121200CB2FBFEF70EFB172220
:1003100040EA02420CFB07F0904207D9B21807F1FD
:10032000FF3802D2904200F2E2804746121AA4B28D
:10033000B2FBFEF00EFB102244EA02440CFB00FC70
:10034000A44507D9341900F1FF3202D2A44500F2C6
:10035000CB801046A4EB0C0440EA0740A2E7C1F1B1
:1003600020068B4022FA06FC4CEA030C07FA01F443
:1003700020FA06F3F7404FEA1C49234300FA01F83C
:100380001FFA8CFEB7FBF9F01C0C09FB107744EA4E
:10039000074400FB0EF7A74202FA01F20AD91CEB50
:1003A000040400F1FF3A80F09B80A74240F298805D
:1003B00002386444E41B9FB2B4FBF9F309FB134415
:1003C00047EA044403FB0EFEA64509D91CEB0404CE
:1003D00003F1FF3780F08280A6457FD9023B644459
:1003E00043EA0040A4EB0E04A0FB02E7BC427346C4
:1003F000B94663D360D05DB1B8EB030264EB090486
:1004000004FA06F622FA01F31E43CC40C5E9006463
:1004100000214CE76208480842EAC1710B0C43EA2C
:1004200000438AB242EA0342B3FBF6F1E407B44662
:100430003746B6461F23B0FBF6F0D21B41EA004117
:1004400061E7614614E7104628E7C3F1200120FA6E
:1004500001F29E4027FA01F19F403A434FEA164EBF
:100460001FFA86FCB1FBFEF70EFB1710110C41EAD8
:10047000004107FB0CF8884504FA03F43AD97118D7
:1004800007F1FF3001D288451FD8A1EB0801B1FB6D
:10049000FEF808FB0CF70EFB181192B242EA01427B
:1004A000BA422FD2B21808F1FF31C6D2BA42C4D232
:1004B000A8F102013244C0E7F0459CD2BEEB020332
:1004C00067EB0C070138B94695E7A6EB08084144ED
:1004D000B81EB1FBFEF808FB0CF7DCE73B467FE7F4
:1004E000504667E70846FBE63444023832E7023FED
:1004F00032441BE7A1EB08013846B1FBFEF808FBCC
:100500000CF7C8E7414698E7704700BF08B5026896
:10051000034B9A4200D008BD01F072FDFBE700BF1B
:100520000000014072B6FEE710B594B008AC30226E
:100530000021204604F07FFC0023039304930593DD
:10054000069307930193204A116C41F08051116486
:10055000126C02F080520192019A02931B4A1368B6
:1005600023F4404343F400431360136803F440430F
:100570000293029B012308934FF4A02309930223C3
:100580000E934FF480030F93082310934FF4A87336
:100590001193042312931393204600F043FE78B97D
:1005A0000F23039302210491002305934FF48052FB
:1005B0000692079303A801F09FF818B914B010BD74
:1005C000FFF7B0FFFFF7AEFF0038024000700040B9
:1005D00008B501F0FBFCFFF7A7FF00F019F800F0E9
:1005E0009BF800F0CDF803F069FE03F023FF04F060
:1005F000CFF803F075FF04F029F903F0A7FF03F02B
:10060000BDFF03F0C9FA04F0DDFB03F0D7FAFEE703
:100610002DE9F0438BB005AD0024059406940794B2
:10062000089409940194394B1A6B42F004021A633E
:100630001A6B02F004020192019A02941A6B42F0C2
:1006400080021A631A6B02F080020292029A0394EB
:100650001A6B42F001021A631A6B02F00102039254
:10066000039A04941A6B42F002021A631B6B03F0A4
:1006700002030493049BDFF89C802246202140461D
:1006800001F012FA224E22464FF44071304601F03A
:100690000BFA4FF4005305934FF48819CDF81890D6
:1006A00007942946304601F01BF901270597CDF83C
:1006B0001890022307932946304601F011F92023B0
:1006C00005930697079408942946404601F008F9D7
:1006D0004FF44073059306970794089429463046D3
:1006E00001F0FEF822460521062001F05BFC062001
:1006F00001F068FC22460521282001F053FC282047
:1007000001F060FC0BB0BDE8F08300BF0038024090
:10071000000802400000024010B582B0002400949E
:10072000164B1A6B42F400121A631A6B02F4001291
:100730000092009A01941A6B42F480021A631B6BB8
:1007400003F480030193019B22460521102001F050
:1007500029FC102001F036FC22460521112001F071
:1007600021FC112001F02EFC22460521382001F049
:1007700019FC382001F026FC02B010BD0038024000
:1007800008B50A480A4B03604FF4E1334360002385
:100790008360C36003610C2242618361C36101F025
:1007A00027FD00B908BDFFF7BDFEFBE7EC00002008
:1007B0000044004030B589B00023039304930593AF
:1007C000069307930268364B9A4201D009B030BDB8
:1007D00004460025019503F5FA331A6C42F4003201
:1007E0001A641A6C02F400320192019A02951A6B93
:1007F00042F001021A631B6B03F001030293029B98
:100800000C230393022304930323069307230793E4
:1008100003A9244801F064F82348244B03604FF0F7
:10082000006343608560C5604FF480630361456188
:1008300085614FF48073C3614FF4403303624562B6
:1008400001F0AEF928BB184BE3639C631848194BC1
:1008500003604FF000634360402383600023C36064
:100860004FF48062026143618361C3614FF440329F
:100870000262436201F094F970B90D4BA3639C636B
:1008800000220521262001F08DFB262001F09AFB95
:100890009CE7FFF747FED6E7FFF744FEEDE700BF12
:1008A00000440040000002408C00002088600240AC
:1008B0002C000020A0600240FEE7FEE7FEE7FEE716
:1008C000FEE7704708B5012001F0F6F808BD00000A
:1008D00008B5024801F026FA08BD00BF8C000020D0
:1008E00008B5024801F01EFA08BD00BF2C00002028
:1008F00008B5034800F07CF9024800F079F908BD1A
:1009000034010020144C002008B5024800F070F9B2
:1009100008BD00BFCC4B002008B5024801F022FD05
:1009200008BD00BFEC00002008B54FF4005001F0F6
:10093000C3F808BD08B5024801F0F4F908BD00BFCE
:10094000D04A002000B583B0002200920D4B596CB4
:1009500041F480415964596C01F48041009100993F
:100960000192196C41F0805119641B6C03F08053A3
:100970000193019B0F216FF0010001F013FB03B005
:1009800000BD00BF0038024030B589B005460024E4
:1009900001941D4B5A6C42F001025A645B6C03F0E7
:1009A00001030193019B02A903A800F07BFF00F063
:1009B00069FF164AA2FB00239B0C013B1448154A11
:1009C000026040F2E732C260436004618460846187
:1009D00000F010FA044610B1204609B030BD0C48B2
:1009E00000F0C8F804460028F6D1192001F0EAFA10
:1009F0000F2D01D90124EFE700222946192001F02B
:100A0000D1FA054B1D60E7E70038024083DE1B4347
:100A100034010020000001400400002030B4026ACC
:100A2000036A23F0010303624568836923F07303BB
:100A30000C681C4322F002028B6813430B4A90425D
:100A400006D0456084614A684263036230BC7047E7
:100A500023F00803CA681A4322F0040325F4407502
:100A60004A692A438D691543EBE700BF0000014046
:100A700030B4036A026A22F4807202624468C26976
:100A800022F073020D68154323F400738A6843EA69
:100A900002230D4A904206D04460C5614A68C26391
:100AA000036230BC704723F40063CA6843EA022340
:100AB00023F4806324F440544A6944EA02148A69A6
:100AC00044EA0214E8E700BF0000014030B4036AC2
:100AD000026A22F4805202624468C26922F4E64249
:100AE0000D6842EA052223F400538D6843EA05337A
:100AF000074DA84206D04460C2614A68026403629E
:100B000030BC704724F480444D6944EA8514F2E710
:100B10000000014010B4036A046A24F00104046276
:100B2000846924F0F00C4CEA021223F00A030B4310
:100B3000826103625DF8044B704710B4036A046A73
:100B400024F010040462846924F4704C4CEA0232EC
:100B500023F0A00343EA0113826103625DF8044BB2
:100B60007047836823F070030B4343F007038360EF
:100B70007047000090F83D30012B2FD1022380F800
:100B80003D300268D36843F00103D3600368154A1F
:100B9000934218D0B3F1804F15D0A2F57C42934216
:100BA00011D002F5806293420DD002F5806293422B
:100BB00009D002F59A32934205D01A6842F0010238
:100BC0001A60002070479A6802F00702062A07D0D0
:100BD0001A6842F001021A60002070470120704735
:100BE0000020704700000140704770477047704711
:100BF00070B504460368DE681D6915F0020F10D059
:100C000016F0020F0DD06FF002021A610123037774
:100C100003689B6913F0030F5ED0FFF7E6FF002324
:100C2000237715F0040F12D016F0040F0FD02368AD
:100C30006FF004021A610223237723689B6913F47F
:100C4000407F4FD02046FFF7D0FF0023237715F0D9
:100C5000080F12D016F0080F0FD023686FF00802AB
:100C60001A61042323772368DB6913F0030F40D054
:100C70002046FFF7BAFF0023237715F0100F12D09C
:100C800016F0100F0FD023686FF010021A610823BE
:100C900023772368DB6913F4407F31D02046FFF7C8
:100CA000A4FF0023237715F0010F02D016F0010FE7
:100CB0002DD115F0800F02D016F0800F2FD115F036
:100CC000400F02D016F0400F31D115F0200F02D0A6
:100CD00016F0200F33D170BDFFF786FF2046FFF7D7
:100CE00085FF9CE72046FFF77FFF2046FFF77EFF4A
:100CF000ABE72046FFF778FF2046FFF777FFBAE71C
:100D00002046FFF771FF2046FFF770FFC9E7236811
:100D10006FF001021A612046FFF7F8FBC9E723686C
:100D20006FF080021A61204600F07BFAC7E7236863
:100D30006FF040021A612046FFF759FFC5E72368AC
:100D40006FF020021A61204600F06AFAC3E7000043
:100D50000368274A90420ED0B0F1804F0BD0A2F525
:100D60007C42904207D002F58062904203D002F5A7
:100D70008062904203D123F070034A6813431C4AF7
:100D800090421AD0B0F1804F17D0A2F57C42904229
:100D900013D002F5806290420FD002F5806290423B
:100DA0000BD002F59A32904207D002F58062904251
:100DB00003D002F58062904203D123F44073CA68E5
:100DC000134323F080034A6913438A68C2620A68A6
:100DD0008262074A904207D0026842F00402026031
:100DE00001224261036070470A690263F4E700BFB1
:100DF0000000014040B310B5044690F83D30F3B117
:100E0000022384F83D30214651F8040BFFF7A0FF80
:100E1000012384F8463084F83E3084F83F3084F86B
:100E2000403084F8413084F8423084F8433084F80C
:100E3000443084F8453084F83D30002010BD80F8FF
:100E40003C3003F0B3FBDBE70120704740B310B543
:100E5000044690F83D30F3B1022384F83D3021463A
:100E600051F8040BFFF774FF012384F8463084F82F
:100E70003E3084F83F3084F8403084F8413084F8C4
:100E8000423084F8433084F8443084F8453084F8A4
:100E90003D30002010BD80F83C3003F005FCDBE75E
:100EA00001207047002853D0F8B50D46044690F84D
:100EB0003D30002B47D0022384F83D3022689368F0
:100EC00023F4804323F007039360214651F8040B79
:100ED000FFF73EFF21688B688A690E6A286818430D
:100EE00022F4407222F00302AB68AF6943EA0723A1
:100EF000134323F47C4323F0FC03EA68EF6942EADE
:100F000007221A432B6A1B032F6943EA0713134373
:100F100026F0AA066A686D6942EA051232438860C3
:100F200021688B6123681A62012384F8463084F8B3
:100F30003E3084F83F3084F8423084F8433084F8FF
:100F40003D300020F8BD80F83C3003F079FBB2E77B
:100F50000120704730B4036A026A22F01002026274
:100F60004468826922F4E6420D6842EA052223F0D1
:100F700020038D6843EA05130C4DA84206D0446057
:100F800082614A688263036230BC704723F0800349
:100F9000CD6843EA051323F0400324F440644D690F
:100FA00044EA85048D6944EA8504E8E700000140CD
:100FB00038B590F83C30012B66D004460D4601232D
:100FC00080F83C300C2A5AD8DFE802F0075959590A
:100FD0001B5959593059595944000068FFF71EFDF3
:100FE0002268936943F0080393612268936923F0B0
:100FF000040393612268936929690B43936100207C
:101000003EE00068FFF7A6FF2268936943F400639F
:1010100093612268936923F48063936122689369E2
:10102000296943EA01239361002029E00068FFF762
:101030001FFD2268D36943F00803D3612268D36996
:1010400023F00403D3612268D36929690B43D36178
:10105000002015E00068FFF739FD2268D36943F4EA
:101060000063D3612268D36923F48063D36122686B
:10107000D369296943EA0123D361002000E00120FC
:10108000002384F83C3038BD0220FCE710B48468AB
:1010900024F47F4C42EA03220A4342EA0C028260B3
:1010A0005DF8044B704790F83C30012B78D010B5B8
:1010B0000446012380F83C30022380F83D3002686A
:1010C000936823F47F4323F0770393600B68602BCE
:1010D0004CD023D8402B54D011D8202B03D00AD881
:1010E0000BB1102B05D119462068FFF73AFD0020FF
:1010F00028E0012026E0302BF5D0012022E0502B03
:101100000AD1CA6849680068FFF704FD50212068C9
:10111000FFF727FD002015E0012013E0B3F5805F05
:101120003AD0B3F5005F14D0702B37D1CB684A6842
:1011300089680068FFF7AAFF2268936843F0770385
:1011400093600020012384F83D30002384F83C3074
:1011500010BDCB684A6889680068FFF797FF22686E
:10116000936843F4804393600020EBE7CA684968C2
:101170000068FFF7E2FC60212068FFF7F2FC002026
:10118000E0E7CA6849680068FFF7C4FC40212068AE
:10119000FFF7E7FC0020D5E70020D3E70120D1E7E7
:1011A0000220704790F83C20012A35D010B4034645
:1011B000012280F83C20022280F83D20026850681D
:1011C000946820F0700C086840EA0C0050601A68BF
:1011D0001248824212D0B2F1804F0FD0A0F57C406D
:1011E00082420BD000F58060824207D000F580601B
:1011F000824203D000F59A30824204D124F0800468
:10120000496821439160012283F83D20002083F842
:101210003C005DF8044B704702207047000001401D
:1012200070477047002800F0E08170B582B0044636
:10123000036813F0010F3BD09F4B9B6803F00C0336
:10124000042B2CD09C4B9B6803F00C03082B21D063
:101250006368B3F5803F4FD0B3F5A02F52D0964BC3
:101260001A6822F480321A601A6822F480221A6006
:101270006368002B50D000F0CFFE05468E4B1B68F4
:1012800013F4003F14D100F0C7FE401B6428F5D9C9
:101290000320B1E1884B5B6813F4800FD8D0864BF4
:1012A0001B6813F4003F03D06368002B00F09F819C
:1012B000236813F0020F54D07F4B9B6813F00C0F80
:1012C0003ED07D4B9B6803F00C03082B33D0E368C2
:1012D000002B68D0794B01221A6000F09DFE054674
:1012E000754B1B6813F0020F54D100F095FE401BA4
:1012F0000228F5D903207FE16F4A136843F4803355
:101300001360B5E76C4B1A6842F480221A601A68C1
:1013100042F480321A60ABE700F07EFE0546664B71
:101320001B6813F4003FC3D000F076FE401B642816
:10133000F5D9032060E1604B5B6813F4800FC6D1E0
:101340005D4B1B6813F0020F03D0E368012B40F0E4
:101350005081594A136823F0F803216943EAC10315
:101360001360236813F0080F42D063696BB3534BCB
:101370000122C3F8802E00F04FFE05464E4B5B6FF6
:1013800013F0020F34D100F047FE401B0228F5D9BC
:10139000032031E1484A136823F0F803216943EA46
:1013A000C1031360DDE7454B00221A6000F034FEF4
:1013B0000546414B1B6813F0020FD2D000F02CFE03
:1013C000401B0228F5D9032016E13C4B0022C3F84C
:1013D000802E00F021FE0546374B5B6F13F0020FA5
:1013E00006D000F019FE401B0228F5D9032003E1C6
:1013F000236813F0040F77D02F4B1B6C13F0805F22
:1014000033D1002301932C4B1A6C42F080521A64A2
:101410001B6C03F080530193019B0125284B1B6833
:1014200013F4807F23D0A368012B34D0052B38D050
:10143000214B1A6F22F001021A671A6F22F0040280
:101440001A67A368002B3DD000F0E6FD06461A4B54
:101450001B6F13F0020F46D100F0DEFD801B41F23E
:1014600088339842F3D90320C6E00025D6E7144A12
:10147000136843F48073136000F0CEFD0646104BF2
:101480001B6813F4807FCED100F0C6FD801B0228BC
:10149000F5D90320B0E0084A136F43F00103136746
:1014A000CFE7054B1A6F42F004021A671A6F42F039
:1014B00001021A67C5E700BF00380240000047423A
:1014C0000070004000F0A8FD0646524B1B6F13F061
:1014D000020F08D000F0A0FD801B41F28833984233
:1014E000F3D9032088E0EDB9A369002B00F08380D5
:1014F000484A926802F00C02082A51D0022B17D0F9
:10150000454B00221A6600F087FD0446414B1B68DC
:1015100013F0007F42D000F07FFD001B0228F5D9B8
:10152000032069E03B4A136C23F080531364DBE72C
:10153000394B00221A6600F06FFD0546354B1B68DB
:1015400013F0007F06D000F067FD401B0228F5D99C
:10155000032051E0E369226A1343626A43EA82137B
:10156000A26A5208013A43EA0243E26A43EA02638A
:10157000284A5360284B01221A6600F04DFD0446AC
:10158000244B1B6813F0007F06D100F045FD001BC3
:101590000228F5D903202FE000202DE000202BE0C9
:1015A000012B2BD01B4B5B6803F48001E269914255
:1015B00026D103F03F02216A8A4223D1616A47F6AD
:1015C000C0721A40B2EB811F1ED103F44031A26AEF
:1015D0005208013AB1EB024F18D103F07063E26A8E
:1015E000B3EB026F14D1002006E001207047012008
:1015F00002E0012000E0002002B070BD0120FBE706
:101600000120F9E70120F7E70120F5E70120F3E7E2
:101610000120F1E7003802400000474208B5334B93
:101620009B6803F00C03042B5BD0082B5BD12F4B82
:101630005A6802F03F025B6813F4800F2CD02B4BEA
:101640005868C0F388104FEA401CBCEB000C6EEBEE
:101650000E0E4FEA8E1343EA9C634FEA8C11B1EBF6
:101660000C0163EB0E03DB0043EA5173C90011EB7D
:10167000000C43F10003590200234FEA4C2041EAD9
:10168000DC51FEF7ADFD194B5B68C3F30143013339
:101690005B00B0FBF3F008BD144B5868C0F3881032
:1016A0004FEA401CBCEB000C6EEB0E0E4FEA8E13A3
:1016B00043EA9C634FEA8C11B1EB0C0163EB0E0320
:1016C000DB0043EA5173C90011EB000C43F1000346
:1016D000990200234FEA8C2041EA9C51FEF780FDDD
:1016E000D1E70348D7E70348D5E700BF00380240F9
:1016F00000127A000024F400002800F09B8070B5EE
:101700000D4604464F4B1B6803F007038B4208D27B
:10171000CBB24C4A1370136803F007038B4240F0BE
:101720008B80236813F0020F17D013F0040F04D03E
:10173000454A936843F4E0539360236813F0080F1D
:1017400004D0414A936843F4604393603E4A9368EF
:1017500023F0F003A1680B439360236813F0010F9B
:1017600032D06368012B21D09A1E012A25D9364A2E
:10177000126812F0020F61D033498A6822F0030226
:1017800013438B6000F048FC06462F4B9B6803F028
:101790000C036268B3EB820F16D000F03DFC801B97
:1017A00041F288339842F0D9032042E0264A126879
:1017B00012F4003FE0D101203BE0234A126812F00E
:1017C000007FD9D1012034E01E4B1B6803F00703D2
:1017D000AB4207D9EAB21B4B1A701B6803F0070330
:1017E000AB422DD1236813F0040F06D0164A93683C
:1017F00023F4E053E1680B439360236813F0080F70
:1018000007D0114A936823F46043216943EAC10376
:101810009360FFF703FF0C4B9B68C3F303130B4A62
:10182000D35CD8400A4B18600A4B1868FFF7ACF835
:10183000002070BD012070470120FAE70120F8E781
:101840000120F6E7003C024000380240D44E000878
:101850000800002004000020014B1868704700BFFA
:101860000800002008B5FFF7F7FF044B9B68C3F39F
:101870008223034AD35CD84008BD00BF0038024031
:10188000CC4E000808B5FFF7E7FF044B9B68C3F395
:101890004233034AD35CD84008BD00BF0038024041
:1018A000CC4E00080F2303600B4B9A6802F0030232
:1018B00042609A6802F0F00282609A6802F4E05294
:1018C000C2609B68DB0803F4E0530361034B1B68B1
:1018D00003F007030B60704700380240003C0240F1
:1018E00000230F2B00F2D78070B582B065E08568C9
:1018F0004FEA430E032404FA0EF425EA0405CC68EB
:1019000004FA0EF42C438460446824EA02044A6812
:10191000C2F300129A40224342605CE0DC080834C3
:1019200050F8242003F00705AD004FF00F0E0EFA1B
:1019300005FE22EA0E0E0A69AA4042EA0E0240F8AB
:1019400024205CE0042200E0002202FA0EF22A4386
:101950000234514D45F82420504A94686FEA0C0235
:1019600024EA0C054E6816F4801F01D04CEA0405E9
:101970004A4CA560E46802EA04054E6816F4001FAC
:1019800001D04CEA0405454CE560646802EA0405B0
:101990004E6816F4003F01D04CEA04053F4C6560E8
:1019A000246822404D6815F4803F01D04CEA0402BF
:1019B0003A4C226001330F2B6BD801229A400C68FD
:1019C00004EA020C32EA0404F4D14C6804F0030483
:1019D000013C012C8BD94A6802F00302032A09D08A
:1019E000C4685D000322AA4024EA02048A68AA406F
:1019F0002243C2604A6802F00302022A8ED00468C1
:101A00004FEA430E032202FA0EF224EA02044A6865
:101A100002F0030202FA0EF2224302604A6812F454
:101A2000403FC7D0002201921D4A546C44F48044C8
:101A30005464526C02F480420192019A9C08A51CE5
:101A4000154A52F8255003F0030E4FEA8E0E0F226E
:101A500002FA0EF225EA0205124A90423FF474AFF0
:101A600002F5806290420ED002F5806290420CD066
:101A700002F5806290420AD002F5806290423FF403
:101A800061AF072261E701225FE702225DE70322DF
:101A90005BE702B070BD704700380140003C014078
:101AA00000380240000002400AB181617047090419
:101AB000816170477047000008B5054B5B690342C0
:101AC00000D108BD024B5861FFF7F4FFF9E700BFF2
:101AD000003C014010B40368D9B210390A4AA2FB95
:101AE00001421209094CA25CC2655F2907D96FF354
:101AF000090304338365806D5DF8044B70476FF311
:101B000009038365F7E700BFABAAAAAAC44E000881
:101B1000836A826992B9012B0AD0022B02D00BB1E1
:101B200000207047C36A13F0807F28D100207047DF
:101B3000C36AB3F1C07F24D000207047B2F5005FC4
:101B400009D0022B25D9032B25D1C36A13F0807F3E
:101B500023D100207047032B03D8DFE803F01404DF
:101B6000140A00207047C36A13F0807F0DD1002053
:101B70007047C36AB3F1C07F09D0002070470120CD
:101B800070470120704701207047012070470120F5
:101B90007047012070470020704701207047000007
:101BA00070B5044600F038FA002C5BD005460223DD
:101BB00084F83530002384F834302268136823F029
:101BC0000103136023681A6812F0010F0AD000F0B5
:101BD00023FA431B052BF5D920236365032084F8E2
:101BE000350070BD1A68204911406268A068024340
:101BF000E06802432069024360690243A06902432E
:101C0000E0690243206A02430A43616A04291ED044
:101C10001A602668756925F00705636A1D43042B61
:101C200007D1A36A1D43E36A1BB12046FFF770FF8B
:101C300090B975612046FFF74DFFE26D3F23934059
:101C4000836000206065012384F83530C9E7E16ACC
:101C5000206B01430A43DBE740236365012084F8DE
:101C60003500BEE70120BCE73F8010F070B50446A8
:101C7000866D00F0D1F994F83530022B06D0802320
:101C80006365002384F83430012070BD0546226866
:101C9000136823F0160313602268536923F080034E
:101CA0005361236CE3B12268136823F008031360C7
:101CB0002268136823F00103136023681B6813F084
:101CC000010F11D000F0A8F9431B052BF5D92023F3
:101CD0006365032084F83500002384F83430D4E7AA
:101CE000A36C002BDFD1E3E7E26D3F239340B360A9
:101CF000012384F83530002084F83400C5E790F8DB
:101D00003530022B03D08023436501207047052323
:101D100080F835300268136823F001031360002057
:101D200070470000F0B583B0044600230193724B66
:101D30001D68724BA3FB0535AD0A876D3E68C26D09
:101D400008239340334210D003681A6812F0040F3E
:101D50000BD01A6822F004021A60C26D0823934067
:101D6000BB60436D43F001034365E26D0123934083
:101D7000334209D02268526912F0800F04D0BB6050
:101D8000636D43F002036365E26D042393403342C5
:101D900009D02268126812F0020F04D0BB60636D94
:101DA00043F004036365E26D10239340334224D073
:101DB0002268126812F0080F1FD0BB6023681A68EF
:101DC00012F4802F0DD01B6813F4002F04D1236C64
:101DD0009BB12046984710E0A36C73B1204698470A
:101DE0000BE01A6812F4807F03D11A6822F008020F
:101DF0001A60236C0BB120469847E26D2023934074
:101E0000334254D02268126812F0100F4FD0BB60DA
:101E100094F83530052B0ED023681A6812F4802F01
:101E200033D01B6813F4002F2AD1636C002B3ED0F3
:101E3000204698473BE02268136823F0160313609E
:101E40002268536923F080035361236CA3B1226895
:101E5000136823F008031360E26D3F239340BB60D7
:101E6000012384F83530002384F83430236D002BAF
:101E70003FD0204698473CE0A36C002BE7D1EBE72E
:101E8000E36BA3B12046984711E01A6812F4807FF3
:101E900009D11A6822F010021A60012384F8353043
:101EA000002384F83430E36B0BB120469847636D10
:101EB000FBB1636D13F0010F17D0052384F83530A3
:101EC0002268136823F001031360019B013301931F
:101ED000AB4204D823681B6813F0010FF5D101232E
:101EE00084F83530002384F83430E36C0BB120469D
:101EF000984703B0F0BD00BF08000020B5814E1B1D
:101F0000002807DB00F01F02400901239340024A2A
:101F100042F82030704700BF00E100E0002808DBF5
:101F20000901C9B200F1604000F5614080F800137A
:101F3000704700F00F000901C9B2014B19547047F6
:101F400014ED00E000B500F00700C0F1070CBCF193
:101F5000040F28BF4FF0040C031D062B0ED9C31E1F
:101F60004FF0FF3E0EFA0CF021EA000199400EFA04
:101F700003FE22EA0E0241EA020000BD0023EFE761
:101F8000074AD36823F4E0631B041B0C000200F42F
:101F9000E060034343F0BF6343F40033D360704712
:101FA00000ED00E010B50446054BD868C0F30220F0
:101FB000FFF7C8FF01462046FFF7B0FF10BD00BF86
:101FC00000ED00E008B5FFF79BFF08BD08B50B4B1F
:101FD0001A6842F400721A601A6842F480621A6049
:101FE0001A6842F480721A600320FFF7C9FF0F20BD
:101FF000FEF7CAFCFEF7A6FC002008BD003C02402C
:10200000034A1168034B1B780B441360704700BFF1
:102010007C01002000000020014B1868704700BFC1
:102020007C010020026802F10C0353E8003F23F416
:1020300090730C3242E800310029F3D1026802F1BA
:10204000140353E8003F23F00103143242E8003147
:102050000029F3D1036B012B05D0202380F84230F7
:10206000002303637047026802F10C0353E8003F4A
:1020700023F010030C3242E800310029F3D1ECE7E1
:1020800090F84130212B01D0022070478368B3F5CE
:10209000805F17D0036A5A1C02621A7803685A607C
:1020A000C38C9BB2013B9BB2C3844BB90268D3681B
:1020B00023F08003D3600268D36843F04003D36009
:1020C000002070470369002BE4D1036A1B88026873
:1020D000C3F308035360036A02330362E0E70000BE
:1020E00010B504460268136923F44053C1680B43DA
:1020F0001361836802691A4343691A43C3691A4327
:102100000168CB6823F4164323F00C031343CB6020
:102110000268536923F4407381690B435361036878
:10212000314A934206D002F58062934202D0FFF713
:1021300099FB01E0FFF7A6FBE369B3F5004F29D057
:102140000021031849411B1841F10001C90041EA6F
:102150005371DB00181863684FEA83024FEA9373E8
:1021600041F10001FEF73CF8204AA2FB0031490989
:10217000642303FB11031B013233A2FB03235B091E
:1021800003F0F00202EB011203F00F032168134485
:102190008B6010BD0023021843EB0301121841F1BC
:1021A0000001C90041EA5271D200101841F100014A
:1021B000626892185B41FEF713F80C4AA2FB0031EB
:1021C0004909642303FB1103DB003233A2FB032321
:1021D0005B095A0002F4F87202EB011203F00703E4
:1021E000216813448B60D4E7001001401F85EB5138
:1021F00060B310B5044690F8413013B3242384F83B
:1022000041302268D36823F40053D3602046FFF79F
:1022100067FF2268136923F49043136122685369AE
:1022200023F02A0353612268D36843F40053D36038
:1022300000206064202384F8413084F842306063D9
:1022400010BD80F84030FEF7B5FAD7E7012070479F
:10225000704708B50168CA6822F04002CA602022AF
:1022600080F84120FFF7F4FF002008BD7047704759
:1022700008B5806B0023C385FFF7F9FF08BD7047E1
:1022800090F84230222B68D18368B3F5805F4ED03E
:10229000826AB3F5805F04D0002B55D10369002B0F
:1022A00052D103685B681370836A01338362C38D04
:1022B0009BB2013B9BB2C385002B50D100B583B0CC
:1022C0000268D36823F02003D3600268D36823F444
:1022D0008073D3600268536923F0010353612023A4
:1022E00080F8423000234363036B012B32D100237B
:1022F0000363026802F10C0353E8003F23F010036C
:102300000C3242E800310029F3D103681A6812F058
:10231000100F06D0002201921A6801925B680193A7
:10232000019B818DFFF7ABFF002003B000BD026968
:10233000002AADD1826A03685B68C3F30803138087
:10234000836A02338362B2E703685B6803F07F034A
:102350001370A9E7FFF78AFFE6E702207047002025
:102360007047000010B582B0044602681368D06858
:10237000516913F00F0F09D113F0200F0CD010F09A
:10238000200F09D02046FFF77BFF16E011F0010176
:1023900015D110F4907F12D1216B012979D013F05F
:1023A000800F03D010F0800F40F0218113F0400F18
:1023B00003D010F0400F40F01E8102B010BD13F0AA
:1023C000010F06D010F4807F03D0626C42F001024E
:1023D000626413F0040F04D019B1626C42F002027F
:1023E000626413F0020F04D019B1626C42F004026F
:1023F000626413F0080F07D010F0200F00D119B15C
:10240000626C42F008026264626C002AD5D013F05C
:10241000200F02D010F0200F29D123685B6903F050
:102420004003626C12F0080F00D163B32046FFF73F
:10243000F9FD23685B6913F0400F20D0226802F198
:10244000140353E8003F23F04003143242E8003104
:102450000029F3D1E36B73B1694A1A65E06BFFF7AA
:102460004EFC0028A9D0E06B036D9847A5E72046F5
:10247000FFF706FFD1E72046FFF7F9FE9DE720466C
:10248000FFF7F5FE99E72046FFF7F1FE00236364AE
:1024900093E713F0100F82D010F0100F3FF47FAFCE
:1024A000002301931368019353680193019B5369BF
:1024B00013F0400F5FD0E26B13685B689BB2002B98
:1024C0004AD0A18D994247D9E385D369B3F5807F7E
:1024D00037D0226802F10C0353E8003F23F48073E5
:1024E0000C3242E800310029F3D1226802F11403D2
:1024F00053E8003F23F00103143242E80031002981
:10250000F3D1226802F1140353E8003F23F04003A3
:10251000143242E800310029F3D1202384F84230FC
:1025200000232363226802F10C0353E8003F23F0E9
:1025300010030C3242E800310029F3D1E06BFFF7C1
:1025400095FB02236363A18DE38D9BB2C91A89B207
:102550002046FFF794FE30E7A18D99427FF42DAF1E
:10256000D369B3F5807F7FF428AF022363632046ED
:10257000FFF785FE21E7A18DE38D9BB2C91A89B2D1
:10258000E38D9BB2002B3FF418AF00293FF415AF49
:10259000226802F10C0353E8003F23F490730C32DD
:1025A00042E800300028F3D1226802F1140353E816
:1025B000003F23F00103143242E800300028F3D139
:1025C000202384F8423000232363226802F10C03A5
:1025D00053E8003F23F010030C3242E8003000289B
:1025E000F3D1022363632046FFF749FEE5E6204668
:1025F000FFF746FDE1E62046FFF72BFEDDE600BFD4
:1026000071220008034AD2F8883043F47003C2F8FC
:102610008830704700ED00E000F1080343604FF0A0
:10262000FF328260C36003610023036070470023B0
:102630000361704743684B609A688A605160996093
:102640000861036801330360704730B40D68B5F169
:10265000FF3F11D000F108031C465B681A68AA42CC
:10266000FAD963684B6099608C60616008610368A7
:102670000133036030BC70470469F2E703694168C5
:1026800082688A60416851605A68824206D000229E
:1026900002611A68013A1A601868704782685A60C5
:1026A000F5E710B5044601F0B5FCA26BE36B9A4266
:1026B00004D0002401F0D0FC204610BD0124F9E72D
:1026C00010B5044601F0A6FCA36B23B9012401F068
:1026D000C3FC204610BD0024F9E770B5044615463A
:1026E000866B026C5AB903681BB100200136A663E1
:1026F00070BD806800F0D2FF0023A360F6E76DB9DB
:10270000406802F0C5FB6368226C13446360A268F2
:10271000934219D3236863602846E7E7C06802F054
:10272000B7FBE368226C51429B1AE3602268934234
:1027300002D2A3680B44E360022D01D00020D5E74C
:1027400026B1013E0020D1E72846CFE70020CDE7A3
:102750000346026C6AB110B50846D9681144D960C5
:102760009C68A14201D31968D960D96802F090FB36
:1027700010BD704738B5054601F04CFC95F8454052
:1027800064B201E0013C64B2002C0ADD6B6A43B123
:1027900005F1240000F0D6FE0028F3D000F068FF19
:1027A000F0E7FF2385F8453001F056FC01F032FCDC
:1027B00095F8444064B201E0013C64B2002C0ADDAB
:1027C0002B6943B105F1100000F0BCFE0028F3D0E6
:1027D00000F04EFFF0E7FF2385F8443001F03CFCA9
:1027E00038BD38B5E0B10D46044601F013FC23684E
:1027F000E26B216C01FB0230A0600020A0636360EB
:10280000013A02FB0133E360FF2384F8443084F88B
:102810004530FDB9236963B901F01EFC012038BDC4
:102820004FF0500383F31188BFF36F8FBFF34F8FC7
:10283000FEE704F1100000F085FE0028ECD04FF018
:10284000E0234FF08052C3F8042DBFF34F8FBFF346
:102850006F8FE1E704F11000FFF7DEFE04F12400C2
:10286000FFF7DAFED8E738B51D46049C0B4649B998
:102870002460E063236401212046FFF7B2FF84F85F
:102880004C5038BD2260F4E740B94FF0500383F359
:102890001188BFF36F8FBFF34F8FFEE710B584B081
:1028A0001C46844653B192B189B94FF0500383F36B
:1028B0001188BFF36F8FBFF34F8FFEE74FF05003C8
:1028C00083F31188BFF36F8FBFF34F8FFEE76AB1B9
:1028D00050230393039B502B13D04FF0500383F3EB
:1028E0001188BFF36F8FBFF34F8FFEE70029EFD042
:1028F0004FF0500383F31188BFF36F8FBFF34F8FF7
:10290000FEE7039B012384F8463000949DF81830BD
:102910006046FFF7A8FF204604B010BDF0B585B0B3
:10292000019288B10F461D460446B1B1022D20D157
:10293000E36B012B1DD04FF0500383F31188BFF3DD
:102940006F8FBFF34F8FFEE74FF0500383F3118873
:10295000BFF36F8FBFF34F8FFEE7036C002BE5D003
:102960004FF0500383F31188BFF36F8FBFF34F8F86
:10297000FEE700F083FE064658B9019B002B48D0C5
:102980004FF0500383F31188BFF36F8FBFF34F8F66
:10299000FEE700263DE02A4639462046FFF79DFE29
:1029A000636A7BB948B14FF0E0234FF08052C3F81F
:1029B000042DBFF34F8FBFF36F8F01F04DFB01204C
:1029C00005B0F0BD04F1240000F0BCFD0028F4D0F7
:1029D0004FF0E0234FF08052C3F8042DBFF34F8F28
:1029E000BFF36F8FE9E701F037FB0020E8E702A8AB
:1029F00000F0EEFD012619E0002384F8443021E0C8
:102A0000002384F8453023E02046FFF7B3FE00F0B2
:102A100077FC01F0FFFAA26BE36B9A42BBD3022D65
:102A2000B9D0019B002BDED0002EE0D001F014FBCA
:102A300000F0CCFB01F0EEFA94F8442052B2B2F16F
:102A4000FF3FD9D094F8452052B2B2F1FF3FD7D022
:102A500001F002FB01A902A800F0C6FDD8B920468A
:102A6000FFF71FFE0028CFD0019904F1100000F0FD
:102A700035FD2046FFF77EFE00F042FC0028C8D15D
:102A80004FF0E0234FF08052C3F8042DBFF34F8F77
:102A9000BFF36F8FBDE72046FFF76CFE00F030FC00
:102AA00000208DE72DE9F84390B10F4616461C46ED
:102AB0000546B1B1022C20D1EB6B012B1DD04FF09C
:102AC000500383F31188BFF36F8FBFF34F8FFEE77F
:102AD0004FF0500383F31188BFF36F8FBFF34F8F15
:102AE000FEE7036C002BE5D04FF0500383F3118811
:102AF000BFF36F8FBFF34F8FFEE701F0B1FBEFF332
:102B000011884FF0500383F31188BFF36F8FBFF329
:102B10004F8FAA6BEB6B9A4206D3022C04D0002095
:102B200088F31188BDE8F88395F845904FFA89F944
:102B3000AB6B224639462846FFF7CFFDB9F1FF3F80
:102B400006D009F101035BB285F845300120E7E7C3
:102B50006B6A0BB90120E3E705F1240000F0F2FCF9
:102B600018B126B101203060DAE70120D8E7012052
:102B7000D6E7F0B585B0019290B10F460446C1B1D9
:102B800000F07CFD064600BB019B002B5ED04FF0A1
:102B9000500383F31188BFF36F8FBFF34F8FFEE7AE
:102BA0004FF0500383F31188BFF36F8FBFF34F8F44
:102BB000FEE7036C002BE3D04FF0500383F3118842
:102BC000BFF36F8FBFF34F8FFEE700263EE039461D
:102BD0002046FFF7BDFD013DA563236923B901F040
:102BE0003BFA012005B0F0BD04F1100000F0AAFC92
:102BF0000028F4D04FF0E0234FF08052C3F8042DAA
:102C0000BFF34F8FBFF36F8FE9E701F025FA002084
:102C1000E8E702A800F0DCFC012621E0002384F8AC
:102C2000443029E0002384F845302BE02046FFF7AC
:102C3000A1FD00F065FB09E02046FFF79BFD00F0D9
:102C40005FFB2046FFF73CFD00283FD101F0E2F991
:102C5000A56B002DBBD1019B002BD6D0002ED8D068
:102C600001F0FAF900F0B2FA01F0D4F994F8443026
:102C70005BB2B3F1FF3FD1D094F845305BB2B3F112
:102C8000FF3FCFD001F0E8F901A902A800F0ACFCA9
:102C90000028D1D12046FFF713FD0028C6D00199A6
:102CA00004F1240000F01AFC2046FFF763FD00F059
:102CB00027FB0028CAD14FF0E0234FF08052C3F821
:102CC000042DBFF34F8FBFF36F8FBFE7002089E75D
:102CD0000023072B0CD8074A52F833200AB10133DE
:102CE000F7E7044A42F8331002EBC3025060704722
:102CF000704700BF8001002070B504460D4616469F
:102D000001F088F994F844305BB2B3F1FF3F0DD085
:102D100094F845305BB2B3F1FF3F0BD001F09CF962
:102D2000A36B5BB12046FFF725FD70BD002384F83F
:102D30004430EDE7002384F84530EFE7324629467A
:102D400004F1240000F0E2FBECE70000084B1B68F4
:102D50001B6823B9074B4FF0FF321A607047044BD2
:102D60001B68DB68DB685A68024B1A60704700BF5B
:102D700030020020C80100202DE9F04780460D46B2
:102D800017469946089EDDF824A00A9C9200A521CA
:102D9000206B02F050F8236B07F18042013A03EBFD
:102DA000820727F00707A5B34FF0000CBCF10F0F07
:102DB00009D815F80C3004EB0C0282F8343013B14A
:102DC0000CF1010CF2E7002384F84330372E00D9D0
:102DD0003726E662E66400252565201DFFF727FCFF
:102DE00004F11800FFF723FC2461C6F13806A66140
:102DF0006462656584F858504A464146384601F099
:102E0000DBF82060BAF1000F01D0CAF80040BDE83D
:102E1000F087002384F83430D8E7000038B5002468
:102E200007E004EB840293000E481844FFF7F4FB1C
:102E30000134372CF5D90C4D2846FFF7EDFB0B4C30
:102E40002046FFF7E9FB0A48FFF7E6FB0948FFF7D2
:102E5000E3FB0948FFF7E0FB084B1D60084B1C60D3
:102E600038BD00BF5C020020480200203402002070
:102E70001802002004020020EC0100203002002093
:102E80002C02002010B5044601F0C4F8224A136851
:102E900001331360214B1B685BB1214B1B686BB97D
:102EA0001E4B1B68DA6AE36A9A4207D81B4B1C6008
:102EB00004E01A4B1C601368012B29D0194A1368CF
:102EC000013313606364E06A174B1B68984201D9B1
:102ED000154B186000EB8000211D144B03EB8000A4
:102EE000FFF7A8FB01F0B8F80D4B1B687BB10B4B4B
:102EF0001B68DA6AE36A9A4209D24FF0E0234FF086
:102F00008052C3F8042DBFF34F8FBFF36F8F10BDF6
:102F1000FFF784FFD2E700BFE8010020BC060020D5
:102F2000DC010020CC010020E00100205C02002038
:102F300010B5044690F8593063B1012B11D0022B23
:102F40000ED04FF0500383F31188BFF36F8FBFF3A0
:102F50004F8FFEE7006B00F0B3FF204600F0B0FF9C
:102F600010BD00F0ADFFFBE70F4B1B68D3B110B5F0
:102F700001F050F80D4BDB68DC68201DFFF77EFB8D
:102F80000B4A1368013B1360074A1368013B136047
:102F900001F062F82046FFF7CBFF034B1B68002BC4
:102FA000E6D110BD704700BF0002002004020020DF
:102FB000E801002008B5FFF7D7FF074B1B68012B7E
:102FC000F9D94FF0E0234FF08052C3F8042DBFF33E
:102FD0004F8FBFF36F8FEEE75C02002070B50446A1
:102FE0000D46174B1E68174B18680430FFF746FB59
:102FF000B4F1FF3F0DD03444124B1B685C60A64215
:1030000010D9114B18680F4B19680431FFF71DFBDD
:1030100070BD002DEFD00B4B196804310B48FFF742
:1030200009FBF5E70A4B1868064B19680431FFF7EE
:103030000CFB084B1B68A342EAD9064B1C60E7E770
:10304000E4010020BC0600202C020020EC0100203E
:1030500030020020C801002030B587B00B9C7CB145
:103060000C9DB5B15C250495049D5C2D1AD04FF0E4
:10307000500383F31188BFF36F8FBFF34F8FFEE7C9
:103080004FF0500383F31188BFF36F8FBFF34F8F5F
:10309000FEE74FF0500383F31188BFF36F8FBFF348
:1030A0004F8FFEE7049D0C9D2C63022485F8594048
:1030B00000240394029505AC01940A9C0094FFF748
:1030C0005BFE0C98FFF7DEFE059807B030BD2DE9DA
:1030D000F04385B00746884614461E46900000F02F
:1030E0006DFE08B381465C2000F068FE0546A8B17D
:1030F000C0F83090002380F85930039302900D9B64
:1031000001930C9B00933346224641463846FFF715
:1031100033FE2846FFF7B6FE012007E0484600F0E0
:10312000CFFE4FF0FF3001E04FF0FF3005B0BDE8BB
:10313000F083000010B588B000240594069407AA17
:1031400006A905A800F0BEFD059B0293069B01930E
:1031500000942346079A17491748FFF77DFF174B3E
:103160001860C0B100F04EFB012815D14FF050039C
:1031700083F31188BFF36F8FBFF34F8F104B4FF066
:10318000FF321A600F4B01221A600F4B00221A60A7
:1031900000F0DAFF03E00020B0F1FF3F01D008B0FB
:1031A00010BD4FF0500383F31188BFF36F8FBFF34F
:1031B0004F8FFEE7E44E0008B52F0008C401002041
:1031C000C8010020DC010020E4010020024A13684D
:1031D00001331360704700BFC0010020014B186825
:1031E000704700BFE4010020F8B53A4B1B68002B84
:1031F00069D1394B1D6801351D60C5B9374B1B6856
:103200001B6843B14FF0500383F31188BFF36F8FF6
:10321000BFF34F8FFEE7314A1168314B18681060D9
:103220001960304A136801331360FFF78FFD2E4B8E
:103230001B68AB423DD900272C4B1B68DB6A03EBB4
:1032400083039A002A4B9B58012B00D90127294B55
:103250001B68002B3CD001273AE001271F4B1B685D
:103260001B6843B31D4B1B68DB68DC6863689D42C9
:1032700026D3261D3046FFF701FAA36A1BB104F1DD
:103280001800FFF7FBF9E36A1B4A1268934201D961
:10329000194A136003EB83039A0031461448104423
:1032A000FFF7C8F9E26A114B1B68DB6A9A42D4D275
:1032B000D4E70027D2E70C4B4FF0FF321A60BBE790
:1032C000094A1360B8E70D4A1368013313600027F9
:1032D0003846F8BDC0010020E40100203002002083
:1032E0002C020020D0010020C8010020BC060020D4
:1032F0005C020020D4010020E0010020D801002061
:1033000038B5354B1B6843B94FF0500383F3118830
:10331000BFF36F8FBFF34F8FFEE700F07BFE2E4BA6
:103320001A68013A1A601B68002B4FD12B4B1B689F
:103330000BB900244BE00024294B1B681BB3284B1E
:10334000DB68DC6804F11800FFF798F9251D2846B2
:10335000FFF794F9E06A234B1B68984201D9214B8F
:10336000186000EB800029461F4B03EB8000FFF73D
:1033700061F9E26A1D4B1B68DB6A9A42DCD31C4B85
:1033800001221A60D8E70CB1FFF7E0FC194B1C686A
:1033900084B9174B1C68D4B14FF0E0234FF0805232
:1033A000C3F8042DBFF34F8FBFF36F8F01240EE0DE
:1033B000013C07D0FFF718FF0028F9D00C4B012281
:1033C0001A60F5E70B4B00221A60E2E7002400F0D8
:1033D00043FE204638BD00BFC0010020E8010020A8
:1033E00018020020E00100205C020020BC06002042
:1033F000D4010020D801002010B5A8B10446104B1C
:103400001B6843B14FF0500383F31188BFF36F8FF4
:10341000BFF34F8FFEE7FFF7D9FE00212046FFF7ED
:10342000DDFDFFF76DFF48B94FF0E0234FF080520C
:10343000C3F8042DBFF34F8FBFF36F8F10BD00BFD4
:10344000C0010020204B1B681BB1204B01221A60D9
:1034500070471E4B00221A601D4B1B6803EB830153
:103460008A001C498A585AB90BB1013BF6E74FF064
:10347000500383F31188BFF36F8FBFF34F8FFEE7C5
:10348000084603EB83018A00024451684968516091
:1034900003EB830C4FEA8C020832024491420BD0BA
:1034A00003EB830291000B4A0A445268D1680A4A2E
:1034B0001160074A13607047486862469100054AE8
:1034C0000A445060ECE700BFC0010020D401002096
:1034D000E00100205C020020BC06002058B110B5BD
:1034E0000C46094A11681831FFF7AFF80121204650
:1034F000FFF774FD10BD4FF0500383F31188BFF345
:103500006F8FBFF34F8FFEE7BC06002038B570B158
:103510000D4614460A4A11681831FFF78BF80CB1B2
:103520004FF0FF3521462846FFF758FD38BD4FF0D4
:10353000500383F31188BFF36F8FBFF34F8FFEE704
:10354000BC06002038B5C368DC6824B304F1180554
:103550002846FFF793F8184B1B682BBB251D284600
:10356000FFF78CF8E06A154B1B68984201D9134BA2
:10357000186000EB80002946114B03EB8000FFF739
:1035800059F8E26A0F4B1B68DB6A9A4211D9012095
:103590000D4B186038BD4FF0500383F31188BFF313
:1035A0006F8FBFF34F8FFEE729460848FFF742F8B9
:1035B000E7E70020EEE700BFC0010020E0010020A7
:1035C0005C020020BC060020D4010020180200206C
:1035D000034B1B680360034B1B684360704700BFCD
:1035E000D0010020E4010020E0B170B50C46054692
:1035F00009B300F00FFD1C4B19686B68C81A2268EC
:10360000B2F1FF3F28D0DFF864C0DCF800C02E68BC
:10361000664501D08B4224D9824215D8002323600D
:1036200001241AE04FF0500383F31188BFF36F8F2A
:10363000BFF34F8FFEE74FF0500383F31188BFF3C2
:103640006F8FBFF34F8FFEE75B1A1344236028464A
:10365000FFF7BEFF002400E0002400F0FDFC204640
:1036600070BD0124F9E700BFE4010020D001002073
:10367000014B01221A607047D4010020054B1B68E2
:1036800033B1054B1B680BB1002070470220704717
:1036900001207047DC010020C001002000283BD041
:1036A00038B504461E4B1B68834208D04FF05003C8
:1036B00083F31188BFF36F8FBFF34F8FFEE7036D66
:1036C00043B94FF0500383F31188BFF36F8FBFF3FB
:1036D0004F8FFEE7013B0365C16AC26C91421DD06A
:1036E0000BB1002038BD051D2846FEF7C7FFE06C72
:1036F000E062C0F13803A3610A4B1B68984201D90C
:10370000084B186000EB80002946074B03EB800054
:10371000FEF790FF0120E5E7002070470020E1E779
:10372000BC060020E00100205C020020064B1A6865
:1037300013682BB90123036023B9D3681868704755
:103740000023F8E700207047C007002008B541605B
:10375000006191420CD8D21A83699A4201D30120A8
:1037600008BD011D094B1868FEF76FFF0020F7E741
:103770009A4201D2994206D2011D054B1868FEF704
:1037800064FF0020ECE70120EAE700BFBC0700204F
:10379000C007002030B583B000F03CFC114B1B6823
:1037A0001BB100F059FC03B030BD0F4D2846FEF7A9
:1037B00033FF0E4C2046FEF72FFF0D4B1D600D4BC7
:1037C0001C60002300930C4B0C4A10210A20FFF7C9
:1037D0005BF8044B18600028E3D00949FFF778FA3A
:1037E000DFE700BFB8070020D8070020C40700208B
:1037F000C0070020BC070020C006002010070020E2
:10380000EC4E000810B588B0FFF7C4FF124B1B68E0
:10381000CBB100240594069407AA06A905A800F0D8
:103820005DFA059B0293069B0193022300932346B6
:10383000079A0A490A48FFF70FFC0A4B186010B1B3
:10384000012008B010BD4FF0500383F31188BFF37F
:103850006F8FBFF34F8FFEE7B8070020F44E0008CC
:10386000693B0008B4070020B8B19C4603461848DD
:10387000006850B300B585B000910192029305290C
:103880001CDCFFF7FBFE022810D000231A46694615
:103890000F480068FFF742F815E04FF0500383F33C
:1038A0001188BFF36F8FBFF34F8FFEE70023069A97
:1038B000694607480068FFF731F804E000236246D4
:1038C0006946FFF7EFF805B000BD0020704700BF64
:1038D000B807002070B582B01B4B1B681A6862B332
:1038E000DB681E68DC68251D2846FEF7C7FE236AD4
:1038F0002046984794F8283013F0040FECD0A369C1
:1039000033449E4207D26360246129460E4B1868F7
:10391000FEF79BFEE0E7002100910B463246204671
:10392000FFF7A2FF0028D7D14FF0500383F311888F
:10393000BFF36F8FBFF34F8FFEE7044A1068024951
:103940000860136002B070BDC0070020BC070020F3
:1039500038B50546FFF742FC0446074B1B68834217
:1039600005D800232B60044B1C60204638BDFFF7B0
:10397000B1FF01232B60F6E7B007002070B582B0DD
:1039800006460D4617490968C968CC68201DFEF730
:1039900075FE94F828C01CF0040F08D12CF0010C1F
:1039A00084F828C0236A2046984702B070BDA169F8
:1039B00033462A4631442046FFF7C8FE0028F1D09E
:1039C000002100910B4632462046FFF74DFF0028AC
:1039D000E8D14FF0500383F31188BFF36F8FBFF32B
:1039E0004F8FFEE7C007002070B582B006460C4638
:1039F000FFF7ECFB01A8FFF7ABFF019B33BB0546CC
:103A0000E4B9B04213D22246711B124B1868FFF77B
:103A100073F9FFF775FCD8B94FF0E0234FF08052EF
:103A2000C3F8042DBFF34F8FBFF36F8F10E0FFF784
:103A300067FC29463046FFF7A1FF09E0064A1268F5
:103A400012680AB90124DEE71C46DCE7FFF758FCE0
:103A500002B070BDB8070020BC07002010B588B0C8
:103A600002E0049B002B0FDA002204A93D4B1868EA
:103A7000FFF77FF8002872D0049B002BF1DA07993A
:103A80000698059B9847ECE7069C636913B1201DD7
:103A9000FEF7F4FD03A8FFF75BFF0246049B092B2A
:103AA000E2D8DFE803F00505052F364E05052F3671
:103AB00094F8283043F0010384F82830059BA1696D
:103AC00019442046FFF742FE0028CDD0236A204645
:103AD000984794F8283013F0040FC5D0A26900214C
:103AE00000910B46059802442046FFF7BDFE0028D2
:103AF000BAD14FF0500383F31188BFF36F8FBFF338
:103B00004F8FFEE794F8283023F0010384F8283023
:103B1000AAE794F8283043F0010384F82830059987
:103B2000A16129B1034601442046FFF70FFE9BE740
:103B30004FF0500383F31188BFF36F8FBFF34F8FA4
:103B4000FEE794F8283013F0020F04D023F00103AD
:103B500084F8283088E7204600F0B2F984E708B0FE
:103B600010BD00BFB807002000B583B001A8FFF763
:103B7000DDFD0199FFF738FFFFF770FFF6E708B5A5
:103B80004FF0E0231B69FFF779FD012800D108BD44
:103B900000F0B0FAFBE70000EFF305832BB9064B0A
:103BA000186828B901221A6070476FF00500704745
:103BB0004FF0FF30704700BFA40E0020EFF30583E5
:103BC00073B90A4B1B68012B0DD110B50024084BAB
:103BD000DC77064B02221A60FFF7ACFA204610BDD4
:103BE0006FF0050070474FF0FF307047A40E0020C3
:103BF00000ED00E0F0B587B000240594EFF30584F4
:103C000004BBF8B1002A34D0156893692BB11E4665
:103C1000013B372B02D9002015E01826536813F01A
:103C2000010F3FD1546984B14FEA940C93682BB1D2
:103C3000D7685B2F02D9176907B184B943B14FF038
:103C4000FF330BB3059807B0F0BD4FF0800CEDE7E4
:103C5000D368A3B91369ABB14FF0FF33F1E7029317
:103C6000019700960B4662462946FFF7F5F9059045
:103C7000E8E71546002318264FF0800CE1E74FF0E7
:103C8000FF33DEE70023DCE705AB019300960B462C
:103C90001FFA8CF22946FFF71AFA0128D2D0002326
:103CA0000593CFE70020CEE708B5EFF3058333B9DE
:103CB00008B9002008BDFFF79FFB0020FAE76FF06E
:103CC0000500F7E7034B0360034B0B608023136091
:103CD000704700BF480E0020480C0020034B0360D3
:103CE000034B0B604FF4807313607047EC0B0020A4
:103CF000EC070020124A12F0070F1ED0D11D21F050
:103D00000701C1F5705313440A460E4802600021B2
:103D100041601344083B23F007030B4803605960DC
:103D20001960991A51601360084B1960084B1960AB
:103D3000084B4FF000421A6070474FF47053E4E7AD
:103D4000C80E0020C00E0020BC0E0020B40E0020C3
:103D5000B80E0020A80E0020164B1A461B6883429E
:103D6000FBD3516802EB010C844509D0416800EB9C
:103D7000010C634509D00360904219D01060704770
:103D80004068014451601046F0E710B40A4C2468C2
:103D9000A3420BD05B681944416013681B68036041
:103DA000904200D010605DF8044B70470460F7E764
:103DB000704700BFC00E0020BC0E002038B504467E
:103DC000FFF704FA384B1B68B3B1384B1B681C4231
:103DD00050D1002C50D004F1080214F0070F02D08B
:103DE00022F007020832002A55D0314B1B6893425B
:103DF00053D330490C6804E0FFF77CFFE5E7214628
:103E00001C466368934202D22368002BF7D1264BED
:103E10001B68A34243D00D68083523680B606368B4
:103E20009B1A102B10D9A01810F0070F08D04FF0D4
:103E3000500383F31188BFF36F8FBFF34F8FFEE7FB
:103E400043606260FFF788FF626819490B689B1A3C
:103E50000B60194909688B4201D217490B60134B5B
:103E60001B681343636000232360144A1368013303
:103E7000136002E0002500E00025FFF741FA15F08D
:103E8000070F0ED04FF0500383F31188BFF36F8FED
:103E9000BFF34F8FFEE70025EFE70025EDE7002594
:103EA000EBE7284638BD00BFBC0E0020A80E00205E
:103EB000B80E0020C00E0020B40E0020B00E00206E
:103EC000002834D038B50446A0F1080550F8043C69
:103ED000174A1268134208D14FF0500383F3118838
:103EE000BFF36F8FBFF34F8FFEE750F8081C41B14F
:103EF0004FF0500383F31188BFF36F8FBFF34F8FE1
:103F0000FEE723EA020340F8043CFFF75FF954F8A8
:103F1000041C084A13680B4413602846FFF71CFF73
:103F2000054A136801331360FFF7EAF938BD70479B
:103F3000A80E0020B80E0020AC0E002082B0002396
:103F400001930D4B1B68B3F1FF3F08D04FF05003B6
:103F500083F31188BFF36F8FBFF34F8FFEE74FF0EE
:103F6000500383F31188BFF36F8FBFF34F8F019B13
:103F7000002BFCD002B070470C00002008480068FD
:103F8000006880F308884FF0000080F3148862B660
:103F900061B6BFF34F8FBFF36F8F00DF00BF00002C
:103FA00008ED00E0DFF80C00016841F470010160E9
:103FB0007047000088ED00E04FF0807340F8043C4B
:103FC00021F0010140F8081C054B40F80C3C40F87A
:103FD000202C6FF0020340F8243C4438704700BFA7
:103FE0003D3F00080000000000000000000000004D
:103FF000074B19680868B0E8F04F80F30988BFF3F1
:104000006F8F4FF0000080F311887047AFF300808E
:10401000BC0600204FF0500383F31188BFF36F8F6D
:10402000BFF34F8F0B4A136801331360012B00D08D
:1040300070474FF0E023D3F8043D13F0FF0FF7D0A3
:104040004FF0500383F31188BFF36F8FBFF34F8F8F
:10405000FEE700BF0C000020094B1B6843B94FF07E
:10406000500383F31188BFF36F8FBFF34F8FFEE7C9
:10407000013B034A13600BB983F31188704700BFFB
:104080000C00002000000000000000000000000004
:10409000EFF30980BFF36F8F154B1A681EF0100FF6
:1040A00008BF20ED108A20E9F04F106009B44FF0EE
:1040B000500080F31188BFF34F8FBFF36F8FFFF76E
:1040C000C1F94FF0000080F3118809BC1968086835
:1040D000B0E8F04F1EF0100F08BFB0EC108A80F36C
:1040E0000988BFF36F8F7047AFF30080AFF3008094
:1040F000BC06002008B54FF0500383F31188BFF3CE
:104100006F8FBFF34F8FFFF76FF828B14FF0E023A9
:104110004FF08052C3F8042D002383F3118808BDAB
:104120004FF0E022002313619361054B1B680549A2
:10413000A1FB03139B09013B5361072313617047E4
:1041400008000020D34D62104FF0E023D3F8002D7B
:104150003D4B9A421CD04FF0E023D3F8002D3B4B4F
:104160009A421ED030B583B0394B1A78D2B2019240
:10417000FF221A701B78DBB28DF803309DF80330F4
:1041800003F05003334A1370334B07221A601BE0CD
:104190004FF0500383F31188BFF36F8FBFF34F8F3E
:1041A000FEE74FF0500383F31188BFF36F8FBFF327
:1041B0004F8FFEE7284A1368013B13609DF80330D8
:1041C0005B00DBB28DF803309DF8033013F0800FF5
:1041D000F0D1214B1B68032B08D04FF0500383F321
:1041E0001188BFF36F8FBFF34F8FFEE71B021A4A90
:1041F000136003F4E0631360019BDBB2144A137095
:104200004FF0E024D4F8203D43F47003C4F8203D7F
:10421000D4F8203D43F07043C4F8203DFFF780FF01
:1042200000250E4B1D60FFF7BDFED4F8343F43F070
:104230004043C4F8343FFFF7A1FEFFF703F9FFF74F
:104240007DFE284603B030BD71C20F4170C20F41E0
:1042500000E400E0CC4A0020C84A00200C00002006
:10426000EFF305830F2B0ED9114A9A5C114B1B7883
:104270009A4208D24FF0500383F31188BFF36F8F37
:10428000BFF34F8FFEE74FF0E023D3F80C3D03F46C
:10429000E063094A1268934208D94FF0500383F350
:1042A0001188BFF36F8FBFF34F8FFEE7704700BFDA
:1042B000F0E300E0CC4A0020C84A002000B585B0F9
:1042C000002300930193029303932148214A026043
:1042D0004FF480324260836001220261027680F8EE
:1042E0002030C3621C498162C3600321C16180F830
:1042F0003020436100F08CFBE8B901230093019367
:10430000072302936946124800F0AEFBB0B90423BC
:1043100000930223019369460D4800F0A5FB80B984
:1043200008230093032301936946094800F09CFB8E
:1043300050B905B000BDFCF7F5F8DEE7FCF7F2F880
:10434000E5E7FCF7EFF8EBE7FCF7ECF8F1E700BF87
:10435000304B0020002001400100000FF0B589B073
:10436000002303930493059306930793026803F1D4
:10437000804303F590339A4201D009B0F0BD044662
:104380000025009503F58C335A6C42F480725A6410
:104390005A6C02F480720092009A01951A6B42F0F6
:1043A00001021A631A6B02F001020192019A02954E
:1043B0001A6B42F002021A631B6B03F002030293B2
:1043C000029B122303930327049703AE314615483B
:1043D000FDF786FA012303930497059531461248A9
:1043E000FDF77EFA1148124B036045608560C56099
:1043F0004FF4806303614FF4805343614FF4804373
:1044000083614FF48073C3614FF48033036245626C
:10441000FDF7C6FB18B9054BA3639C63ADE7FCF73A
:1044200081F8F8E70000024000040240D04A002072
:104430001064024008B50B480B4B03600B4B436004
:1044400000238360C3604FF4804202614361836153
:10445000C361036200F0D2FB00B908BDFCF762F84B
:10446000FBE700BF784B002000540040A08601000D
:1044700030B589B000230393049305930693079303
:104480000268144B9A4201D009B030BD0025019555
:10449000114C236B43F002032363236B03F00203ED
:1044A0000193019B4FF4407303931223049303235E
:1044B00006930423079303A90848FDF711FA029510
:1044C000236C43F400132364236C03F4001302935E
:1044D000029BD9E70054004000380240000402402B
:1044E00010B58CB003AC24220021204600F0A3FCC0
:1044F0000023019302931348134A026043608360D0
:104500004FF6FF72C26003618361032303930122AC
:1045100005920523079309920B932146FCF7C2FCF1
:1045200048B900230193029301A90648FCF73AFE1B
:1045300020B90CB010BDFBF7F5FFF2E7FBF7F2FF77
:10454000F7E700BFA44C00200004004008B509486C
:10455000094B0360532343600023836043F6972293
:10456000C26003618361FCF745FC00B908BDFBF73D
:10457000D9FFFBE7144C00200044014008B509486E
:10458000094B0360532343600023836040F2E7320A
:10459000C26003618361FCF72DFC00B908BDFBF725
:1045A000C1FFFBE7CC4B00200048014000B585B0BF
:1045B0000368B3F1804F07D01E4A934211D01E4AC0
:1045C000934222D005B000BD002301931B4B1A6C0F
:1045D00042F001021A641B6C03F001030193019B7A
:1045E000F0E700220292154B596C41F400315964F6
:1045F0005B6C03F400330293029B0F211920FDF73B
:10460000D1FC1920FDF7DEFCDCE7002203920B4B06
:10461000596C41F4802159645B6C03F4802303934B
:10462000039B05211A20FDF7BDFC1A20FDF7CAFCEB
:10463000C8E700BF00440140004801400038024084
:1046400000B589B000230393049305930693079361
:104650000268134B9A4201D009B000BD00210191BC
:1046600003F50D331A6C42F002021A641A6C02F060
:1046700002020192019A02911A6B42F001021A633E
:104680001B6B03F001030293029BC02303930223DD
:104690000493079303A90348FDF722F9DCE700BF61
:1046A00000040040000002400268094B9A4200D01A
:1046B000704782B000230193064B1A6C42F004024B
:1046C0001A641B6C03F004030193019B02B0704752
:1046D0000008004000380240F0B589B00023039381
:1046E00004930593069307930368B3F1804F04D0B6
:1046F000234A93422ED009B0F0BD0024009403F564
:104700000E331A6B42F001021A631A6B02F00102B7
:104710000092009A01941A6B42F002021A631B6B1A
:1047200003F002030193019B0125039502270497DF
:10473000079503AE31461348FDF7D2F84FF4806376
:104740000393049705940694079531460E48FDF7A8
:10475000C7F8D0E7002302930C4B1A6B42F0020219
:104760001A631B6B03F002030293029BC0230393A3
:1047700002230493079303A90348FDF7B1F8BAE7AE
:1047800000080040000002400004024000380240DF
:1047900000B58FB000230A930B930C930D930893ED
:1047A000099301930293039304930593069307934C
:1047B00025484FF08042026029224260836049F61A
:1047C0003F42C26003618361FCF714FB48BB4FF4B6
:1047D00080530A930AA91C48FCF765FC20BB1A48C1
:1047E000FCF734FB18BB00230893099308A916486B
:1047F000FCF7D8FCF0B960230193002202920392E7
:10480000059201A91048FCF7D3FBB0B9082201A911
:104810000D48FCF7CDFB98B90B48FFF75DFF0FB0D3
:1048200000BDFBF77FFED2E7FBF77CFED7E7FBF787
:1048300079FED8E7FBF776FEDDE7FBF773FEE5E7E9
:10484000FBF770FEE8E700BFEC4C002000B58BB032
:104850000023089309930193029303930493059310
:10486000069307931B481C4A0260436083604FF61F
:10487000FF72C26003618361FCF7E8FAF0B90023BC
:104880000893099308A91348FCF78CFCC8B9602366
:104890000193002202920392059201A90D48FCF7B0
:1048A00087FB88B904220DEB02010A48FCF780FB64
:1048B00068B90848FFF710FF0BB000BDFBF732FEE8
:1048C000DDE7FBF72FFEE2E7FBF72CFEEAE7FBF75D
:1048D00029FEEEE75C4C0020000800404A4B5A6875
:1048E00022F440325A605A6841680A435A600268AA
:1048F000536823F48073536002685368016943EA84
:10490000012353600268536823F0407353600268C8
:10491000536881680B4353600268936823F4006313
:10492000936002689368C1680B439360826A374B57
:104930009A4257D00268936823F0706393600268CC
:104940009368816A0B4393600268936823F0405335
:10495000936002689368C16A0B439360026893682E
:1049600023F00203936002689368017E43EA4103E7
:10497000936090F82030002B3FD00268536843F4D6
:10498000006353600268536823F460435360016816
:104990004B68426A013A43EA42334B600268D36A89
:1049A00023F47003D3620168CB6AC269013A43EA17
:1049B0000253CB620268936823F400739360026829
:1049C000936890F8301043EA41239360026893683B
:1049D00023F48063936002689368416943EA81230A
:1049E000936070470268936823F070639360026875
:1049F000936823F040539360B0E70268536823F450
:104A000000635360CAE700BF002301400100000FAC
:104A100038B310B50446036C43B1236C13F0100F88
:104A20000BD00120002384F83C3010BDFFF796FC2A
:104A30000023636484F83C30EFE7236C23F488534D
:104A400023F0020343F0020323642046FFF746FFEE
:104A500000206064236C23F0030343F0010323640C
:104A6000E0E701207047000030B482B000220192DC
:104A700090F83C20012A00F0B6800346012280F81D
:104A80003C200A68092A40D90468E06892B202EB27
:104A900042021E3A4FF0070C0CFA02F220EA020220
:104AA000E2601C68E0680A8802EB42021E3A8D68E8
:104AB00005FA02F20243E2604A68062A3CD81C6802
:104AC000606B02EB8202053A4FF01F0C0CFA02F207
:104AD00020EA020262631C68606B4A6802EB820291
:104AE000053AB1F800C00CFA02F20243626318689A
:104AF0003E4A904250D018683C4A904255D000201F
:104B000083F83C0002B030BC70470468206992B260
:104B100002EB42024FF0070C0CFA02F220EA02020A
:104B200022611C6820690A8802EB42028D6805FA3E
:104B300002F202432261BFE70C2A16D81D68286BD7
:104B400002EB8202233A1F2404FA02F220EA020254
:104B50002A631D68286B4A6802EB8202233A0C889C
:104B600004FA02F202432A63C1E71D68E86A02EB15
:104B70008202413A1F2404FA02F220EA0202EA62A7
:104B80001D68E86A4A6802EB8202413A0C8804FA1E
:104B900002F20243EA62AAE70A68122AABD1144879
:104BA000426842F480024260A5E70A68103A012A8E
:104BB000A5D80F48426842F4000242600A68102AF1
:104BC0009DD10C4A12680C49A1FB0212920C02EB17
:104BD00082025200019202E0019A013A0192019A86
:104BE000002AF9D18BE702208CE700BF00200140AA
:104BF000002301400800002083DE1B43002800F052
:104C0000CC8070B5044690F83D30002B77D024233B
:104C100084F83D302268136823F001031360226892
:104C2000136843F4004313602268136823F40043BD
:104C30001360FCF717FE62685A4B9A4264D85A4BCD
:104C400098428CBF00230123002B40F0A8805749D5
:104C5000A1FB00318B0C25686A6822F03F0242EA12
:104C600091426A6021680A6A22F03F0266684D4DEF
:104C7000AE424FD8013313430B622168CA6922F454
:104C80004F4222F0FF026568464B9D424CD8431EBE
:104C90006D00B3FBF5F3013340F6FC70034278D0AE
:104CA000C3F30B031A43CA6121680B6823F0C003E6
:104CB000E269206A024313430B6021688B6823F486
:104CC000034323F0FF032269E068024313438B6030
:104CD0002168CB6823F0FF036269A0690243134394
:104CE000CB602268136843F0010313600020206446
:104CF000202384F83D30206384F83E0070BD80F8A6
:104D00003C30FFF7B5FB82E7294B98428CBF00236C
:104D1000012399E74FF4967505FB03F3254DA5FB99
:104D200003539B090133A6E7A668BEB9431E05EBF2
:104D3000450CB3FBFCF30133C3F30B03B3FA83F36A
:104D40005B0943BBC6B9431E05EB4505B3FBF5F351
:104D50000133C3F30B0343F40043A3E7431E05EB06
:104D6000850C0CEB8C0CB3FBFCF30133C3F30B038E
:104D7000B3FA83F35B09E4E7431E05EB850505EB16
:104D80008505B3FBF5F30133C3F30B0343F4404351
:104D900088E7042386E7012384E701207047012088
:104DA000ACE700BFA08601007F841E0083DE1B43AA
:104DB000FF083D00D34D621008B50120FEF774FFD7
:104DC000FBE7000008B5044A00210448FEF712FF83
:104DD000034B186008BD00BF084F0008B94D00081C
:104DE000707C0020DFF834D0FDF70CFC0C480D4936
:104DF0000D4A002302E0D458C4500433C4188C4236
:104E0000F9D30A4A0A4C002301E013600432A2429B
:104E1000FBD300F019F8FBF7DBFB704700800120A3
:104E200000000020100000203C4F0008100000206F
:104E3000747C0020FEE702440346934200D1704791
:104E400003F8011BF9E7000070B50D4B0D4D5B1B1E
:104E50009C100026A64209D100F028F80A4D0B4B01
:104E60005B1B9C100026A64205D170BD55F8043B83
:104E700098470136EEE755F8043B98470136F2E7CC
:104E8000344F0008344F0008344F0008384F0008F2
:104E90000A44914200F1FF3300D1704710B511F878
:104EA000014B03F8014F9142F9D110BDF8B500BF95
:104EB000F8BC08BC9E467047F8B500BFF8BC08BCFB
:044EC0009E46704753
:104EC400000610160006101600000000010203047C
:104ED40000000000000000000102030406070809A6
:104EE40049444C4500000000546D7251000000001C
:104EF400546D72205376630064656661756C7454F6
:104F040061736B00FC4E000800000000344D00206B
:104F14005C000000904D0020E02E0000180000000E
:084F2400000000000000000085
:084F2C00E4B2FF7F0100000068
:044F3400C5010008AB
:044F3800A1010008CB
:104F3C0001000000100000000024F400AAAAAAAA94
:0400000508004DE5BD
:00000001FF
